{
  "contractName": "CommitteeDAO",
  "abi": [
    {
      "constant": true,
      "inputs": [
        {
          "name": "",
          "type": "uint256"
        }
      ],
      "name": "owners",
      "outputs": [
        {
          "name": "",
          "type": "address"
        }
      ],
      "payable": false,
      "stateMutability": "view",
      "type": "function"
    },
    {
      "constant": true,
      "inputs": [],
      "name": "name",
      "outputs": [
        {
          "name": "",
          "type": "string"
        }
      ],
      "payable": false,
      "stateMutability": "view",
      "type": "function"
    },
    {
      "constant": true,
      "inputs": [
        {
          "name": "",
          "type": "address"
        }
      ],
      "name": "isOwner",
      "outputs": [
        {
          "name": "",
          "type": "bool"
        }
      ],
      "payable": false,
      "stateMutability": "view",
      "type": "function"
    },
    {
      "constant": true,
      "inputs": [
        {
          "name": "",
          "type": "uint256"
        }
      ],
      "name": "motions",
      "outputs": [
        {
          "name": "destination",
          "type": "address"
        },
        {
          "name": "value",
          "type": "uint256"
        },
        {
          "name": "data",
          "type": "bytes"
        },
        {
          "name": "executed",
          "type": "bool"
        },
        {
          "name": "proposal",
          "type": "string"
        }
      ],
      "payable": false,
      "stateMutability": "view",
      "type": "function"
    },
    {
      "constant": true,
      "inputs": [],
      "name": "transactionCount",
      "outputs": [
        {
          "name": "",
          "type": "uint256"
        }
      ],
      "payable": false,
      "stateMutability": "view",
      "type": "function"
    },
    {
      "constant": true,
      "inputs": [],
      "name": "MAX_OWNER_COUNT",
      "outputs": [
        {
          "name": "",
          "type": "uint256"
        }
      ],
      "payable": false,
      "stateMutability": "view",
      "type": "function"
    },
    {
      "constant": true,
      "inputs": [],
      "name": "required",
      "outputs": [
        {
          "name": "",
          "type": "uint256"
        }
      ],
      "payable": false,
      "stateMutability": "view",
      "type": "function"
    },
    {
      "inputs": [
        {
          "name": "_owners",
          "type": "address[]"
        },
        {
          "name": "name",
          "type": "string"
        }
      ],
      "payable": false,
      "stateMutability": "nonpayable",
      "type": "constructor"
    },
    {
      "payable": true,
      "stateMutability": "payable",
      "type": "fallback"
    },
    {
      "anonymous": false,
      "inputs": [
        {
          "indexed": true,
          "name": "sender",
          "type": "address"
        },
        {
          "indexed": true,
          "name": "transactionId",
          "type": "uint256"
        }
      ],
      "name": "Confirmation",
      "type": "event"
    },
    {
      "anonymous": false,
      "inputs": [
        {
          "indexed": true,
          "name": "sender",
          "type": "address"
        },
        {
          "indexed": true,
          "name": "transactionId",
          "type": "uint256"
        }
      ],
      "name": "Revocation",
      "type": "event"
    },
    {
      "anonymous": false,
      "inputs": [
        {
          "indexed": true,
          "name": "transactionId",
          "type": "uint256"
        }
      ],
      "name": "Submission",
      "type": "event"
    },
    {
      "anonymous": false,
      "inputs": [
        {
          "indexed": true,
          "name": "transactionId",
          "type": "uint256"
        }
      ],
      "name": "Execution",
      "type": "event"
    },
    {
      "anonymous": false,
      "inputs": [
        {
          "indexed": true,
          "name": "transactionId",
          "type": "uint256"
        }
      ],
      "name": "ExecutionFailure",
      "type": "event"
    },
    {
      "anonymous": false,
      "inputs": [
        {
          "indexed": true,
          "name": "sender",
          "type": "address"
        },
        {
          "indexed": false,
          "name": "value",
          "type": "uint256"
        }
      ],
      "name": "Deposit",
      "type": "event"
    },
    {
      "anonymous": false,
      "inputs": [
        {
          "indexed": true,
          "name": "owner",
          "type": "address"
        }
      ],
      "name": "OwnerAddition",
      "type": "event"
    },
    {
      "anonymous": false,
      "inputs": [
        {
          "indexed": true,
          "name": "owner",
          "type": "address"
        }
      ],
      "name": "OwnerRemoval",
      "type": "event"
    },
    {
      "anonymous": false,
      "inputs": [
        {
          "indexed": false,
          "name": "required",
          "type": "uint256"
        }
      ],
      "name": "RequirementChange",
      "type": "event"
    },
    {
      "anonymous": false,
      "inputs": [
        {
          "indexed": false,
          "name": "name",
          "type": "string"
        }
      ],
      "name": "Renamed",
      "type": "event"
    },
    {
      "constant": false,
      "inputs": [
        {
          "name": "_name",
          "type": "string"
        }
      ],
      "name": "reName",
      "outputs": [],
      "payable": false,
      "stateMutability": "nonpayable",
      "type": "function"
    },
    {
      "constant": false,
      "inputs": [
        {
          "name": "owner",
          "type": "address"
        }
      ],
      "name": "addOwner",
      "outputs": [],
      "payable": false,
      "stateMutability": "nonpayable",
      "type": "function"
    },
    {
      "constant": false,
      "inputs": [
        {
          "name": "owner",
          "type": "address"
        }
      ],
      "name": "removeOwner",
      "outputs": [],
      "payable": false,
      "stateMutability": "nonpayable",
      "type": "function"
    },
    {
      "constant": false,
      "inputs": [
        {
          "name": "owner",
          "type": "address"
        },
        {
          "name": "newOwner",
          "type": "address"
        }
      ],
      "name": "replaceOwner",
      "outputs": [],
      "payable": false,
      "stateMutability": "nonpayable",
      "type": "function"
    },
    {
      "constant": false,
      "inputs": [
        {
          "name": "_required",
          "type": "uint256"
        }
      ],
      "name": "changeRequirement",
      "outputs": [],
      "payable": false,
      "stateMutability": "nonpayable",
      "type": "function"
    },
    {
      "constant": false,
      "inputs": [
        {
          "name": "destination",
          "type": "address"
        },
        {
          "name": "value",
          "type": "uint256"
        },
        {
          "name": "data",
          "type": "bytes"
        },
        {
          "name": "proposal",
          "type": "string"
        }
      ],
      "name": "submitTransaction",
      "outputs": [
        {
          "name": "transactionId",
          "type": "uint256"
        }
      ],
      "payable": false,
      "stateMutability": "nonpayable",
      "type": "function"
    },
    {
      "constant": false,
      "inputs": [
        {
          "name": "transactionId",
          "type": "uint256"
        }
      ],
      "name": "confirmTransaction",
      "outputs": [],
      "payable": false,
      "stateMutability": "nonpayable",
      "type": "function"
    },
    {
      "constant": false,
      "inputs": [
        {
          "name": "transactionId",
          "type": "uint256"
        }
      ],
      "name": "revokeConfirmation",
      "outputs": [],
      "payable": false,
      "stateMutability": "nonpayable",
      "type": "function"
    },
    {
      "constant": false,
      "inputs": [
        {
          "name": "transactionId",
          "type": "uint256"
        }
      ],
      "name": "executeTransaction",
      "outputs": [],
      "payable": false,
      "stateMutability": "nonpayable",
      "type": "function"
    },
    {
      "constant": true,
      "inputs": [
        {
          "name": "transactionId",
          "type": "uint256"
        }
      ],
      "name": "isConfirmed",
      "outputs": [
        {
          "name": "",
          "type": "bool"
        }
      ],
      "payable": false,
      "stateMutability": "view",
      "type": "function"
    },
    {
      "constant": true,
      "inputs": [
        {
          "name": "transactionId",
          "type": "uint256"
        }
      ],
      "name": "getConfirmationCount",
      "outputs": [
        {
          "name": "count",
          "type": "uint256"
        }
      ],
      "payable": false,
      "stateMutability": "view",
      "type": "function"
    },
    {
      "constant": true,
      "inputs": [
        {
          "name": "pending",
          "type": "bool"
        },
        {
          "name": "executed",
          "type": "bool"
        }
      ],
      "name": "getTransactionCount",
      "outputs": [
        {
          "name": "count",
          "type": "uint256"
        }
      ],
      "payable": false,
      "stateMutability": "view",
      "type": "function"
    },
    {
      "constant": true,
      "inputs": [
        {
          "name": "transactionId",
          "type": "uint256"
        }
      ],
      "name": "getConfirmations",
      "outputs": [
        {
          "name": "_confirmations",
          "type": "address[]"
        }
      ],
      "payable": false,
      "stateMutability": "view",
      "type": "function"
    },
    {
      "constant": true,
      "inputs": [
        {
          "name": "from",
          "type": "uint256"
        },
        {
          "name": "to",
          "type": "uint256"
        },
        {
          "name": "pending",
          "type": "bool"
        },
        {
          "name": "executed",
          "type": "bool"
        }
      ],
      "name": "getTransactionIds",
      "outputs": [
        {
          "name": "_transactionIds",
          "type": "uint256[]"
        }
      ],
      "payable": false,
      "stateMutability": "view",
      "type": "function"
    },
    {
      "constant": true,
      "inputs": [],
      "name": "getOwnerCount",
      "outputs": [
        {
          "name": "",
          "type": "uint256"
        }
      ],
      "payable": false,
      "stateMutability": "view",
      "type": "function"
    }
  ],
  "bytecode": "0x60806040523480156200001157600080fd5b5060405162001d2838038062001d28833981018060405260408110156200003757600080fd5b8101908080516401000000008111156200005057600080fd5b820160208101848111156200006457600080fd5b81518560208202830111640100000000821117156200008257600080fd5b505092919060200180516401000000008111156200009f57600080fd5b82016020810184811115620000b357600080fd5b8151640100000000811182820187101715620000ce57600080fd5b50508051909350839250620000ec915060009060208401906200022d565b505081516002810460010160328211158015620001095750818111155b80156200011557508015155b80156200012157508115155b15156200012d57600080fd5b60005b845181101562000200576003600086838151811015156200014d57fe5b6020908102909101810151600160a060020a031682528101919091526040016000205460ff16158015620001a4575084516000908690839081106200018e57fe5b90602001906020020151600160a060020a031614155b1515620001b057600080fd5b6001600360008784815181101515620001c557fe5b602090810291909101810151600160a060020a03168252810191909152604001600020805460ff191691151591909117905560010162000130565b50835162000216906004906020870190620002b2565b5050915160029004600101600555506200035f9050565b828054600181600116156101000203166002900490600052602060002090601f016020900481019282601f106200027057805160ff1916838001178555620002a0565b82800160010185558215620002a0579182015b82811115620002a057825182559160200191906001019062000283565b50620002ae92915062000318565b5090565b8280548282559060005260206000209081019282156200030a579160200282015b828111156200030a5782518254600160a060020a031916600160a060020a03909116178255602090920191600190910190620002d3565b50620002ae92915062000338565b6200033591905b80821115620002ae57600081556001016200031f565b90565b6200033591905b80821115620002ae578054600160a060020a03191681556001016200033f565b6119b9806200036f6000396000f3fe608060405260043610610121577c01000000000000000000000000000000000000000000000000000000006000350463025e7c27811461016357806306fdde03146101a9578063173825d91461023357806320ea8d86146102665780632f54bf6e1461029057806346e24b08146102d757806354741525146104385780637065cb481461046c578063784547a71461049f5780638b51d13f146104c9578063a8abe69a146104f3578063b21d36a814610583578063b5dc40c3146106b6578063b77bf600146106e0578063ba51a6df146106f5578063c01a8c841461071f578063cc168b8a14610749578063d74f8edd146107fc578063dc8452cd14610811578063e20056e614610826578063ee22610b14610861578063ef18374a1461088b575b60003411156101615760408051348152905133917fe1fffcc4923d04b559f4d29a8bfc6cda04eb5b0d3c460751c2402c5c5cc9109c919081900360200190a25b005b34801561016f57600080fd5b5061018d6004803603602081101561018657600080fd5b50356108a0565b60408051600160a060020a039092168252519081900360200190f35b3480156101b557600080fd5b506101be6108c8565b6040805160208082528351818301528351919283929083019185019080838360005b838110156101f85781810151838201526020016101e0565b50505050905090810190601f1680156102255780820380516001836020036101000a031916815260200191505b509250505060405180910390f35b34801561023f57600080fd5b506101616004803603602081101561025657600080fd5b5035600160a060020a0316610956565b34801561027257600080fd5b506101616004803603602081101561028957600080fd5b5035610ac2565b34801561029c57600080fd5b506102c3600480360360208110156102b357600080fd5b5035600160a060020a0316610b7c565b604080519115158252519081900360200190f35b3480156102e357600080fd5b50610426600480360360808110156102fa57600080fd5b600160a060020a038235169160208101359181019060608101604082013564010000000081111561032a57600080fd5b82018360208201111561033c57600080fd5b8035906020019184600183028401116401000000008311171561035e57600080fd5b91908080601f01602080910402602001604051908101604052809392919081815260200183838082843760009201919091525092959493602081019350359150506401000000008111156103b157600080fd5b8201836020820111156103c357600080fd5b803590602001918460018302840111640100000000831117156103e557600080fd5b91908080601f016020809104026020016040519081016040528093929190818152602001838380828437600092019190915250929550610b91945050505050565b60408051918252519081900360200190f35b34801561044457600080fd5b506104266004803603604081101561045b57600080fd5b508035151590602001351515610bd2565b34801561047857600080fd5b506101616004803603602081101561048f57600080fd5b5035600160a060020a0316610c3e565b3480156104ab57600080fd5b506102c3600480360360208110156104c257600080fd5b5035610d42565b3480156104d557600080fd5b50610426600480360360208110156104ec57600080fd5b5035610dc9565b3480156104ff57600080fd5b506105336004803603608081101561051657600080fd5b508035906020810135906040810135151590606001351515610e38565b60408051602080825283518183015283519192839290830191858101910280838360005b8381101561056f578181015183820152602001610557565b505050509050019250505060405180910390f35b34801561058f57600080fd5b506105ad600480360360208110156105a657600080fd5b5035610f68565b6040518086600160a060020a0316600160a060020a03168152602001858152602001806020018415151515815260200180602001838103835286818151815260200191508051906020019080838360005b838110156106165781810151838201526020016105fe565b50505050905090810190601f1680156106435780820380516001836020036101000a031916815260200191505b50838103825284518152845160209182019186019080838360005b8381101561067657818101518382015260200161065e565b50505050905090810190601f1680156106a35780820380516001836020036101000a031916815260200191505b5097505050505050505060405180910390f35b3480156106c257600080fd5b50610533600480360360208110156106d957600080fd5b50356110b6565b3480156106ec57600080fd5b50610426611227565b34801561070157600080fd5b506101616004803603602081101561071857600080fd5b503561122d565b34801561072b57600080fd5b506101616004803603602081101561074257600080fd5b50356112ac565b34801561075557600080fd5b506101616004803603602081101561076c57600080fd5b81019060208101813564010000000081111561078757600080fd5b82018360208201111561079957600080fd5b803590602001918460018302840111640100000000831117156107bb57600080fd5b91908080601f016020809104026020016040519081016040528093929190818152602001838380828437600092019190915250929550611375945050505050565b34801561080857600080fd5b50610426611445565b34801561081d57600080fd5b5061042661144a565b34801561083257600080fd5b506101616004803603604081101561084957600080fd5b50600160a060020a0381358116916020013516611450565b34801561086d57600080fd5b506101616004803603602081101561088457600080fd5b50356115d3565b34801561089757600080fd5b5061042661178b565b60048054829081106108ae57fe5b600091825260209091200154600160a060020a0316905081565b6000805460408051602060026001851615610100026000190190941693909304601f8101849004840282018401909252818152929183018282801561094e5780601f106109235761010080835404028352916020019161094e565b820191906000526020600020905b81548152906001019060200180831161093157829003601f168201915b505050505081565b33301461096257600080fd5b600160a060020a038116600090815260036020526040902054819060ff16151561098b57600080fd5b600160a060020a0382166000908152600360205260408120805460ff191690555b60045460001901811015610a615782600160a060020a03166004828154811015156109d357fe5b600091825260209091200154600160a060020a03161415610a5957600480546000198101908110610a0057fe5b60009182526020909120015460048054600160a060020a039092169183908110610a2657fe5b9060005260206000200160006101000a815481600160a060020a030219169083600160a060020a03160217905550610a61565b6001016109ac565b50600480546000190190610a7590826118cc565b50600454610a8a906002905b0460010161122d565b604051600160a060020a038316907f8001553a916ef2f495d26a907cc54d96ed840d7bda71e73194bf5a9df7a76b9090600090a25050565b3360008181526003602052604090205460ff161515610ae057600080fd5b60008281526002602090815260408083203380855292529091205483919060ff161515610b0c57600080fd5b600084815260016020526040902060030154849060ff1615610b2d57600080fd5b6000858152600260209081526040808320338085529252808320805460ff191690555187927ff6a317157440607f36269043eb55f1287a5a19ba2216afeab88cd46cbcfb88e991a35050505050565b60036020526000908152604090205460ff1681565b3360008181526003602052604081205490919060ff161515610bb257600080fd5b610bbe86868686611792565b9150610bc9826112ac565b50949350505050565b6000805b600654811015610c3757838015610bff575060008181526001602052604090206003015460ff16155b80610c235750828015610c23575060008181526001602052604090206003015460ff165b15610c2f576001820191505b600101610bd6565b5092915050565b333014610c4a57600080fd5b600160a060020a038116600090815260036020526040902054819060ff1615610c7257600080fd5b81600160a060020a0381161515610c8857600080fd5b600160a060020a0383166000818152600360205260408120805460ff19166001908117909155600480549182018155918290527f8a35acfbc15ff81a39ae7d344fd709f28e8600b4aa8c65c6b64bfe7fe36bd19b01805473ffffffffffffffffffffffffffffffffffffffff191690921790915554610d0990600290610a81565b604051600160a060020a038416907ff39e6e1eb0edcf53c221607b54b00cd28f3196fed0a24994dc308b8f611b682d90600090a2505050565b600080805b600454811015610dc15760008481526002602052604081206004805491929184908110610d7057fe5b6000918252602080832090910154600160a060020a0316835282019290925260400190205460ff1615610da4576001820191505b600554821415610db957600192505050610dc4565b600101610d47565b50505b919050565b6000805b600454811015610e325760008381526002602052604081206004805491929184908110610df657fe5b6000918252602080832090910154600160a060020a0316835282019290925260400190205460ff1615610e2a576001820191505b600101610dcd565b50919050565b606080600654604051908082528060200260200182016040528015610e67578160200160208202803883390190505b5090506000805b600654811015610ee857858015610e96575060008181526001602052604090206003015460ff165b80610eba5750848015610eba575060008181526001602052604090206003015460ff165b15610ee057808383815181101515610ece57fe5b60209081029091010152600191909101905b600101610e6e565b878703604051908082528060200260200182016040528015610f14578160200160208202803883390190505b5093508790505b86811015610f5d578281815181101515610f3157fe5b9060200190602002015184898303815181101515610f4b57fe5b60209081029091010152600101610f1b565b505050949350505050565b6001602081815260009283526040928390208054818401546002808401805488516101009882161598909802600019011691909104601f8101869004860287018601909752868652600160a060020a0390921695909492938301828280156110115780601f10610fe657610100808354040283529160200191611011565b820191906000526020600020905b815481529060010190602001808311610ff457829003601f168201915b50505050600383015460048401805460408051602060026101006001861615026000190190941693909304601f8101849004840282018401909252818152959660ff90941695939450908301828280156110ac5780601f10611081576101008083540402835291602001916110ac565b820191906000526020600020905b81548152906001019060200180831161108f57829003601f168201915b5050505050905085565b6060806004805490506040519080825280602002602001820160405280156110e8578160200160208202803883390190505b5090506000805b6004548110156111a0576000858152600260205260408120600480549192918490811061111857fe5b6000918252602080832090910154600160a060020a0316835282019290925260400190205460ff161561119857600480548290811061115357fe5b6000918252602090912001548351600160a060020a039091169084908490811061117957fe5b600160a060020a03909216602092830290910190910152600191909101905b6001016110ef565b816040519080825280602002602001820160405280156111ca578160200160208202803883390190505b509350600090505b8181101561121f5782818151811015156111e857fe5b90602001906020020151848281518110151561120057fe5b600160a060020a039092166020928302909101909101526001016111d2565b505050919050565b60065481565b33301461123957600080fd5b600454816032821180159061124e5750818111155b801561125957508015155b801561126457508115155b151561126f57600080fd5b60058390556040805184815290517fa3f1ee9126a074d9326c682f561767f710e927faa811f7a99829d49dc421797a9181900360200190a1505050565b3360008181526003602052604090205460ff1615156112ca57600080fd5b6000828152600160205260409020548290600160a060020a031615156112ef57600080fd5b60008381526002602090815260408083203380855292529091205484919060ff161561131a57600080fd5b6000858152600260209081526040808320338085529252808320805460ff191660011790555187927f4a504a94899432a9846e1aa406dceb1bcfd538bb839071d49d1e5e23f5be30ef91a361136e856115d3565b5050505050565b33301461138157600080fd5b80516113949060009060208401906118f5565b5060408051602080825260008054600260001961010060018416150201909116049183018290527f72e439a2d2348e4711ee609edf6fcfd2a4ff52ad22d5fc9d05ec02b57e416255939092918291820190849080156114345780601f1061140957610100808354040283529160200191611434565b820191906000526020600020905b81548152906001019060200180831161141757829003601f168201915b50509250505060405180910390a150565b603281565b60055481565b33301461145c57600080fd5b600160a060020a038216600090815260036020526040902054829060ff16151561148557600080fd5b600160a060020a038216600090815260036020526040902054829060ff16156114ad57600080fd5b60005b6004548110156115395784600160a060020a03166004828154811015156114d357fe5b600091825260209091200154600160a060020a0316141561153157836004828154811015156114fe57fe5b9060005260206000200160006101000a815481600160a060020a030219169083600160a060020a03160217905550611539565b6001016114b0565b50600160a060020a03808516600081815260036020526040808220805460ff1990811690915593871682528082208054909416600117909355915190917f8001553a916ef2f495d26a907cc54d96ed840d7bda71e73194bf5a9df7a76b9091a2604051600160a060020a038416907ff39e6e1eb0edcf53c221607b54b00cd28f3196fed0a24994dc308b8f611b682d90600090a250505050565b3360008181526003602052604090205460ff1615156115f157600080fd5b60008281526002602090815260408083203380855292529091205483919060ff16151561161d57600080fd5b600084815260016020526040902060030154849060ff161561163e57600080fd5b61164785610d42565b1561136e5760008581526001602081815260409283902060038101805460ff1916841790558054818401546002808401805488516101009882161598909802600019011691909104601f8101869004860287018601909752868652929561171695600160a060020a03909316949193909291839083018282801561170c5780601f106116e15761010080835404028352916020019161170c565b820191906000526020600020905b8154815290600101906020018083116116ef57829003601f168201915b50505050506118a9565b1561174b5760405186907f33e13ecb54c3076d8e8bb8c2881800a4d972b792045ffae98fdf46df365fed7590600090a2611783565b60405186907f526441bb6c1aba3c9a4a6ca1d6545da9c2333c8c48343ef398eb858d72b7923690600090a260038101805460ff191690555b505050505050565b6004545b90565b600084600160a060020a03811615156117aa57600080fd5b6006546040805160a081018252600160a060020a03898116825260208083018a81528385018a8152600060608601819052608086018b905287815260018085529690208551815473ffffffffffffffffffffffffffffffffffffffff1916951694909417845590519483019490945592518051949650919390926118359260028501929101906118f5565b50606082015160038201805460ff1916911515919091179055608082015180516118699160048401916020909101906118f5565b50506006805460010190555060405182907fc0ba8fe4b176c1714197d43b9cc6bcf797a4a7461c5fe8d0ef6e184ae7601e5190600090a250949350505050565b6000806040516020840160008287838a8c6187965a03f198975050505050505050565b8154818355818111156118f0576000838152602090206118f0918101908301611973565b505050565b828054600181600116156101000203166002900490600052602060002090601f016020900481019282601f1061193657805160ff1916838001178555611963565b82800160010185558215611963579182015b82811115611963578251825591602001919060010190611948565b5061196f929150611973565b5090565b61178f91905b8082111561196f576000815560010161197956fea165627a7a72305820a251cc8a79136ce93bd8265155497f6bcf8496c448e0489ffd1292528b7818ff0029",
  "source": "/**\r\n *@title CommitteeDAO.\r\n *@author Duncan Brain <duncan@brainenterprise.ca>\r\n *@version 0.5\r\n *@notice This is a multiple signature wallet that adapts the transaction object to include a proposal parameter. Motion\r\n * was chosen as a function of committees. The motion pass requirement is set at 50% + 1.\r\n */\r\n\r\npragma solidity ^0.5.0;\r\n\r\nimport \"./Nameable.sol\";\r\n\r\ncontract CommitteeDAO is Nameable{\r\n\r\n    /*\r\n     *  Constants\r\n     */\r\n    uint constant public MAX_OWNER_COUNT = 50;\r\n\r\n    struct Motion {\r\n        address destination;\r\n        uint value;\r\n        bytes data;\r\n        bool executed;\r\n        string proposal;\r\n    }\r\n\r\n    /*\r\n     *  Storage\r\n     */\r\n    mapping(uint => Motion) public motions;\r\n    mapping (uint => mapping (address => bool)) internal confirmations;\r\n    mapping (address => bool) public isOwner;\r\n    address[] public owners;\r\n    uint public required;\r\n    uint public transactionCount;\r\n\r\n\r\n    /*\r\n     *  Events\r\n     */\r\n    event Confirmation(address indexed sender, uint indexed transactionId);\r\n    event Revocation(address indexed sender, uint indexed transactionId);\r\n    event Submission(uint indexed transactionId);\r\n    event Execution(uint indexed transactionId);\r\n    event ExecutionFailure(uint indexed transactionId);\r\n    event Deposit(address indexed sender, uint value);\r\n    event OwnerAddition(address indexed owner);\r\n    event OwnerRemoval(address indexed owner);\r\n    event RequirementChange(uint required);\r\n\r\n\r\n\r\n    /*\r\n     *  Modifiers\r\n     */\r\n     /*\r\n     *  Modifiers\r\n     */\r\n    modifier onlyWallet() {\r\n        require(msg.sender == address(this));\r\n        _;\r\n    }\r\n\r\n    modifier ownerDoesNotExist(address owner) {\r\n        require(!isOwner[owner]);\r\n        _;\r\n    }\r\n\r\n    modifier ownerExists(address owner) {\r\n        require(isOwner[owner]);\r\n        _;\r\n    }\r\n\r\n    ///@dev Overrides the MultiSigWallet struct transactions with motions\r\n    modifier transactionExists(uint transactionId) {\r\n        require(motions[transactionId].destination != address(0));\r\n        _;\r\n    }\r\n\r\n    modifier confirmed(uint transactionId, address owner) {\r\n        require(confirmations[transactionId][owner]);\r\n        _;\r\n    }\r\n\r\n    modifier notConfirmed(uint transactionId, address owner) {\r\n        require(!confirmations[transactionId][owner]);\r\n        _;\r\n    }\r\n\r\n   ///@dev Overrides the MultiSigWallet struct transactions with motions\r\n    modifier notExecuted(uint transactionId) {\r\n        require(!motions[transactionId].executed);\r\n        _;\r\n    }\r\n\r\n    modifier notNull(address _address) {\r\n        require(_address != address(0));\r\n        _;\r\n    }\r\n\r\n    modifier validRequirement(uint ownerCount, uint _required) {\r\n        require(ownerCount <= MAX_OWNER_COUNT\r\n        && _required <= ownerCount\r\n        && _required != 0\r\n        && ownerCount != 0);\r\n        _;\r\n    }\r\n    /*\r\n     *  Fallback Function\r\n     */\r\n    /// @dev Emits event when deposit is made.\r\n    function() external payable {\r\n        if (msg.value > 0){\r\n            emit Deposit(msg.sender, msg.value);\r\n        }\r\n    }\r\n\r\n    /*\r\n     * Public functions\r\n     */\r\n    /// @dev Contract constructor sets initial owners and required number of confirmations.\r\n    /// @param _owners List of initial owners.\r\n    /// @param _required Number of required confirmations.\r\n    ///@dev Sets MultiSigWallet transaction pass requirement to 50% + 1.\r\n    constructor(address[] memory _owners, string memory name)\r\n        public\r\n        Nameable(name)\r\n        validRequirement(_owners.length, _owners.length/2 + 1)\r\n    {\r\n        for (uint i = 0; i < _owners.length; i++) {\r\n            require(!isOwner[_owners[i]] && _owners[i] != address(0));\r\n            isOwner[_owners[i]] = true;\r\n        }\r\n        owners = _owners;\r\n        required = _owners.length/2 + 1;\r\n    }\r\n\r\n    ///@dev Called by a owner to name.\r\n    function reName(string memory _name) public onlyWallet{\r\n        name = _name;\r\n        emit Renamed(name);\r\n    }\r\n\r\n    /// @dev Overrides MultiSigWallet to keep transaction pass requirement to 50% + 1\r\n    function addOwner(address owner)\r\n        public\r\n        onlyWallet\r\n        ownerDoesNotExist(owner)\r\n        notNull(owner)\r\n    {\r\n        isOwner[owner] = true;\r\n        owners.push(owner);\r\n        changeRequirement((owners.length/2) + 1);\r\n        emit OwnerAddition(owner);\r\n    }\r\n\r\n    /// @dev Overrides MultiSigWallet to keep transaction pass requirement to 50% + 1\r\n    function removeOwner(address owner)\r\n        public\r\n        onlyWallet\r\n        ownerExists(owner)\r\n    {\r\n        isOwner[owner] = false;\r\n        for (uint i = 0; i < owners.length - 1; i++){\r\n            if (owners[i] == owner) {\r\n                owners[i] = owners[owners.length - 1];\r\n                break;\r\n            }\r\n        }\r\n        owners.length -= 1;\r\n        changeRequirement(owners.length/2 + 1);\r\n        emit OwnerRemoval(owner);\r\n    }\r\n\r\n    /// @dev Allows to replace an owner with a new owner. Transaction has to be sent by wallet.\r\n    /// @param owner Address of owner to be replaced.\r\n    /// @param newOwner Address of new owner.\r\n    function replaceOwner(address owner, address newOwner)\r\n        public\r\n        onlyWallet\r\n        ownerExists(owner)\r\n        ownerDoesNotExist(newOwner)\r\n    {\r\n        for (uint i = 0; i < owners.length; i++){\r\n            if (owners[i] == owner) {\r\n                owners[i] = newOwner;\r\n                break;\r\n            }\r\n        }\r\n        isOwner[owner] = false;\r\n        isOwner[newOwner] = true;\r\n        emit OwnerRemoval(owner);\r\n        emit OwnerAddition(newOwner);\r\n    }\r\n\r\n    /// @dev Allows to change the number of required confirmations. Transaction has to be sent by wallet.\r\n    /// @param _required Number of required confirmations.\r\n    function changeRequirement(uint _required)\r\n        public\r\n        onlyWallet\r\n        validRequirement(owners.length, _required)\r\n    {\r\n        required = _required;\r\n        emit RequirementChange(_required);\r\n    }\r\n\r\n    /// @dev Allows an owner to submit and confirm a transaction.\r\n    /// @param destination Transaction target address.\r\n    /// @param value Transaction ether value.\r\n    /// @param data Transaction data payload.\r\n    /// @return Returns transaction ID.\r\n    function submitTransaction(address destination, uint value, bytes memory data, string memory proposal)\r\n        public\r\n        ownerExists(msg.sender)\r\n        returns (uint transactionId)\r\n    {\r\n        transactionId = addTransaction(destination, value, data, proposal);\r\n        confirmTransaction(transactionId);\r\n    }\r\n\r\n    /// @dev Allows an owner to confirm a transaction.\r\n    /// @param transactionId Transaction ID.\r\n    function confirmTransaction(uint transactionId)\r\n        public\r\n        ownerExists(msg.sender)\r\n        transactionExists(transactionId)\r\n        notConfirmed(transactionId, msg.sender)\r\n    {\r\n        confirmations[transactionId][msg.sender] = true;\r\n        emit Confirmation(msg.sender, transactionId);\r\n        executeTransaction(transactionId);\r\n    }\r\n\r\n    /// @dev Allows an owner to revoke a confirmation for a transaction.\r\n    /// @param transactionId Transaction ID.\r\n    function revokeConfirmation(uint transactionId)\r\n        public\r\n        ownerExists(msg.sender)\r\n        confirmed(transactionId, msg.sender)\r\n        notExecuted(transactionId)\r\n    {\r\n        confirmations[transactionId][msg.sender] = false;\r\n        emit Revocation(msg.sender, transactionId);\r\n    }\r\n\r\n    /// @dev Allows anyone to execute a confirmed transaction.\r\n    /// @param transactionId Transaction ID.\r\n    function executeTransaction(uint transactionId)\r\n        public\r\n        ownerExists(msg.sender)\r\n        confirmed(transactionId, msg.sender)\r\n        notExecuted(transactionId)\r\n    {\r\n        if (isConfirmed(transactionId)) {\r\n            Motion storage txn = motions[transactionId];\r\n            txn.executed = true;\r\n            if (external_call(txn.destination, txn.value, txn.data.length, txn.data)){\r\n                emit Execution(transactionId);\r\n            }\r\n            else {\r\n                emit ExecutionFailure(transactionId);\r\n                txn.executed = false;\r\n            }\r\n        }\r\n    }\r\n\r\n    /// @dev Returns the confirmation status of a transaction.\r\n    /// @param transactionId Transaction ID.\r\n    /// @return Confirmation status.\r\n    function isConfirmed(uint transactionId)\r\n        public\r\n        view\r\n        returns (bool)\r\n    {\r\n        uint count = 0;\r\n        for (uint i = 0; i < owners.length; i++) {\r\n            if (confirmations[transactionId][owners[i]]){\r\n                count += 1;\r\n            }\r\n            if (count == required){\r\n                return true;\r\n            }\r\n        }\r\n    }\r\n\r\n    /*\r\n     * Internal functions\r\n     */\r\n    ///@dev call has been separated into its own function in order to take advantage of the Solidity's code generator\r\n    ///to produce a loop that copies tx.data into memory.\r\n    ///@param destination Address of transaction.\r\n    ///@param value Ether attached to transaction.\r\n    ///@param dataLength Length of parameter data.\r\n    ///@param data Encoded transaction data.\r\n    ///@return bool Success or failure of transaction\r\n    function external_call(address destination, uint value, uint dataLength, bytes memory data)\r\n        internal\r\n        returns(bool)\r\n    {\r\n        bool result;\r\n        assembly {\r\n            let x := mload(0x40)   // \"Allocate\" memory for output (0x40 is where \"free memory\" pointer is stored by convention)\r\n            let d := add(data, 32) // First 32 bytes are the padded length of data, so exclude that\r\n            result := call(\r\n                sub(gas, 34710),   // 34710 is the value that solidity is currently emitting\r\n                // It includes callGas (700) + callVeryLow (3, to pay for SUB) + callValueTransferGas (9000) +\r\n                // callNewAccountGas (25000, in case the destination address does not exist and needs creating)\r\n                destination,\r\n                value,\r\n                d,\r\n                dataLength,        // Size of the input (in bytes) - this is what fixes the padding problem\r\n                x,\r\n                0                  // Output is ignored, therefore the output size is zero\r\n            )\r\n        }\r\n        return result;\r\n    }\r\n\r\n    ///@dev Overrides the MultiSigWallet struct transactions with motions\r\n    ///@param proposal is an explanation of the transaction\r\n    function addTransaction(address destination, uint value, bytes memory data, string memory proposal)\r\n        internal\r\n        notNull(destination)\r\n        returns (uint transactionId)\r\n    {\r\n        transactionId = transactionCount;\r\n        motions[transactionId] = Motion({\r\n            destination: destination,\r\n            value: value,\r\n            data: data,\r\n            executed: false,\r\n            proposal: proposal\r\n        });\r\n        transactionCount += 1;\r\n        emit Submission(transactionId);\r\n    }\r\n\r\n    /*\r\n     * Getter functions\r\n     */\r\n    /// @dev Returns number of confirmations of a transaction.\r\n    /// @param transactionId Transaction ID.\r\n    /// @return Number of confirmations.\r\n    function getConfirmationCount(uint transactionId)\r\n        public\r\n        view\r\n        returns (uint count)\r\n    {\r\n        for (uint i = 0; i < owners.length; i++){\r\n            if (confirmations[transactionId][owners[i]]){\r\n                count += 1;\r\n            }\r\n        }\r\n    }\r\n\r\n    ///@dev Overrides the MultiSigWallet struct transactions with motions\r\n    function getTransactionCount(bool pending, bool executed)\r\n        public\r\n        view\r\n        returns (uint count)\r\n    {\r\n        for (uint i = 0; i < transactionCount; i++){\r\n            if (pending && !motions[i].executed || executed && motions[i].executed){\r\n                count += 1;\r\n            }\r\n        }\r\n    }\r\n\r\n    /// @dev Returns array with owner addresses, which confirmed transaction.\r\n    /// @param transactionId Transaction ID.\r\n    /// @return Returns array of owner addresses.\r\n    function getConfirmations(uint transactionId)\r\n        public\r\n        view\r\n        returns (address[] memory _confirmations)\r\n    {\r\n        address[] memory confirmationsTemp = new address[](owners.length);\r\n        uint count = 0;\r\n        uint i;\r\n        for (i = 0; i < owners.length; i++){\r\n            if (confirmations[transactionId][owners[i]]) {\r\n                confirmationsTemp[count] = owners[i];\r\n                count += 1;\r\n            }\r\n        }\r\n        _confirmations = new address[](count);\r\n        for (i = 0; i < count; i++){\r\n            _confirmations[i] = confirmationsTemp[i];\r\n        }\r\n    }\r\n\r\n    ///@dev Overrides the MultiSigWallet struct transactions with motions\r\n    function getTransactionIds(uint from, uint to, bool pending, bool executed)\r\n        public\r\n        view\r\n        returns (uint[] memory _transactionIds)\r\n    {\r\n        uint[] memory transactionIdsTemp = new uint[](transactionCount);\r\n        uint count = 0;\r\n        uint i;\r\n        for (i = 0; i < transactionCount; i++){\r\n            if (pending && motions[i].executed || executed && motions[i].executed) {\r\n                transactionIdsTemp[count] = i;\r\n                count += 1;\r\n            }\r\n        }\r\n        _transactionIds = new uint[](to - from);\r\n        for (i = from; i < to; i++){\r\n            _transactionIds[i - from] = transactionIdsTemp[i];\r\n        }\r\n    }\r\n\r\n    //@dev Returns owner count\r\n    //@return uint of length owners\r\n    function getOwnerCount()\r\n        public\r\n        view\r\n        returns (uint)\r\n    {\r\n        return owners.length;\r\n    }\r\n}",
  "sourcePath": "C:\\Users\\Duncan\\Documents\\Projects\\SuperGood\\contracts\\CommitteeDAO.sol",
  "compiler": {
    "name": "solc",
    "version": "0.5.1+commit.c8a2cb62.Emscripten.clang"
  },
  "schemaVersion": "3.0.11",
  "updatedAt": "2019-08-01T08:38:51.870Z",
  "devdoc": {
    "methods": {
      "addOwner(address)": {
        "details": "Overrides MultiSigWallet to keep transaction pass requirement to 50% + 1"
      },
      "changeRequirement(uint256)": {
        "params": {
          "_required": "Number of required confirmations."
        }
      },
      "confirmTransaction(uint256)": {
        "params": {
          "transactionId": "Transaction ID."
        }
      },
      "constructor": {
        "details": "Sets MultiSigWallet transaction pass requirement to 50% + 1."
      },
      "executeTransaction(uint256)": {
        "params": {
          "transactionId": "Transaction ID."
        }
      },
      "getConfirmationCount(uint256)": {
        "return": "Number of confirmations."
      },
      "getConfirmations(uint256)": {
        "return": "Returns array of owner addresses."
      },
      "getTransactionCount(bool,bool)": {
        "details": "Overrides the MultiSigWallet struct transactions with motions"
      },
      "getTransactionIds(uint256,uint256,bool,bool)": {
        "details": "Overrides the MultiSigWallet struct transactions with motions"
      },
      "isConfirmed(uint256)": {
        "return": "Confirmation status."
      },
      "reName(string)": {
        "details": "Called by a owner to name."
      },
      "removeOwner(address)": {
        "details": "Overrides MultiSigWallet to keep transaction pass requirement to 50% + 1"
      },
      "replaceOwner(address,address)": {
        "params": {
          "newOwner": "Address of new owner."
        }
      },
      "revokeConfirmation(uint256)": {
        "params": {
          "transactionId": "Transaction ID."
        }
      },
      "submitTransaction(address,uint256,bytes,string)": {
        "return": "Returns transaction ID."
      }
    }
  },
  "userdoc": {
    "methods": {}
  }
}