{
  "contractName": "CommitteeDAOMultiSig",
  "abi": [
    {
      "constant": true,
      "inputs": [
        {
          "name": "",
          "type": "uint256"
        }
      ],
      "name": "owners",
      "outputs": [
        {
          "name": "",
          "type": "address"
        }
      ],
      "payable": false,
      "stateMutability": "view",
      "type": "function"
    },
    {
      "constant": true,
      "inputs": [],
      "name": "name",
      "outputs": [
        {
          "name": "",
          "type": "string"
        }
      ],
      "payable": false,
      "stateMutability": "view",
      "type": "function"
    },
    {
      "constant": false,
      "inputs": [
        {
          "name": "transactionId",
          "type": "uint256"
        }
      ],
      "name": "revokeConfirmation",
      "outputs": [],
      "payable": false,
      "stateMutability": "nonpayable",
      "type": "function"
    },
    {
      "constant": true,
      "inputs": [
        {
          "name": "",
          "type": "address"
        }
      ],
      "name": "isOwner",
      "outputs": [
        {
          "name": "",
          "type": "bool"
        }
      ],
      "payable": false,
      "stateMutability": "view",
      "type": "function"
    },
    {
      "constant": true,
      "inputs": [
        {
          "name": "",
          "type": "uint256"
        },
        {
          "name": "",
          "type": "address"
        }
      ],
      "name": "confirmations",
      "outputs": [
        {
          "name": "",
          "type": "bool"
        }
      ],
      "payable": false,
      "stateMutability": "view",
      "type": "function"
    },
    {
      "constant": true,
      "inputs": [
        {
          "name": "transactionId",
          "type": "uint256"
        }
      ],
      "name": "isConfirmed",
      "outputs": [
        {
          "name": "",
          "type": "bool"
        }
      ],
      "payable": false,
      "stateMutability": "view",
      "type": "function"
    },
    {
      "constant": true,
      "inputs": [
        {
          "name": "transactionId",
          "type": "uint256"
        }
      ],
      "name": "getConfirmationCount",
      "outputs": [
        {
          "name": "count",
          "type": "uint256"
        }
      ],
      "payable": false,
      "stateMutability": "view",
      "type": "function"
    },
    {
      "constant": true,
      "inputs": [
        {
          "name": "",
          "type": "uint256"
        }
      ],
      "name": "transactions",
      "outputs": [
        {
          "name": "destination",
          "type": "address"
        },
        {
          "name": "value",
          "type": "uint256"
        },
        {
          "name": "data",
          "type": "bytes"
        },
        {
          "name": "executed",
          "type": "bool"
        }
      ],
      "payable": false,
      "stateMutability": "view",
      "type": "function"
    },
    {
      "constant": true,
      "inputs": [],
      "name": "getOwners",
      "outputs": [
        {
          "name": "",
          "type": "address[]"
        }
      ],
      "payable": false,
      "stateMutability": "view",
      "type": "function"
    },
    {
      "constant": true,
      "inputs": [
        {
          "name": "transactionId",
          "type": "uint256"
        }
      ],
      "name": "getConfirmations",
      "outputs": [
        {
          "name": "_confirmations",
          "type": "address[]"
        }
      ],
      "payable": false,
      "stateMutability": "view",
      "type": "function"
    },
    {
      "constant": true,
      "inputs": [],
      "name": "transactionCount",
      "outputs": [
        {
          "name": "",
          "type": "uint256"
        }
      ],
      "payable": false,
      "stateMutability": "view",
      "type": "function"
    },
    {
      "constant": true,
      "inputs": [],
      "name": "MAX_OWNER_COUNT",
      "outputs": [
        {
          "name": "",
          "type": "uint256"
        }
      ],
      "payable": false,
      "stateMutability": "view",
      "type": "function"
    },
    {
      "constant": true,
      "inputs": [],
      "name": "required",
      "outputs": [
        {
          "name": "",
          "type": "uint256"
        }
      ],
      "payable": false,
      "stateMutability": "view",
      "type": "function"
    },
    {
      "constant": false,
      "inputs": [
        {
          "name": "owner",
          "type": "address"
        },
        {
          "name": "newOwner",
          "type": "address"
        }
      ],
      "name": "replaceOwner",
      "outputs": [],
      "payable": false,
      "stateMutability": "nonpayable",
      "type": "function"
    },
    {
      "inputs": [
        {
          "name": "_owners",
          "type": "address[]"
        },
        {
          "name": "name",
          "type": "string"
        }
      ],
      "payable": false,
      "stateMutability": "nonpayable",
      "type": "constructor"
    },
    {
      "payable": true,
      "stateMutability": "payable",
      "type": "fallback"
    },
    {
      "anonymous": false,
      "inputs": [
        {
          "indexed": false,
          "name": "name",
          "type": "string"
        }
      ],
      "name": "Renamed",
      "type": "event"
    },
    {
      "anonymous": false,
      "inputs": [
        {
          "indexed": true,
          "name": "sender",
          "type": "address"
        },
        {
          "indexed": true,
          "name": "transactionId",
          "type": "uint256"
        }
      ],
      "name": "Confirmation",
      "type": "event"
    },
    {
      "anonymous": false,
      "inputs": [
        {
          "indexed": true,
          "name": "sender",
          "type": "address"
        },
        {
          "indexed": true,
          "name": "transactionId",
          "type": "uint256"
        }
      ],
      "name": "Revocation",
      "type": "event"
    },
    {
      "anonymous": false,
      "inputs": [
        {
          "indexed": true,
          "name": "transactionId",
          "type": "uint256"
        }
      ],
      "name": "Submission",
      "type": "event"
    },
    {
      "anonymous": false,
      "inputs": [
        {
          "indexed": true,
          "name": "transactionId",
          "type": "uint256"
        }
      ],
      "name": "Execution",
      "type": "event"
    },
    {
      "anonymous": false,
      "inputs": [
        {
          "indexed": true,
          "name": "transactionId",
          "type": "uint256"
        }
      ],
      "name": "ExecutionFailure",
      "type": "event"
    },
    {
      "anonymous": false,
      "inputs": [
        {
          "indexed": true,
          "name": "sender",
          "type": "address"
        },
        {
          "indexed": false,
          "name": "value",
          "type": "uint256"
        }
      ],
      "name": "Deposit",
      "type": "event"
    },
    {
      "anonymous": false,
      "inputs": [
        {
          "indexed": true,
          "name": "owner",
          "type": "address"
        }
      ],
      "name": "OwnerAddition",
      "type": "event"
    },
    {
      "anonymous": false,
      "inputs": [
        {
          "indexed": true,
          "name": "owner",
          "type": "address"
        }
      ],
      "name": "OwnerRemoval",
      "type": "event"
    },
    {
      "anonymous": false,
      "inputs": [
        {
          "indexed": false,
          "name": "required",
          "type": "uint256"
        }
      ],
      "name": "RequirementChange",
      "type": "event"
    },
    {
      "constant": false,
      "inputs": [
        {
          "name": "_name",
          "type": "string"
        }
      ],
      "name": "reName",
      "outputs": [],
      "payable": false,
      "stateMutability": "nonpayable",
      "type": "function"
    },
    {
      "constant": false,
      "inputs": [
        {
          "name": "owner",
          "type": "address"
        }
      ],
      "name": "addOwner",
      "outputs": [],
      "payable": false,
      "stateMutability": "nonpayable",
      "type": "function"
    },
    {
      "constant": false,
      "inputs": [
        {
          "name": "owner",
          "type": "address"
        }
      ],
      "name": "removeOwner",
      "outputs": [],
      "payable": false,
      "stateMutability": "nonpayable",
      "type": "function"
    },
    {
      "constant": false,
      "inputs": [
        {
          "name": "destination",
          "type": "address"
        },
        {
          "name": "value",
          "type": "uint256"
        },
        {
          "name": "data",
          "type": "bytes"
        },
        {
          "name": "proposal",
          "type": "string"
        }
      ],
      "name": "submitTransaction",
      "outputs": [
        {
          "name": "transactionId",
          "type": "uint256"
        }
      ],
      "payable": false,
      "stateMutability": "nonpayable",
      "type": "function"
    },
    {
      "constant": false,
      "inputs": [
        {
          "name": "destination",
          "type": "address"
        },
        {
          "name": "value",
          "type": "uint256"
        },
        {
          "name": "data",
          "type": "bytes"
        }
      ],
      "name": "submitTransaction",
      "outputs": [
        {
          "name": "transactionId",
          "type": "uint256"
        }
      ],
      "payable": false,
      "stateMutability": "nonpayable",
      "type": "function"
    },
    {
      "constant": false,
      "inputs": [
        {
          "name": "transactionId",
          "type": "uint256"
        }
      ],
      "name": "confirmTransaction",
      "outputs": [],
      "payable": false,
      "stateMutability": "nonpayable",
      "type": "function"
    },
    {
      "constant": false,
      "inputs": [
        {
          "name": "transactionId",
          "type": "uint256"
        }
      ],
      "name": "executeTransaction",
      "outputs": [],
      "payable": false,
      "stateMutability": "nonpayable",
      "type": "function"
    },
    {
      "constant": true,
      "inputs": [
        {
          "name": "pending",
          "type": "bool"
        },
        {
          "name": "executed",
          "type": "bool"
        }
      ],
      "name": "getTransactionCount",
      "outputs": [
        {
          "name": "count",
          "type": "uint256"
        }
      ],
      "payable": false,
      "stateMutability": "view",
      "type": "function"
    },
    {
      "constant": true,
      "inputs": [
        {
          "name": "from",
          "type": "uint256"
        },
        {
          "name": "to",
          "type": "uint256"
        },
        {
          "name": "pending",
          "type": "bool"
        },
        {
          "name": "executed",
          "type": "bool"
        }
      ],
      "name": "getTransactionIds",
      "outputs": [
        {
          "name": "_transactionIds",
          "type": "uint256[]"
        }
      ],
      "payable": false,
      "stateMutability": "view",
      "type": "function"
    }
  ],
  "bytecode": "0x60806040523480156200001157600080fd5b5060405162001ea138038062001ea1833981018060405260408110156200003757600080fd5b8101908080516401000000008111156200005057600080fd5b820160208101848111156200006457600080fd5b81518560208202830111640100000000821117156200008257600080fd5b505092919060200180516401000000008111156200009f57600080fd5b82016020810184811115620000b357600080fd5b8151640100000000811182820187101715620000ce57600080fd5b5050845190935083925084915060016002820401908160328211801590620000f65750818111155b80156200010257508015155b80156200010e57508115155b15156200011a57600080fd5b60005b8451811015620001ed576002600086838151811015156200013a57fe5b6020908102909101810151600160a060020a031682528101919091526040016000205460ff1615801562000191575084516000908690839081106200017b57fe5b90602001906020020151600160a060020a031614155b15156200019d57600080fd5b6001600260008784815181101515620001b257fe5b602090810291909101810151600160a060020a03168252810191909152604001600020805460ff19169115159190911790556001016200011d565b5083516200020390600390602087019062000229565b5050506004555080516200021f90600690602084019062000293565b505050506200035b565b82805482825590600052602060002090810192821562000281579160200282015b82811115620002815782518254600160a060020a031916600160a060020a039091161782556020909201916001909101906200024a565b506200028f92915062000314565b5090565b828054600181600116156101000203166002900490600052602060002090601f016020900481019282601f10620002d657805160ff191683800117855562000306565b8280016001018555821562000306579182015b8281111562000306578251825591602001919060010190620002e9565b506200028f9291506200033e565b6200033b91905b808211156200028f578054600160a060020a03191681556001016200031b565b90565b6200033b91905b808211156200028f576000815560010162000345565b611b36806200036b6000396000f3fe60806040526004361061012c577c01000000000000000000000000000000000000000000000000000000006000350463025e7c27811461016e57806306fdde03146101b4578063173825d91461023e57806320ea8d86146102715780632f54bf6e1461029b5780633411c81c146102e257806346e24b081461031b57806354741525146104115780637065cb4814610445578063784547a7146104785780638b51d13f146104a25780639ace38c2146104cc578063a0e67e2b14610599578063a8abe69a146105fe578063b5dc40c31461063e578063b77bf60014610668578063c01a8c841461067d578063c6427474146106a7578063cc168b8a14610739578063d74f8edd146107ec578063dc8452cd14610801578063e20056e614610816578063ee22610b14610851575b600034111561016c5760408051348152905133917fe1fffcc4923d04b559f4d29a8bfc6cda04eb5b0d3c460751c2402c5c5cc9109c919081900360200190a25b005b34801561017a57600080fd5b506101986004803603602081101561019157600080fd5b503561087b565b60408051600160a060020a039092168252519081900360200190f35b3480156101c057600080fd5b506101c96108a3565b6040805160208082528351818301528351919283929083019185019080838360005b838110156102035781810151838201526020016101eb565b50505050905090810190601f1680156102305780820380516001836020036101000a031916815260200191505b509250505060405180910390f35b34801561024a57600080fd5b5061016c6004803603602081101561026157600080fd5b5035600160a060020a0316610931565b34801561027d57600080fd5b5061016c6004803603602081101561029457600080fd5b5035610a9d565b3480156102a757600080fd5b506102ce600480360360208110156102be57600080fd5b5035600160a060020a0316610b57565b604080519115158252519081900360200190f35b3480156102ee57600080fd5b506102ce6004803603604081101561030557600080fd5b5080359060200135600160a060020a0316610b6c565b34801561032757600080fd5b506103ff6004803603608081101561033e57600080fd5b600160a060020a038235169160208101359181019060608101604082013564010000000081111561036e57600080fd5b82018360208201111561038057600080fd5b803590602001918460018302840111640100000000831117156103a257600080fd5b9193909290916020810190356401000000008111156103c057600080fd5b8201836020820111156103d257600080fd5b803590602001918460018302840111640100000000831117156103f457600080fd5b509092509050610b8c565b60408051918252519081900360200190f35b34801561041d57600080fd5b506103ff6004803603604081101561043457600080fd5b508035151590602001351515610c38565b34801561045157600080fd5b5061016c6004803603602081101561046857600080fd5b5035600160a060020a0316610ca4565b34801561048457600080fd5b506102ce6004803603602081101561049b57600080fd5b5035610da8565b3480156104ae57600080fd5b506103ff600480360360208110156104c557600080fd5b5035610e2f565b3480156104d857600080fd5b506104f6600480360360208110156104ef57600080fd5b5035610e9e565b6040518085600160a060020a0316600160a060020a031681526020018481526020018060200183151515158152602001828103825284818151815260200191508051906020019080838360005b8381101561055b578181015183820152602001610543565b50505050905090810190601f1680156105885780820380516001836020036101000a031916815260200191505b509550505050505060405180910390f35b3480156105a557600080fd5b506105ae610f5c565b60408051602080825283518183015283519192839290830191858101910280838360005b838110156105ea5781810151838201526020016105d2565b505050509050019250505060405180910390f35b34801561060a57600080fd5b506105ae6004803603608081101561062157600080fd5b508035906020810135906040810135151590606001351515610fbf565b34801561064a57600080fd5b506105ae6004803603602081101561066157600080fd5b50356110f0565b34801561067457600080fd5b506103ff611261565b34801561068957600080fd5b5061016c600480360360208110156106a057600080fd5b5035611267565b3480156106b357600080fd5b506103ff600480360360608110156106ca57600080fd5b600160a060020a03823516916020810135918101906060810160408201356401000000008111156106fa57600080fd5b82018360208201111561070c57600080fd5b8035906020019184600183028401116401000000008311171561072e57600080fd5b509092509050611332565b34801561074557600080fd5b5061016c6004803603602081101561075c57600080fd5b81019060208101813564010000000081111561077757600080fd5b82018360208201111561078957600080fd5b803590602001918460018302840111640100000000831117156107ab57600080fd5b91908080601f016020809104026020016040519081016040528093929190818152602001838380828437600092019190915250929550611388945050505050565b3480156107f857600080fd5b506103ff611458565b34801561080d57600080fd5b506103ff61145d565b34801561082257600080fd5b5061016c6004803603604081101561083957600080fd5b50600160a060020a0381358116916020013516611463565b34801561085d57600080fd5b5061016c6004803603602081101561087457600080fd5b50356115e6565b600380548290811061088957fe5b600091825260209091200154600160a060020a0316905081565b6006805460408051602060026001851615610100026000190190941693909304601f810184900484028201840190925281815292918301828280156109295780601f106108fe57610100808354040283529160200191610929565b820191906000526020600020905b81548152906001019060200180831161090c57829003601f168201915b505050505081565b33301461093d57600080fd5b600160a060020a038116600090815260026020526040902054819060ff16151561096657600080fd5b600160a060020a0382166000908152600260205260408120805460ff191690555b60035460001901811015610a3c5782600160a060020a03166003828154811015156109ae57fe5b600091825260209091200154600160a060020a03161415610a34576003805460001981019081106109db57fe5b60009182526020909120015460038054600160a060020a039092169183908110610a0157fe5b9060005260206000200160006101000a815481600160a060020a030219169083600160a060020a03160217905550610a3c565b600101610987565b50600380546000190190610a509082611a49565b50600354610a65906002905b046001016117a3565b604051600160a060020a038316907f8001553a916ef2f495d26a907cc54d96ed840d7bda71e73194bf5a9df7a76b9090600090a25050565b3360008181526002602052604090205460ff161515610abb57600080fd5b60008281526001602090815260408083203380855292529091205483919060ff161515610ae757600080fd5b600084815260076020526040902060030154849060ff1615610b0857600080fd5b6000858152600160209081526040808320338085529252808320805460ff191690555187927ff6a317157440607f36269043eb55f1287a5a19ba2216afeab88cd46cbcfb88e991a35050505050565b60026020526000908152604090205460ff1681565b600160209081526000928352604080842090915290825290205460ff1681565b3360008181526002602052604081205490919060ff161515610bad57600080fd5b610c22888888888080601f01602080910402602001604051908101604052809392919081815260200183838082843760009201919091525050604080516020601f8c018190048102820181019092528a815292508a915089908190840183828082843760009201919091525061182292505050565b9150610c2d82611267565b509695505050505050565b6000805b600554811015610c9d57838015610c65575060008181526007602052604090206003015460ff16155b80610c895750828015610c89575060008181526007602052604090206003015460ff165b15610c95576001820191505b600101610c3c565b5092915050565b333014610cb057600080fd5b600160a060020a038116600090815260026020526040902054819060ff1615610cd857600080fd5b81600160a060020a0381161515610cee57600080fd5b600160a060020a03831660008181526002602081905260408220805460ff19166001908117909155600380549182018155928390527fc2575a0e9e593c00f959f8c92f12db2869c3395a3b0502d05e2516446f71f85b01805473ffffffffffffffffffffffffffffffffffffffff191690931790925554610d6f9190610a5c565b604051600160a060020a038416907ff39e6e1eb0edcf53c221607b54b00cd28f3196fed0a24994dc308b8f611b682d90600090a2505050565b600080805b600354811015610e275760008481526001602052604081206003805491929184908110610dd657fe5b6000918252602080832090910154600160a060020a0316835282019290925260400190205460ff1615610e0a576001820191505b600454821415610e1f57600192505050610e2a565b600101610dad565b50505b919050565b6000805b600354811015610e985760008381526001602052604081206003805491929184908110610e5c57fe5b6000918252602080832090910154600160a060020a0316835282019290925260400190205460ff1615610e90576001820191505b600101610e33565b50919050565b6000602081815291815260409081902080546001808301546002808501805487516101009582161595909502600019011691909104601f8101889004880284018801909652858352600160a060020a0390931695909491929190830182828015610f495780601f10610f1e57610100808354040283529160200191610f49565b820191906000526020600020905b815481529060010190602001808311610f2c57829003601f168201915b5050506003909301549192505060ff1684565b60606003805480602002602001604051908101604052809291908181526020018280548015610fb457602002820191906000526020600020905b8154600160a060020a03168152600190910190602001808311610f96575b505050505090505b90565b606080600554604051908082528060200260200182016040528015610fee578160200160208202803883390190505b5090506000805b6005548110156110705785801561101e575060008181526007602052604090206003015460ff16155b806110425750848015611042575060008181526007602052604090206003015460ff165b156110685780838381518110151561105657fe5b60209081029091010152600191909101905b600101610ff5565b87870360405190808252806020026020018201604052801561109c578160200160208202803883390190505b5093508790505b868110156110e55782818151811015156110b957fe5b90602001906020020151848983038151811015156110d357fe5b602090810290910101526001016110a3565b505050949350505050565b606080600380549050604051908082528060200260200182016040528015611122578160200160208202803883390190505b5090506000805b6003548110156111da576000858152600160205260408120600380549192918490811061115257fe5b6000918252602080832090910154600160a060020a0316835282019290925260400190205460ff16156111d257600380548290811061118d57fe5b6000918252602090912001548351600160a060020a03909116908490849081106111b357fe5b600160a060020a03909216602092830290910190910152600191909101905b600101611129565b81604051908082528060200260200182016040528015611204578160200160208202803883390190505b509350600090505b8181101561125957828181518110151561122257fe5b90602001906020020151848281518110151561123a57fe5b600160a060020a0390921660209283029091019091015260010161120c565b505050919050565b60055481565b3360008181526002602052604090205460ff16151561128557600080fd5b6000828152600760205260409020548290600160a060020a031615156112aa57600080fd5b60008381526001602090815260408083203380855292529091205484919060ff16156112d557600080fd5b6000858152600160208181526040808420338086529252808420805460ff1916909317909255905187927f4a504a94899432a9846e1aa406dceb1bcfd538bb839071d49d1e5e23f5be30ef91a361132b856115e6565b5050505050565b6000611375858585858080601f01602080910402602001604051908101604052809392919081815260200183838082843760009201919091525061193692505050565b905061138081611267565b949350505050565b33301461139457600080fd5b80516113a7906006906020840190611a72565b5060408051602080825260068054600260001961010060018416150201909116049183018290527f72e439a2d2348e4711ee609edf6fcfd2a4ff52ad22d5fc9d05ec02b57e416255939092918291820190849080156114475780601f1061141c57610100808354040283529160200191611447565b820191906000526020600020905b81548152906001019060200180831161142a57829003601f168201915b50509250505060405180910390a150565b603281565b60045481565b33301461146f57600080fd5b600160a060020a038216600090815260026020526040902054829060ff16151561149857600080fd5b600160a060020a038216600090815260026020526040902054829060ff16156114c057600080fd5b60005b60035481101561154c5784600160a060020a03166003828154811015156114e657fe5b600091825260209091200154600160a060020a03161415611544578360038281548110151561151157fe5b9060005260206000200160006101000a815481600160a060020a030219169083600160a060020a0316021790555061154c565b6001016114c3565b50600160a060020a03808516600081815260026020526040808220805460ff1990811690915593871682528082208054909416600117909355915190917f8001553a916ef2f495d26a907cc54d96ed840d7bda71e73194bf5a9df7a76b9091a2604051600160a060020a038416907ff39e6e1eb0edcf53c221607b54b00cd28f3196fed0a24994dc308b8f611b682d90600090a250505050565b3360008181526002602052604090205460ff16151561160457600080fd5b60008281526001602090815260408083203380855292529091205483919060ff16151561163057600080fd5b600084815260076020526040902060030154849060ff161561165157600080fd5b61165a85610da8565b1561132b5760008581526007602090815260409182902060038101805460ff19166001908117909155815481830154600280850180548851601f60001997831615610100029790970190911692909204948501879004870282018701909752838152939561172e95600160a060020a039093169491939283908301828280156117245780601f106116f957610100808354040283529160200191611724565b820191906000526020600020905b81548152906001019060200180831161170757829003601f168201915b5050505050611a26565b156117635760405186907f33e13ecb54c3076d8e8bb8c2881800a4d972b792045ffae98fdf46df365fed7590600090a261179b565b60405186907f526441bb6c1aba3c9a4a6ca1d6545da9c2333c8c48343ef398eb858d72b7923690600090a260038101805460ff191690555b505050505050565b3330146117af57600080fd5b60035481603282118015906117c45750818111155b80156117cf57508015155b80156117da57508115155b15156117e557600080fd5b60048390556040805184815290517fa3f1ee9126a074d9326c682f561767f710e927faa811f7a99829d49dc421797a9181900360200190a1505050565b600084600160a060020a038116151561183a57600080fd5b6005546040805160a081018252600160a060020a03898116825260208083018a81528385018a8152600060608601819052608086018b905287815260078452959095208451815473ffffffffffffffffffffffffffffffffffffffff1916941693909317835551600183015592518051949650919390926118c2926002850192910190611a72565b50606082015160038201805460ff1916911515919091179055608082015180516118f6916004840191602090910190611a72565b50506005805460010190555060405182907fc0ba8fe4b176c1714197d43b9cc6bcf797a4a7461c5fe8d0ef6e184ae7601e5190600090a250949350505050565b600083600160a060020a038116151561194e57600080fd5b60055460408051608081018252600160a060020a0388811682526020808301898152838501898152600060608601819052878152808452959095208451815473ffffffffffffffffffffffffffffffffffffffff1916941693909317835551600183015592518051949650919390926119ce926002850192910190611a72565b50606091909101516003909101805460ff191691151591909117905560058054600101905560405182907fc0ba8fe4b176c1714197d43b9cc6bcf797a4a7461c5fe8d0ef6e184ae7601e5190600090a2509392505050565b6000806040516020840160008287838a8c6187965a03f198975050505050505050565b815481835581811115611a6d57600083815260209020611a6d918101908301611af0565b505050565b828054600181600116156101000203166002900490600052602060002090601f016020900481019282601f10611ab357805160ff1916838001178555611ae0565b82800160010185558215611ae0579182015b82811115611ae0578251825591602001919060010190611ac5565b50611aec929150611af0565b5090565b610fbc91905b80821115611aec5760008155600101611af656fea165627a7a72305820c85f63aaa3a5934ba2158cc115849fcc452ba1d397255b8020e5da839524a5ca0029",
  "source": "/**\r\n *@title CommitteeDAO.\r\n *@author Duncan Brain <duncan@brainenterprise.ca>\r\n *@version 0.5\r\n *@notice This is a multiple signature wallet that adapts the transaction object to include a proposal parameter. Motion\r\n * was chosen as a function of committees. The motion pass requirement is set at 50% + 1.\r\n */\r\n\r\npragma solidity ^0.5.0;\r\n\r\nimport \"./MultiSigWallet.sol\";\r\nimport \"./Nameable.sol\";\r\n\r\ncontract CommitteeDAOMultiSig is MultiSigWallet, Nameable{\r\n\r\n    /*\r\n     *  Storage\r\n     */\r\n    mapping(uint => ProposalTransaction) proposalTransactions;\r\n\r\n    struct ProposalTransaction {\r\n        address destination;\r\n        uint value;\r\n        bytes data;\r\n        bool executed;\r\n        string proposal;\r\n    }\r\n\r\n    /*\r\n     *  Modifiers\r\n     */\r\n    ///@dev Overrides the MultiSigWallet struct transactions with proposalTransactions\r\n    modifier transactionExists(uint transactionId) {\r\n        require(proposalTransactions[transactionId].destination != address(0));\r\n        _;\r\n    }\r\n\r\n    ///@dev Overrides the MultiSigWallet struct transactions with proposalTransactions\r\n    modifier notExecuted(uint transactionId) {\r\n        require(!proposalTransactions[transactionId].executed);\r\n        _;\r\n    }\r\n\r\n    /*\r\n     * Public functions\r\n     */\r\n    ///@dev Sets MultiSigWallet transaction pass requirement to 50% + 1.\r\n    constructor(address[] memory _owners, string memory name) public\r\n        MultiSigWallet(_owners, _owners.length/2 + 1)\r\n        Nameable(name)\r\n    {}\r\n\r\n    ///@dev Called by a owner to name.\r\n    function reName(string memory _name) public onlyWallet{\r\n        name = _name;\r\n        emit Renamed(name);\r\n    }\r\n\r\n    /// @dev Overrides MultiSigWallet to keep transaction pass requirement to 50% + 1\r\n    function addOwner(address owner)\r\n        public\r\n        onlyWallet\r\n        ownerDoesNotExist(owner)\r\n        notNull(owner)\r\n    {\r\n        isOwner[owner] = true;\r\n        owners.push(owner);\r\n        changeRequirement((owners.length/2) + 1);\r\n        emit OwnerAddition(owner);\r\n    }\r\n\r\n    /// @dev Overrides MultiSigWallet to keep transaction pass requirement to 50% + 1\r\n    function removeOwner(address owner)\r\n        public\r\n        onlyWallet\r\n        ownerExists(owner)\r\n    {\r\n        isOwner[owner] = false;\r\n        for (uint i = 0; i < owners.length - 1; i++){\r\n            if (owners[i] == owner) {\r\n                owners[i] = owners[owners.length - 1];\r\n                break;\r\n            }\r\n        }\r\n        owners.length -= 1;\r\n        changeRequirement(owners.length/2 + 1);\r\n        emit OwnerRemoval(owner);\r\n    }\r\n\r\n    /// @dev Overrides MultiSigWallet to allow for proposal object in proposalTransaction\r\n    /// @param proposal is an explanation of the transaction\r\n    function submitTransaction(address destination, uint value, bytes calldata data, string calldata proposal)\r\n        external\r\n        ownerExists(msg.sender)\r\n        returns (uint transactionId)\r\n    {\r\n        transactionId = addTransaction(destination, value, data, proposal);\r\n        confirmTransaction(transactionId);\r\n    }\r\n\r\n    /// @dev **Try Deleting** Overrides MultiSigWallet to use transactionExists Modifier\r\n    function confirmTransaction(uint transactionId)\r\n        public\r\n        ownerExists(msg.sender)\r\n        transactionExists(transactionId)\r\n        notConfirmed(transactionId, msg.sender)\r\n    {\r\n        confirmations[transactionId][msg.sender] = true;\r\n        emit Confirmation(msg.sender, transactionId);\r\n        executeTransaction(transactionId);\r\n    }\r\n\r\n\r\n    ///@dev Overrides the MultiSigWallet struct transactions with proposalTransaction\r\n    function executeTransaction(uint transactionId)\r\n        public\r\n        ownerExists(msg.sender)\r\n        confirmed(transactionId, msg.sender)\r\n        notExecuted(transactionId)\r\n    {\r\n        if (isConfirmed(transactionId)) {\r\n            ProposalTransaction storage txn = proposalTransactions[transactionId];\r\n            txn.executed = true;\r\n            if (external_call(txn.destination, txn.value, txn.data.length, txn.data)){\r\n                emit Execution(transactionId);\r\n            }\r\n            else {\r\n                emit ExecutionFailure(transactionId);\r\n                txn.executed = false;\r\n            }\r\n        }\r\n    }\r\n\r\n    /**\r\n     * Internal functions\r\n     */\r\n    ///@dev Overrides the MultiSigWallet struct transactions with proposalTransaction\r\n    ///@param proposal is an explanation of the transaction\r\n    function addTransaction(address destination, uint value, bytes memory data, string memory proposal)\r\n        internal\r\n        notNull(destination)\r\n        returns (uint transactionId)\r\n    {\r\n        transactionId = transactionCount;\r\n        proposalTransactions[transactionId] = ProposalTransaction({\r\n            destination: destination,\r\n            value: value,\r\n            data: data,\r\n            executed: false,\r\n            proposal: proposal\r\n        });\r\n        transactionCount += 1;\r\n        emit Submission(transactionId);\r\n    }\r\n\r\n    /*\r\n     * Getter functions\r\n     */\r\n    ///@dev Overrides the MultiSigWallet struct transactions with proposalTransaction\r\n    function getTransactionCount(bool pending, bool executed)\r\n        public\r\n        view\r\n        returns (uint count)\r\n    {\r\n        for (uint i = 0; i < transactionCount; i++){\r\n            if (pending && !proposalTransactions[i].executed || executed && proposalTransactions[i].executed){\r\n                count += 1;\r\n            }\r\n        }\r\n    }\r\n\r\n    ///@dev Overrides the MultiSigWallet struct transactions with proposalTransaction\r\n    function getTransactionIds(uint from, uint to, bool pending, bool executed)\r\n        public\r\n        view\r\n        returns (uint[] memory _transactionIds)\r\n    {\r\n        uint[] memory transactionIdsTemp = new uint[](transactionCount);\r\n        uint count = 0;\r\n        uint i;\r\n        for (i = 0; i < transactionCount; i++){\r\n            if (pending && !proposalTransactions[i].executed || executed && proposalTransactions[i].executed) {\r\n                transactionIdsTemp[count] = i;\r\n                count += 1;\r\n            }\r\n        }\r\n        _transactionIds = new uint[](to - from);\r\n        for (i = from; i < to; i++){\r\n            _transactionIds[i - from] = transactionIdsTemp[i];\r\n        }\r\n    }\r\n}",
  "sourcePath": "C:/Users/Duncan/Documents/Projects/SuperGood/contracts/CommitteeDAOMultiSig.sol",
  "compiler": {
    "name": "solc",
    "version": "0.5.1+commit.c8a2cb62.Emscripten.clang"
  },
  "schemaVersion": "3.0.11",
  "updatedAt": "2019-07-31T22:14:01.172Z",
  "devdoc": {
    "methods": {
      "addOwner(address)": {
        "details": "Overrides MultiSigWallet to keep transaction pass requirement to 50% + 1"
      },
      "confirmTransaction(uint256)": {
        "details": "**Try Deleting** Overrides MultiSigWallet to use transactionExists Modifier"
      },
      "constructor": {
        "details": "Sets MultiSigWallet transaction pass requirement to 50% + 1."
      },
      "executeTransaction(uint256)": {
        "details": "Overrides the MultiSigWallet struct transactions with proposalTransaction"
      },
      "getConfirmationCount(uint256)": {
        "return": "Number of confirmations."
      },
      "getConfirmations(uint256)": {
        "return": "Returns array of owner addresses."
      },
      "getOwners()": {
        "return": "List of owner addresses."
      },
      "getTransactionCount(bool,bool)": {
        "details": "Overrides the MultiSigWallet struct transactions with proposalTransaction"
      },
      "getTransactionIds(uint256,uint256,bool,bool)": {
        "details": "Overrides the MultiSigWallet struct transactions with proposalTransaction"
      },
      "isConfirmed(uint256)": {
        "return": "Confirmation status."
      },
      "reName(string)": {
        "details": "Called by a owner to name."
      },
      "removeOwner(address)": {
        "details": "Overrides MultiSigWallet to keep transaction pass requirement to 50% + 1"
      },
      "replaceOwner(address,address)": {
        "params": {
          "newOwner": "Address of new owner."
        }
      },
      "revokeConfirmation(uint256)": {
        "params": {
          "transactionId": "Transaction ID."
        }
      },
      "submitTransaction(address,uint256,bytes)": {
        "return": "Returns transaction ID."
      },
      "submitTransaction(address,uint256,bytes,string)": {
        "params": {
          "proposal": "is an explanation of the transaction"
        }
      }
    }
  },
  "userdoc": {
    "methods": {}
  }
}