{
  "contractName": "EditablePortfolio",
  "abi": [
    {
      "constant": true,
      "inputs": [],
      "name": "totalShares",
      "outputs": [
        {
          "name": "",
          "type": "uint256"
        }
      ],
      "payable": false,
      "stateMutability": "view",
      "type": "function"
    },
    {
      "constant": false,
      "inputs": [],
      "name": "renounceOwnership",
      "outputs": [],
      "payable": false,
      "stateMutability": "nonpayable",
      "type": "function"
    },
    {
      "constant": true,
      "inputs": [
        {
          "name": "index",
          "type": "uint256"
        }
      ],
      "name": "payee",
      "outputs": [
        {
          "name": "",
          "type": "address"
        }
      ],
      "payable": false,
      "stateMutability": "view",
      "type": "function"
    },
    {
      "constant": true,
      "inputs": [],
      "name": "owner",
      "outputs": [
        {
          "name": "",
          "type": "address"
        }
      ],
      "payable": false,
      "stateMutability": "view",
      "type": "function"
    },
    {
      "constant": true,
      "inputs": [],
      "name": "isOwner",
      "outputs": [
        {
          "name": "",
          "type": "bool"
        }
      ],
      "payable": false,
      "stateMutability": "view",
      "type": "function"
    },
    {
      "constant": true,
      "inputs": [
        {
          "name": "account",
          "type": "address"
        }
      ],
      "name": "released",
      "outputs": [
        {
          "name": "",
          "type": "uint256"
        }
      ],
      "payable": false,
      "stateMutability": "view",
      "type": "function"
    },
    {
      "constant": true,
      "inputs": [
        {
          "name": "account",
          "type": "address"
        }
      ],
      "name": "shares",
      "outputs": [
        {
          "name": "",
          "type": "uint256"
        }
      ],
      "payable": false,
      "stateMutability": "view",
      "type": "function"
    },
    {
      "constant": true,
      "inputs": [],
      "name": "totalReleased",
      "outputs": [
        {
          "name": "",
          "type": "uint256"
        }
      ],
      "payable": false,
      "stateMutability": "view",
      "type": "function"
    },
    {
      "constant": false,
      "inputs": [
        {
          "name": "newOwner",
          "type": "address"
        }
      ],
      "name": "transferOwnership",
      "outputs": [],
      "payable": false,
      "stateMutability": "nonpayable",
      "type": "function"
    },
    {
      "inputs": [
        {
          "name": "payees",
          "type": "address[]"
        },
        {
          "name": "shares",
          "type": "uint256[]"
        }
      ],
      "payable": true,
      "stateMutability": "payable",
      "type": "constructor"
    },
    {
      "payable": true,
      "stateMutability": "payable",
      "type": "fallback"
    },
    {
      "anonymous": false,
      "inputs": [
        {
          "indexed": false,
          "name": "from",
          "type": "address"
        },
        {
          "indexed": false,
          "name": "to",
          "type": "address"
        }
      ],
      "name": "PayeeMigrated",
      "type": "event"
    },
    {
      "anonymous": false,
      "inputs": [
        {
          "indexed": false,
          "name": "payees",
          "type": "address[]"
        }
      ],
      "name": "LogEscrow",
      "type": "event"
    },
    {
      "anonymous": false,
      "inputs": [
        {
          "indexed": false,
          "name": "payees",
          "type": "address[]"
        }
      ],
      "name": "LogReconstruction",
      "type": "event"
    },
    {
      "anonymous": false,
      "inputs": [
        {
          "indexed": true,
          "name": "previousOwner",
          "type": "address"
        },
        {
          "indexed": true,
          "name": "newOwner",
          "type": "address"
        }
      ],
      "name": "OwnershipTransferred",
      "type": "event"
    },
    {
      "anonymous": false,
      "inputs": [
        {
          "indexed": false,
          "name": "account",
          "type": "address"
        },
        {
          "indexed": false,
          "name": "shares",
          "type": "uint256"
        }
      ],
      "name": "PayeeAdded",
      "type": "event"
    },
    {
      "anonymous": false,
      "inputs": [
        {
          "indexed": false,
          "name": "to",
          "type": "address"
        },
        {
          "indexed": false,
          "name": "amount",
          "type": "uint256"
        }
      ],
      "name": "PaymentReleased",
      "type": "event"
    },
    {
      "anonymous": false,
      "inputs": [
        {
          "indexed": false,
          "name": "from",
          "type": "address"
        },
        {
          "indexed": false,
          "name": "amount",
          "type": "uint256"
        }
      ],
      "name": "PaymentReceived",
      "type": "event"
    },
    {
      "constant": true,
      "inputs": [],
      "name": "totalEscrow",
      "outputs": [
        {
          "name": "",
          "type": "uint256"
        }
      ],
      "payable": false,
      "stateMutability": "view",
      "type": "function"
    },
    {
      "constant": true,
      "inputs": [],
      "name": "previousTotalReceived",
      "outputs": [
        {
          "name": "",
          "type": "uint256"
        }
      ],
      "payable": false,
      "stateMutability": "view",
      "type": "function"
    },
    {
      "constant": true,
      "inputs": [
        {
          "name": "account",
          "type": "address"
        }
      ],
      "name": "escrow",
      "outputs": [
        {
          "name": "",
          "type": "uint256"
        }
      ],
      "payable": false,
      "stateMutability": "view",
      "type": "function"
    },
    {
      "constant": true,
      "inputs": [
        {
          "name": "account",
          "type": "address"
        }
      ],
      "name": "withdrawals",
      "outputs": [
        {
          "name": "",
          "type": "uint256"
        }
      ],
      "payable": false,
      "stateMutability": "view",
      "type": "function"
    },
    {
      "constant": true,
      "inputs": [],
      "name": "payeeArray",
      "outputs": [
        {
          "name": "",
          "type": "address[]"
        }
      ],
      "payable": false,
      "stateMutability": "view",
      "type": "function"
    },
    {
      "constant": false,
      "inputs": [
        {
          "name": "account",
          "type": "address"
        }
      ],
      "name": "release",
      "outputs": [],
      "payable": false,
      "stateMutability": "nonpayable",
      "type": "function"
    },
    {
      "constant": false,
      "inputs": [
        {
          "name": "account",
          "type": "address"
        },
        {
          "name": "newAccount",
          "type": "address"
        }
      ],
      "name": "migratePayee",
      "outputs": [],
      "payable": false,
      "stateMutability": "nonpayable",
      "type": "function"
    },
    {
      "constant": false,
      "inputs": [
        {
          "name": "payees",
          "type": "address[]"
        },
        {
          "name": "shares",
          "type": "uint256[]"
        }
      ],
      "name": "reconstructor",
      "outputs": [],
      "payable": false,
      "stateMutability": "nonpayable",
      "type": "function"
    }
  ],
  "bytecode": "0x608060405260405162001d2b38038062001d2b833981018060405260408110156200002957600080fd5b8101908080516401000000008111156200004257600080fd5b820160208101848111156200005657600080fd5b81518560208202830111640100000000821117156200007457600080fd5b505092919060200180516401000000008111156200009157600080fd5b82016020810184811115620000a557600080fd5b8151856020820283011164010000000082111715620000c357600080fd5b505080518551919450859350849250146200016557604080517f08c379a000000000000000000000000000000000000000000000000000000000815260206004820152603260248201527f5061796d656e7453706c69747465723a2070617965657320616e64207368617260448201527f6573206c656e677468206d69736d617463680000000000000000000000000000606482015290519081900360840190fd5b8151600010620001d657604080517f08c379a000000000000000000000000000000000000000000000000000000000815260206004820152601a60248201527f5061796d656e7453706c69747465723a206e6f20706179656573000000000000604482015290519081900360640190fd5b60005b825181101562000237576200022e8382815181101515620001f657fe5b9060200190602002015183838151811015156200020f57fe5b906020019060200201516200028e640100000000026401000000009004565b600101620001d9565b505060058054600160a060020a031916331790819055604051600160a060020a039190911691506000907f8be0079c531659141344cd1fd0a4f28419497f9722a3daafe3b4186f6b6457e0908290a3505062000584565b600160a060020a03821615156200032c57604080517f08c379a000000000000000000000000000000000000000000000000000000000815260206004820152602c60248201527f5061796d656e7453706c69747465723a206163636f756e74206973207468652060448201527f7a65726f20616464726573730000000000000000000000000000000000000000606482015290519081900360840190fd5b600081116200039c57604080517f08c379a000000000000000000000000000000000000000000000000000000000815260206004820152601d60248201527f5061796d656e7453706c69747465723a20736861726573206172652030000000604482015290519081900360640190fd5b600160a060020a038216600090815260026020526040902054156200044857604080517f08c379a000000000000000000000000000000000000000000000000000000000815260206004820152602b60248201527f5061796d656e7453706c69747465723a206163636f756e7420616c726561647960448201527f2068617320736861726573000000000000000000000000000000000000000000606482015290519081900360840190fd5b60048054600181019091557f8a35acfbc15ff81a39ae7d344fd709f28e8600b4aa8c65c6b64bfe7fe36bd19b018054600160a060020a031916600160a060020a038416908117909155600090815260026020526040812082905554620004bd908264010000000062000508810262000f8f1704565b60005560408051600160a060020a03841681526020810183905281517f40c340f65e17194d14ddddb073d3c9f888e3cb52b5aae0c6c7706b4fbc905fac929181900390910190a15050565b6000828201838110156200057d57604080517f08c379a000000000000000000000000000000000000000000000000000000000815260206004820152601b60248201527f536166654d6174683a206164646974696f6e206f766572666c6f770000000000604482015290519081900360640190fd5b9392505050565b61179780620005946000396000f3fe6080604052600436106100ea577c010000000000000000000000000000000000000000000000000000000060003504631916558781146101265780633a98ef391461015b57806357d3c7c314610182578063715018a6146101b55780637a9262a2146101ca5780638771eb35146101fd5780638b83209b146102125780638ccc7d01146102585780638da5cb5b146103275780638f32d59b1461033c5780639852595c14610365578063a3d8984414610398578063adeca283146103ad578063ce7c2ac214610412578063e33b7de314610445578063f2fde38b1461045a578063f8c2df0d1461048d575b6040805133815234602082015281517f6ef95f06320e7a25a04a175ca677b7052bdd97131872c2192525a629f51be770929181900390910190a1005b34801561013257600080fd5b506101596004803603602081101561014957600080fd5b5035600160a060020a03166104c8565b005b34801561016757600080fd5b5061017061084a565b60408051918252519081900360200190f35b34801561018e57600080fd5b50610170600480360360208110156101a557600080fd5b5035600160a060020a0316610851565b3480156101c157600080fd5b5061015961086c565b3480156101d657600080fd5b50610170600480360360208110156101ed57600080fd5b5035600160a060020a031661090f565b34801561020957600080fd5b5061017061092a565b34801561021e57600080fd5b5061023c6004803603602081101561023557600080fd5b5035610930565b60408051600160a060020a039092168252519081900360200190f35b34801561026457600080fd5b506101596004803603604081101561027b57600080fd5b81019060208101813564010000000081111561029657600080fd5b8201836020820111156102a857600080fd5b803590602001918460208302840111640100000000831117156102ca57600080fd5b9193909290916020810190356401000000008111156102e857600080fd5b8201836020820111156102fa57600080fd5b8035906020019184602083028401116401000000008311171561031c57600080fd5b50909250905061095c565b34801561033357600080fd5b5061023c610b3b565b34801561034857600080fd5b50610351610b4a565b604080519115158252519081900360200190f35b34801561037157600080fd5b506101706004803603602081101561038857600080fd5b5035600160a060020a0316610b5b565b3480156103a457600080fd5b50610170610b76565b3480156103b957600080fd5b506103c2610b7c565b60408051602080825283518183015283519192839290830191858101910280838360005b838110156103fe5781810151838201526020016103e6565b505050509050019250505060405180910390f35b34801561041e57600080fd5b506101706004803603602081101561043557600080fd5b5035600160a060020a0316610bde565b34801561045157600080fd5b50610170610bf9565b34801561046657600080fd5b506101596004803603602081101561047d57600080fd5b5035600160a060020a0316610bff565b34801561049957600080fd5b50610159600480360360408110156104b057600080fd5b50600160a060020a0381358116916020013516610c57565b600160a060020a03811660009081526002602052604081205411806105035750600160a060020a038116600090815260086020526040812054115b151561057f576040805160e560020a62461bcd02815260206004820152603560248201527f5061796d656e7453706c69747465723a206163636f756e7420686173206e6f2060448201527f7368617265732c20616e64206e6f20657363726f770000000000000000000000606482015290519081900360840190fd5b6007546001546000916105aa9161059e9030319063ffffffff610f8f16565b9063ffffffff610ff516565b600160a060020a0383166000908152600260205260408120549192509081101561066057600160a060020a0383166000908152600960209081526040808320548354600290935292205461061a929161059e9161060e90879063ffffffff61105516565b9063ffffffff6110f116565b600160a060020a038416600090815260096020526040902054909150610646908263ffffffff610f8f16565b600160a060020a0384166000908152600960205260409020555b600160a060020a03831660009081526008602052604081205411156106f557600160a060020a0383166000908152600860205260409020546106a990829063ffffffff610f8f16565b600160a060020a0384166000908152600860205260409020546006549192506106d8919063ffffffff610ff516565b600655600160a060020a0383166000908152600860205260408120555b801515610772576040805160e560020a62461bcd02815260206004820152602b60248201527f5061796d656e7453706c69747465723a206163636f756e74206973206e6f742060448201527f647565207061796d656e74000000000000000000000000000000000000000000606482015290519081900360840190fd5b600160a060020a03831660009081526003602052604090205461079b908263ffffffff610f8f16565b600160a060020a0384166000908152600360205260409020556001546107c7908263ffffffff610f8f16565b600155604051600160a060020a0384169082156108fc029083906000818181858888f19350505050158015610800573d6000803e3d6000fd5b5060408051600160a060020a03851681526020810183905281517fdf20fd1e76bc69d672e4814fafb2c449bba3a5369d8359adf9e05e6fde87b056929181900390910190a1505050565b6000545b90565b600160a060020a031660009081526008602052604090205490565b610874610b4a565b15156108b8576040805160e560020a62461bcd028152602060048201819052602482015260008051602061174c833981519152604482015290519081900360640190fd5b600554604051600091600160a060020a0316907f8be0079c531659141344cd1fd0a4f28419497f9722a3daafe3b4186f6b6457e0908390a36005805473ffffffffffffffffffffffffffffffffffffffff19169055565b600160a060020a031660009081526009602052604090205490565b60075490565b600060048281548110151561094157fe5b600091825260209091200154600160a060020a031692915050565b610964610b4a565b15156109a8576040805160e560020a62461bcd028152602060048201819052602482015260008051602061174c833981519152604482015290519081900360640190fd5b828114610a25576040805160e560020a62461bcd02815260206004820152603260248201527f5061796d656e7453706c69747465723a2070617965657320616e64207368617260448201527f6573206c656e677468206d69736d617463680000000000000000000000000000606482015290519081900360840190fd5b60008311610a7d576040805160e560020a62461bcd02815260206004820152601a60248201527f5061796d656e7453706c69747465723a206e6f20706179656573000000000000604482015290519081900360640190fd5b610a85611160565b60005b83811015610ad157610ac9858583818110610a9f57fe5b90506020020135600160a060020a03168484848181101515610abd57fe5b905060200201356113f0565b600101610a88565b507fc7b028f6b169e74091d3560d01b5a1f9601eeaf83bd43ed36e52437d8e4382b4848460405180806020018281038252848482818152602001925060200280828437600083820152604051601f909101601f19169092018290039550909350505050a150505050565b600554600160a060020a031690565b600554600160a060020a0316331490565b600160a060020a031660009081526003602052604090205490565b60065490565b60606004805480602002602001604051908101604052809291908181526020018280548015610bd457602002820191906000526020600020905b8154600160a060020a03168152600190910190602001808311610bb6575b5050505050905090565b600160a060020a031660009081526002602052604090205490565b60015490565b610c07610b4a565b1515610c4b576040805160e560020a62461bcd028152602060048201819052602482015260008051602061174c833981519152604482015290519081900360640190fd5b610c548161161f565b50565b610c5f610b4a565b1515610ca3576040805160e560020a62461bcd028152602060048201819052602482015260008051602061174c833981519152604482015290519081900360640190fd5b600160a060020a0381161515610d29576040805160e560020a62461bcd02815260206004820152603060248201527f5061796d656e7453706c69747465723a204e6577206163636f756e742069732060448201527f746865207a65726f206164647265737300000000000000000000000000000000606482015290519081900360840190fd5b600160a060020a0382166000908152600260205260408120541180610d645750600160a060020a038216600090815260086020526040812054115b1515610de0576040805160e560020a62461bcd02815260206004820152603560248201527f5061796d656e7453706c69747465723a206163636f756e7420686173206e6f2060448201527f7368617265732c20616e64206e6f20657363726f770000000000000000000000606482015290519081900360840190fd5b600160a060020a038281166000908152600360208181526040808420805460028452828620805460088652848820805460098852868a208054968b9055938a9055908990559188905560048054600181019091557f8a35acfbc15ff81a39ae7d344fd709f28e8600b4aa8c65c6b64bfe7fe36bd19b01805473ffffffffffffffffffffffffffffffffffffffff1916998b16998a1790559787529490935293205490939290610e8f9085610f8f565b600160a060020a038616600090815260036020908152604080832093909355600290522054610ec4908463ffffffff610f8f16565b600160a060020a038616600090815260026020908152604080832093909355600890522054610ef9908363ffffffff610f8f16565b600160a060020a038616600090815260086020908152604080832093909355600990522054610f2e908263ffffffff610f8f16565b600160a060020a03808716600081815260096020908152604091829020949094558051928a1683529282015281517f22eea99e9f771a7aa0fc86b8e63b40072c621b3da7e06116bc73a17a6a9b627f929181900390910190a1505050505050565b600082820183811015610fec576040805160e560020a62461bcd02815260206004820152601b60248201527f536166654d6174683a206164646974696f6e206f766572666c6f770000000000604482015290519081900360640190fd5b90505b92915050565b60008282111561104f576040805160e560020a62461bcd02815260206004820152601e60248201527f536166654d6174683a207375627472616374696f6e206f766572666c6f770000604482015290519081900360640190fd5b50900390565b600082151561106657506000610fef565b82820282848281151561107557fe5b0414610fec576040805160e560020a62461bcd02815260206004820152602160248201527f536166654d6174683a206d756c7469706c69636174696f6e206f766572666c6f60448201527f7700000000000000000000000000000000000000000000000000000000000000606482015290519081900360840190fd5b600080821161114a576040805160e560020a62461bcd02815260206004820152601a60248201527f536166654d6174683a206469766973696f6e206279207a65726f000000000000604482015290519081900360640190fd5b6000828481151561115757fe5b04949350505050565b6007546001546000918291611182919061059e9030319063ffffffff610f8f16565b905060005b60045481101561133a57600061121e600960006004858154811015156111a957fe5b6000918252602080832090910154600160a060020a03168352820192909252604001812054815460048054929361059e9361060e92600292918a9081106111ec57fe5b6000918252602080832090910154600160a060020a03168352820192909252604001902054889063ffffffff61105516565b905060008111156112bc57611271816008600060048681548110151561124057fe5b6000918252602080832090910154600160a060020a031683528201929092526040019020549063ffffffff610f8f16565b6008600060048581548110151561128457fe5b6000918252602080832090910154600160a060020a031683528201929092526040019020556112b9848263ffffffff610f8f16565b93505b6000600260006004858154811015156112d157fe5b6000918252602080832090910154600160a060020a031683528201929092526040018120919091556004805460099183918690811061130c57fe5b6000918252602080832090910154600160a060020a0316835282019290925260400190205550600101611187565b5060068054830190556001546113589030319063ffffffff610f8f16565b6007819055507f84f4dd9c634b94098ae910ceb9d67e720dceff0d9ac480543cd0621beefa70876004604051808060200182810382528381815481526020019150805480156113d057602002820191906000526020600020905b8154600160a060020a031681526001909101906020018083116113b2575b50509250505060405180910390a160006113eb60048261170e565b505050565b600160a060020a0382161515611476576040805160e560020a62461bcd02815260206004820152602c60248201527f5061796d656e7453706c69747465723a206163636f756e74206973207468652060448201527f7a65726f20616464726573730000000000000000000000000000000000000000606482015290519081900360840190fd5b600081116114ce576040805160e560020a62461bcd02815260206004820152601d60248201527f5061796d656e7453706c69747465723a20736861726573206172652030000000604482015290519081900360640190fd5b600160a060020a03821660009081526002602052604090205415611562576040805160e560020a62461bcd02815260206004820152602b60248201527f5061796d656e7453706c69747465723a206163636f756e7420616c726561647960448201527f2068617320736861726573000000000000000000000000000000000000000000606482015290519081900360840190fd5b60048054600181019091557f8a35acfbc15ff81a39ae7d344fd709f28e8600b4aa8c65c6b64bfe7fe36bd19b01805473ffffffffffffffffffffffffffffffffffffffff1916600160a060020a0384169081179091556000908152600260205260408120829055546115d49082610f8f565b60005560408051600160a060020a03841681526020810183905281517f40c340f65e17194d14ddddb073d3c9f888e3cb52b5aae0c6c7706b4fbc905fac929181900390910190a15050565b600160a060020a03811615156116a5576040805160e560020a62461bcd02815260206004820152602660248201527f4f776e61626c653a206e6577206f776e657220697320746865207a65726f206160448201527f6464726573730000000000000000000000000000000000000000000000000000606482015290519081900360840190fd5b600554604051600160a060020a038084169216907f8be0079c531659141344cd1fd0a4f28419497f9722a3daafe3b4186f6b6457e090600090a36005805473ffffffffffffffffffffffffffffffffffffffff1916600160a060020a0392909216919091179055565b8154818355818111156113eb576000838152602090206113eb91810190830161084e91905b808211156117475760008155600101611733565b509056fe4f776e61626c653a2063616c6c6572206973206e6f7420746865206f776e6572a165627a7a7230582067f41ec2e68e07f8e8674fd2ec9fef907ee86b7fc8d265cc75d5afb78c8c9ef90029",
  "source": "pragma solidity ^0.5.0;\r\n\r\n//import \"https://github.com/OpenZeppelin/openzeppelin-solidity/blob/master/contracts/ownership/Ownable.sol\";\r\n//import \"https://github.com/OpenZeppelin/openzeppelin-solidity/blob/master/contracts/payment/PaymentSplitter.sol\";\r\nimport \"./Ownable.sol\";\r\nimport \"./PaymentSplitter.sol\";\r\n\r\ncontract EditablePortfolio is PaymentSplitter, Ownable{\r\n\r\n    //new events not present in 'PaymentSplitter'\r\n    event PayeeMigrated(address from, address to);\r\n    event LogEscrow(address[] payees);\r\n    event LogReconstruction(address[] payees);\r\n\r\n    // new uint\r\n    uint256 private _totalEscrow;\r\n    uint256 private _previousTotalReceived;\r\n\r\n    //new mapping\r\n    mapping(address => uint256) private _escrow;\r\n    mapping(address => uint256) private _withdrawals;\r\n\r\n    constructor (address[] memory payees, uint256[] memory shares)\r\n        PaymentSplitter(payees, shares)\r\n        Ownable()\r\n        public payable {\r\n    }\r\n\r\n    /**\r\n     * @dev Getter for the total Ether held in Escrow.\r\n     */\r\n    function totalEscrow() public view returns (uint256) {\r\n        return _totalEscrow;\r\n    }\r\n\r\n    /**\r\n     * @dev Getter for the total amount of Ether already released.\r\n     */\r\n    function previousTotalReceived() public view returns (uint256) {\r\n        return _previousTotalReceived;\r\n    }\r\n\r\n    /**\r\n     * @dev Getter for the total amount of Ether put in escrow.\r\n     */\r\n    function escrow(address account) public view returns (uint256) {\r\n        return _escrow[account];\r\n    }\r\n\r\n    /**\r\n     * @dev Getter for the total amount of Ether released to payee in most recent share distribution.\r\n     */\r\n    function withdrawals(address account) public view returns (uint256) {\r\n        return _withdrawals[account];\r\n    }\r\n\r\n    /**\r\n     * @dev Getter for the address array payee.\r\n     */\r\n    function payeeArray() public view returns (address[] memory) {\r\n        return _payees;\r\n    }\r\n\r\n    /**\r\n     * @dev Triggers a transfer to `account` of the amount of Ether they are owed, according to their percentage of the\r\n     * total shares, their previous withdrawals and changes to the group resulting in escrow.\r\n     */\r\n\r\n    function release(address payable account) public {\r\n        require(_shares[account] > 0 || _escrow[account] > 0, \"PaymentSplitter: account has no shares, and no escrow\");\r\n\r\n        uint256 totalReceived = address(this).balance.add(_totalReleased).sub(_previousTotalReceived);\r\n        uint256 payment = 0;\r\n        if(_shares[account] > 0){\r\n            payment = totalReceived.mul(_shares[account]).div(_totalShares).sub(_withdrawals[account]);\r\n            _withdrawals[account] = _withdrawals[account].add(payment);\r\n        }\r\n        if(_escrow[account] > 0){\r\n            payment = payment.add(_escrow[account]);\r\n            //_totalEscrow =\r\n            _totalEscrow = _totalEscrow.sub(_escrow[account]);\r\n            _escrow[account] = 0;\r\n        }\r\n        require(payment != 0, \"PaymentSplitter: account is not due payment\");\r\n\r\n        _released[account] = _released[account].add(payment);\r\n        _totalReleased =_totalReleased.add(payment);\r\n        account.transfer(payment);\r\n        emit PaymentReleased(account, payment);\r\n    }\r\n\r\n    /**\r\n     * @dev Triggers a transfer of data from one 'account` to another. This can be used if the account is changing but\r\n     * the reciepient remains the same. It can also be used to quarantine or remove an account.\r\n     */\r\n\r\n    function migratePayee(address account, address newAccount) external onlyOwner{\r\n        require(newAccount != address(0), \"PaymentSplitter: New account is the zero address\");\r\n        require(_shares[account] > 0 || _escrow[account] > 0, \"PaymentSplitter: account has no shares, and no escrow\");\r\n\r\n        uint setReleased = _released[account];\r\n        uint setShares = _shares[account];\r\n        uint setEscrow = _escrow[account];\r\n        uint setWithdrawals = _withdrawals[account];\r\n\r\n        _released[account] = 0;\r\n        _shares[account] = 0;\r\n        _escrow[account] = 0;\r\n        _withdrawals[account] = 0;\r\n        _payees.push(newAccount);\r\n        _released[newAccount] = _released[newAccount].add(setReleased);\r\n        _shares[newAccount] = _shares[newAccount].add(setShares);\r\n        _escrow[newAccount] = _escrow[newAccount].add(setEscrow);\r\n        _withdrawals[newAccount] = _withdrawals[newAccount].add(setWithdrawals);\r\n        emit PayeeMigrated(account, newAccount);\r\n    }\r\n\r\n    /**\r\n     * @dev In order to change share percentage of accounts we must escrow the remaining balance under current scheme\r\n     * and begin a new shares scheme by reconstructing the 'Payment Splitter'.\r\n     */\r\n\r\n    function escrowPayees() private{\r\n        uint256 forEscrow = 0;\r\n        uint256 totalReceived = address(this).balance.add(_totalReleased).sub(_previousTotalReceived);\r\n\r\n        for (uint256 i = 0; i < _payees.length; i++) {\r\n            uint256 payment = totalReceived.mul(_shares[_payees[i]]).div(_totalShares).sub(_withdrawals[_payees[i]]);\r\n            if(payment > 0){\r\n                //_escrow[_payees[i]] =\r\n                _escrow[_payees[i]] = _escrow[_payees[i]].add(payment);\r\n                //forEscrow =\r\n                forEscrow = forEscrow.add(payment);\r\n            }\r\n            _shares[_payees[i]] = 0;\r\n            _withdrawals[_payees[i]] = 0;\r\n        }\r\n\r\n        _totalEscrow += forEscrow;\r\n        _previousTotalReceived = address(this).balance.add(_totalReleased);\r\n        emit LogEscrow(_payees);\r\n        _payees.length = 0;\r\n    }\r\n\r\n    /**\r\n     * @dev This begins a new shares scheme by reconstructing the 'Payment Splitter'.\r\n     * Warning potential for high gas costs -- test the limits\r\n     */\r\n    function reconstructor(address[] calldata payees, uint256[] calldata shares) external onlyOwner {\r\n        require(payees.length == shares.length, \"PaymentSplitter: payees and shares length mismatch\");\r\n        require(payees.length > 0, \"PaymentSplitter: no payees\");\r\n\r\n        escrowPayees();\r\n\r\n        for (uint256 i = 0; i < payees.length; i++) {\r\n            _addPayee(payees[i], shares[i]);\r\n        }\r\n        emit LogReconstruction(payees);\r\n    }\r\n\r\n}",
  "sourcePath": "C:\\Users\\Duncan\\Documents\\Projects\\SuperGood\\contracts\\EditablePortfolio.sol",
  "compiler": {
    "name": "solc",
    "version": "0.5.1+commit.c8a2cb62.Emscripten.clang"
  },
  "schemaVersion": "3.0.11",
  "updatedAt": "2019-07-27T19:14:08.108Z",
  "devdoc": {
    "methods": {
      "escrow(address)": {
        "details": "Getter for the total amount of Ether put in escrow.\r"
      },
      "isOwner()": {
        "details": "Returns true if the caller is the current owner.\r"
      },
      "migratePayee(address,address)": {
        "details": "Triggers a transfer of data from one 'account` to another. This can be used if the account is changing but\r the reciepient remains the same. It can also be used to quarantine or remove an account.\r"
      },
      "owner()": {
        "details": "Returns the address of the current owner.\r"
      },
      "payee(uint256)": {
        "details": "Getter for the address of the payee number `index`.\r"
      },
      "payeeArray()": {
        "details": "Getter for the address array payee.\r"
      },
      "previousTotalReceived()": {
        "details": "Getter for the total amount of Ether already released.\r"
      },
      "reconstructor(address[],uint256[])": {
        "details": "This begins a new shares scheme by reconstructing the 'Payment Splitter'.\r Warning potential for high gas costs -- test the limits\r"
      },
      "release(address)": {
        "details": "Triggers a transfer to `account` of the amount of Ether they are owed, according to their percentage of the\r total shares, their previous withdrawals and changes to the group resulting in escrow.\r"
      },
      "released(address)": {
        "details": "Getter for the amount of Ether already released to a payee.\r"
      },
      "renounceOwnership()": {
        "details": "Leaves the contract without owner. It will not be possible to call\r `onlyOwner` functions anymore. Can only be called by the current owner.\r      * > Note: Renouncing ownership will leave the contract without an owner,\r thereby removing any functionality that is only available to the owner.\r"
      },
      "shares(address)": {
        "details": "Getter for the amount of shares held by an account.\r"
      },
      "totalEscrow()": {
        "details": "Getter for the total Ether held in Escrow.\r"
      },
      "totalReleased()": {
        "details": "Getter for the total amount of Ether already released.\r"
      },
      "totalShares()": {
        "details": "Getter for the total shares held by payees.\r"
      },
      "transferOwnership(address)": {
        "details": "Transfers ownership of the contract to a new account (`newOwner`).\r Can only be called by the current owner.\r"
      },
      "withdrawals(address)": {
        "details": "Getter for the total amount of Ether released to payee in most recent share distribution.\r"
      }
    }
  },
  "userdoc": {
    "methods": {}
  }
}