{
  "contractName": "EditablePaymentSplitter",
  "abi": [
    {
      "constant": true,
      "inputs": [],
      "name": "totalShares",
      "outputs": [
        {
          "name": "",
          "type": "uint256"
        }
      ],
      "payable": false,
      "stateMutability": "view",
      "type": "function"
    },
    {
      "constant": false,
      "inputs": [],
      "name": "unpause",
      "outputs": [],
      "payable": false,
      "stateMutability": "nonpayable",
      "type": "function"
    },
    {
      "constant": true,
      "inputs": [],
      "name": "paused",
      "outputs": [
        {
          "name": "",
          "type": "bool"
        }
      ],
      "payable": false,
      "stateMutability": "view",
      "type": "function"
    },
    {
      "constant": false,
      "inputs": [],
      "name": "renounceOwnership",
      "outputs": [],
      "payable": false,
      "stateMutability": "nonpayable",
      "type": "function"
    },
    {
      "constant": false,
      "inputs": [],
      "name": "pause",
      "outputs": [],
      "payable": false,
      "stateMutability": "nonpayable",
      "type": "function"
    },
    {
      "constant": true,
      "inputs": [
        {
          "name": "index",
          "type": "uint256"
        }
      ],
      "name": "payee",
      "outputs": [
        {
          "name": "",
          "type": "address"
        }
      ],
      "payable": false,
      "stateMutability": "view",
      "type": "function"
    },
    {
      "constant": true,
      "inputs": [],
      "name": "owner",
      "outputs": [
        {
          "name": "",
          "type": "address"
        }
      ],
      "payable": false,
      "stateMutability": "view",
      "type": "function"
    },
    {
      "constant": true,
      "inputs": [],
      "name": "isOwner",
      "outputs": [
        {
          "name": "",
          "type": "bool"
        }
      ],
      "payable": false,
      "stateMutability": "view",
      "type": "function"
    },
    {
      "constant": true,
      "inputs": [
        {
          "name": "account",
          "type": "address"
        }
      ],
      "name": "released",
      "outputs": [
        {
          "name": "",
          "type": "uint256"
        }
      ],
      "payable": false,
      "stateMutability": "view",
      "type": "function"
    },
    {
      "constant": true,
      "inputs": [
        {
          "name": "account",
          "type": "address"
        }
      ],
      "name": "shares",
      "outputs": [
        {
          "name": "",
          "type": "uint256"
        }
      ],
      "payable": false,
      "stateMutability": "view",
      "type": "function"
    },
    {
      "constant": true,
      "inputs": [],
      "name": "totalReleased",
      "outputs": [
        {
          "name": "",
          "type": "uint256"
        }
      ],
      "payable": false,
      "stateMutability": "view",
      "type": "function"
    },
    {
      "constant": false,
      "inputs": [
        {
          "name": "newOwner",
          "type": "address"
        }
      ],
      "name": "transferOwnership",
      "outputs": [],
      "payable": false,
      "stateMutability": "nonpayable",
      "type": "function"
    },
    {
      "inputs": [
        {
          "name": "payees",
          "type": "address[]"
        },
        {
          "name": "shares",
          "type": "uint256[]"
        }
      ],
      "payable": true,
      "stateMutability": "payable",
      "type": "constructor"
    },
    {
      "payable": true,
      "stateMutability": "payable",
      "type": "fallback"
    },
    {
      "anonymous": false,
      "inputs": [
        {
          "indexed": false,
          "name": "from",
          "type": "address"
        },
        {
          "indexed": false,
          "name": "to",
          "type": "address"
        }
      ],
      "name": "PayeeMigrated",
      "type": "event"
    },
    {
      "anonymous": false,
      "inputs": [
        {
          "indexed": false,
          "name": "payees",
          "type": "address[]"
        }
      ],
      "name": "LogEscrow",
      "type": "event"
    },
    {
      "anonymous": false,
      "inputs": [
        {
          "indexed": false,
          "name": "payees",
          "type": "address[]"
        }
      ],
      "name": "LogReconstruction",
      "type": "event"
    },
    {
      "anonymous": false,
      "inputs": [
        {
          "indexed": false,
          "name": "account",
          "type": "address"
        }
      ],
      "name": "Paused",
      "type": "event"
    },
    {
      "anonymous": false,
      "inputs": [
        {
          "indexed": false,
          "name": "account",
          "type": "address"
        }
      ],
      "name": "Unpaused",
      "type": "event"
    },
    {
      "anonymous": false,
      "inputs": [
        {
          "indexed": true,
          "name": "previousOwner",
          "type": "address"
        },
        {
          "indexed": true,
          "name": "newOwner",
          "type": "address"
        }
      ],
      "name": "OwnershipTransferred",
      "type": "event"
    },
    {
      "anonymous": false,
      "inputs": [
        {
          "indexed": false,
          "name": "account",
          "type": "address"
        },
        {
          "indexed": false,
          "name": "shares",
          "type": "uint256"
        }
      ],
      "name": "PayeeAdded",
      "type": "event"
    },
    {
      "anonymous": false,
      "inputs": [
        {
          "indexed": false,
          "name": "to",
          "type": "address"
        },
        {
          "indexed": false,
          "name": "amount",
          "type": "uint256"
        }
      ],
      "name": "PaymentReleased",
      "type": "event"
    },
    {
      "anonymous": false,
      "inputs": [
        {
          "indexed": false,
          "name": "from",
          "type": "address"
        },
        {
          "indexed": false,
          "name": "amount",
          "type": "uint256"
        }
      ],
      "name": "PaymentReceived",
      "type": "event"
    },
    {
      "constant": false,
      "inputs": [
        {
          "name": "account",
          "type": "address"
        }
      ],
      "name": "release",
      "outputs": [],
      "payable": false,
      "stateMutability": "nonpayable",
      "type": "function"
    },
    {
      "constant": false,
      "inputs": [
        {
          "name": "account",
          "type": "address"
        },
        {
          "name": "newAccount",
          "type": "address"
        }
      ],
      "name": "migratePayee",
      "outputs": [],
      "payable": false,
      "stateMutability": "nonpayable",
      "type": "function"
    },
    {
      "constant": false,
      "inputs": [
        {
          "name": "payees",
          "type": "address[]"
        },
        {
          "name": "shares",
          "type": "uint256[]"
        }
      ],
      "name": "reconstructor",
      "outputs": [],
      "payable": false,
      "stateMutability": "nonpayable",
      "type": "function"
    },
    {
      "constant": true,
      "inputs": [],
      "name": "totalEscrow",
      "outputs": [
        {
          "name": "",
          "type": "uint256"
        }
      ],
      "payable": false,
      "stateMutability": "view",
      "type": "function"
    },
    {
      "constant": true,
      "inputs": [],
      "name": "previousTotalReceived",
      "outputs": [
        {
          "name": "",
          "type": "uint256"
        }
      ],
      "payable": false,
      "stateMutability": "view",
      "type": "function"
    },
    {
      "constant": true,
      "inputs": [
        {
          "name": "account",
          "type": "address"
        }
      ],
      "name": "escrow",
      "outputs": [
        {
          "name": "",
          "type": "uint256"
        }
      ],
      "payable": false,
      "stateMutability": "view",
      "type": "function"
    },
    {
      "constant": true,
      "inputs": [
        {
          "name": "account",
          "type": "address"
        }
      ],
      "name": "withdrawals",
      "outputs": [
        {
          "name": "",
          "type": "uint256"
        }
      ],
      "payable": false,
      "stateMutability": "view",
      "type": "function"
    },
    {
      "constant": true,
      "inputs": [],
      "name": "payeesLength",
      "outputs": [
        {
          "name": "",
          "type": "uint256"
        }
      ],
      "payable": false,
      "stateMutability": "view",
      "type": "function"
    }
  ],
  "bytecode": "0x608060405260405162001e9638038062001e96833981018060405260408110156200002957600080fd5b8101908080516401000000008111156200004257600080fd5b820160208101848111156200005657600080fd5b81518560208202830111640100000000821117156200007457600080fd5b505092919060200180516401000000008111156200009157600080fd5b82016020810184811115620000a557600080fd5b8151856020820283011164010000000082111715620000c357600080fd5b505080518551919450859350849250146200016557604080517f08c379a000000000000000000000000000000000000000000000000000000000815260206004820152603260248201527f5061796d656e7453706c69747465723a2070617965657320616e64207368617260448201527f6573206c656e677468206d69736d617463680000000000000000000000000000606482015290519081900360840190fd5b8151600010620001d657604080517f08c379a000000000000000000000000000000000000000000000000000000000815260206004820152601a60248201527f5061796d656e7453706c69747465723a206e6f20706179656573000000000000604482015290519081900360640190fd5b60005b825181101562000237576200022e8382815181101515620001f657fe5b9060200190602002015183838151811015156200020f57fe5b906020019060200201516200029e640100000000026401000000009004565b600101620001d9565b505060058054600160a060020a031916331790819055604051600160a060020a039190911691506000907f8be0079c531659141344cd1fd0a4f28419497f9722a3daafe3b4186f6b6457e0908290a350506005805460a060020a60ff021916905562000594565b600160a060020a03821615156200033c57604080517f08c379a000000000000000000000000000000000000000000000000000000000815260206004820152602c60248201527f5061796d656e7453706c69747465723a206163636f756e74206973207468652060448201527f7a65726f20616464726573730000000000000000000000000000000000000000606482015290519081900360840190fd5b60008111620003ac57604080517f08c379a000000000000000000000000000000000000000000000000000000000815260206004820152601d60248201527f5061796d656e7453706c69747465723a20736861726573206172652030000000604482015290519081900360640190fd5b600160a060020a038216600090815260026020526040902054156200045857604080517f08c379a000000000000000000000000000000000000000000000000000000000815260206004820152602b60248201527f5061796d656e7453706c69747465723a206163636f756e7420616c726561647960448201527f2068617320736861726573000000000000000000000000000000000000000000606482015290519081900360840190fd5b60048054600181019091557f8a35acfbc15ff81a39ae7d344fd709f28e8600b4aa8c65c6b64bfe7fe36bd19b018054600160a060020a031916600160a060020a038416908117909155600090815260026020526040812082905554620004cd9082640100000000620005188102620010ea1704565b60005560408051600160a060020a03841681526020810183905281517f40c340f65e17194d14ddddb073d3c9f888e3cb52b5aae0c6c7706b4fbc905fac929181900390910190a15050565b6000828201838110156200058d57604080517f08c379a000000000000000000000000000000000000000000000000000000000815260206004820152601b60248201527f536166654d6174683a206164646974696f6e206f766572666c6f770000000000604482015290519081900360640190fd5b9392505050565b6118f280620005a46000396000f3fe60806040526004361061010b577c0100000000000000000000000000000000000000000000000000000000600035046319165587811461016f5780633a98ef39146101a25780633f4ba83a146101c957806357d3c7c3146101de5780635c975abb14610211578063715018a61461023a5780637a9262a21461024f5780638456cb59146102825780638771eb35146102975780638b83209b146102ac5780638ccc7d01146102f25780638da5cb5b146103c15780638f32d59b146103d65780639852595c146103eb578063a3d898441461041e578063ce7c2ac214610433578063e33b7de314610466578063e919ecad1461047b578063f2fde38b14610490578063f8c2df0d146104c3575b60055460a060020a900460ff161561016d576040805160e560020a62461bcd02815260206004820152601060248201527f5061757361626c653a2070617573656400000000000000000000000000000000604482015290519081900360640190fd5b005b34801561017b57600080fd5b5061016d6004803603602081101561019257600080fd5b5035600160a060020a03166104fe565b3480156101ae57600080fd5b506101b7610834565b60408051918252519081900360200190f35b3480156101d557600080fd5b5061016d61083b565b3480156101ea57600080fd5b506101b76004803603602081101561020157600080fd5b5035600160a060020a031661093d565b34801561021d57600080fd5b50610226610958565b604080519115158252519081900360200190f35b34801561024657600080fd5b5061016d610968565b34801561025b57600080fd5b506101b76004803603602081101561027257600080fd5b5035600160a060020a0316610a0b565b34801561028e57600080fd5b5061016d610a26565b3480156102a357600080fd5b506101b7610b2d565b3480156102b857600080fd5b506102d6600480360360208110156102cf57600080fd5b5035610b33565b60408051600160a060020a039092168252519081900360200190f35b3480156102fe57600080fd5b5061016d6004803603604081101561031557600080fd5b81019060208101813564010000000081111561033057600080fd5b82018360208201111561034257600080fd5b8035906020019184602083028401116401000000008311171561036457600080fd5b91939092909160208101903564010000000081111561038257600080fd5b82018360208201111561039457600080fd5b803590602001918460208302840111640100000000831117156103b657600080fd5b509092509050610b5f565b3480156103cd57600080fd5b506102d6610d3e565b3480156103e257600080fd5b50610226610d4d565b3480156103f757600080fd5b506101b76004803603602081101561040e57600080fd5b5035600160a060020a0316610d5e565b34801561042a57600080fd5b506101b7610d79565b34801561043f57600080fd5b506101b76004803603602081101561045657600080fd5b5035600160a060020a0316610d7f565b34801561047257600080fd5b506101b7610d9a565b34801561048757600080fd5b506101b7610da0565b34801561049c57600080fd5b5061016d600480360360208110156104b357600080fd5b5035600160a060020a0316610da6565b3480156104cf57600080fd5b5061016d600480360360408110156104e657600080fd5b50600160a060020a0381358116916020013516610dfe565b600160a060020a03811660009081526002602052604081205411806105395750600160a060020a038116600090815260086020526040812054115b151561058f576040805160e560020a62461bcd02815260206004820152601860248201527f4e6f207368617265732c20616e64206e6f20657363726f770000000000000000604482015290519081900360640190fd5b6007546001546000916105ba916105ae9030319063ffffffff6110ea16565b9063ffffffff61115016565b600160a060020a0383166000908152600260205260408120549192509081101561067057600160a060020a0383166000908152600960209081526040808320548354600290935292205461062a92916105ae9161061e90879063ffffffff6111b016565b9063ffffffff61124c16565b600160a060020a038416600090815260096020526040902054909150610656908263ffffffff6110ea16565b600160a060020a0384166000908152600960205260409020555b600160a060020a038316600090815260086020526040812054111561070557600160a060020a0383166000908152600860205260409020546106b990829063ffffffff6110ea16565b600160a060020a0384166000908152600860205260409020546006549192506106e8919063ffffffff61115016565b600655600160a060020a0383166000908152600860205260408120555b80151561075c576040805160e560020a62461bcd02815260206004820152601a60248201527f4163636f756e74206973206e6f7420647565207061796d656e74000000000000604482015290519081900360640190fd5b600160a060020a038316600090815260036020526040902054610785908263ffffffff6110ea16565b600160a060020a0384166000908152600360205260409020556001546107b1908263ffffffff6110ea16565b600155604051600160a060020a0384169082156108fc029083906000818181858888f193505050501580156107ea573d6000803e3d6000fd5b5060408051600160a060020a03851681526020810183905281517fdf20fd1e76bc69d672e4814fafb2c449bba3a5369d8359adf9e05e6fde87b056929181900390910190a1505050565b6000545b90565b610843610d4d565b1515610887576040805160e560020a62461bcd02815260206004820181905260248201526000805160206118a7833981519152604482015290519081900360640190fd5b60055460a060020a900460ff1615156108ea576040805160e560020a62461bcd02815260206004820152601460248201527f5061757361626c653a206e6f7420706175736564000000000000000000000000604482015290519081900360640190fd5b6005805474ff0000000000000000000000000000000000000000191690556040805133815290517f5db9ee0a495bf2e6ff9c91a7834c1ba4fdd244a5e8aa4e537bd38aeae4b073aa9181900360200190a1565b600160a060020a031660009081526008602052604090205490565b60055460a060020a900460ff1690565b610970610d4d565b15156109b4576040805160e560020a62461bcd02815260206004820181905260248201526000805160206118a7833981519152604482015290519081900360640190fd5b600554604051600091600160a060020a0316907f8be0079c531659141344cd1fd0a4f28419497f9722a3daafe3b4186f6b6457e0908390a36005805473ffffffffffffffffffffffffffffffffffffffff19169055565b600160a060020a031660009081526009602052604090205490565b610a2e610d4d565b1515610a72576040805160e560020a62461bcd02815260206004820181905260248201526000805160206118a7833981519152604482015290519081900360640190fd5b60055460a060020a900460ff1615610ad4576040805160e560020a62461bcd02815260206004820152601060248201527f5061757361626c653a2070617573656400000000000000000000000000000000604482015290519081900360640190fd5b6005805474ff0000000000000000000000000000000000000000191660a060020a1790556040805133815290517f62e78cea01bee320cd4e420270b5ea74000d11b0c9f74754ebdbfc544b05a2589181900360200190a1565b60075490565b6000600482815481101515610b4457fe5b600091825260209091200154600160a060020a031692915050565b610b67610d4d565b1515610bab576040805160e560020a62461bcd02815260206004820181905260248201526000805160206118a7833981519152604482015290519081900360640190fd5b828114610c28576040805160e560020a62461bcd02815260206004820152602160248201527f50617965657320616e6420736861726573206c656e677468206d69736d61746360448201527f6800000000000000000000000000000000000000000000000000000000000000606482015290519081900360840190fd5b60008311610c80576040805160e560020a62461bcd02815260206004820152600960248201527f4e6f207061796565730000000000000000000000000000000000000000000000604482015290519081900360640190fd5b610c886112bb565b60005b83811015610cd457610ccc858583818110610ca257fe5b90506020020135600160a060020a03168484848181101515610cc057fe5b9050602002013561154b565b600101610c8b565b507fc7b028f6b169e74091d3560d01b5a1f9601eeaf83bd43ed36e52437d8e4382b4848460405180806020018281038252848482818152602001925060200280828437600083820152604051601f909101601f19169092018290039550909350505050a150505050565b600554600160a060020a031690565b600554600160a060020a0316331490565b600160a060020a031660009081526003602052604090205490565b60065490565b600160a060020a031660009081526002602052604090205490565b60015490565b60045490565b610dae610d4d565b1515610df2576040805160e560020a62461bcd02815260206004820181905260248201526000805160206118a7833981519152604482015290519081900360640190fd5b610dfb8161177a565b50565b610e06610d4d565b1515610e4a576040805160e560020a62461bcd02815260206004820181905260248201526000805160206118a7833981519152604482015290519081900360640190fd5b600160a060020a0381161515610eaa576040805160e560020a62461bcd02815260206004820152601a60248201527f4e6577206163636f756e742063616e6e6f74206265207a65726f000000000000604482015290519081900360640190fd5b600160a060020a0382166000908152600260205260408120541180610ee55750600160a060020a038216600090815260086020526040812054115b1515610f3b576040805160e560020a62461bcd02815260206004820152601860248201527f4e6f207368617265732c20616e64206e6f20657363726f770000000000000000604482015290519081900360640190fd5b600160a060020a038281166000908152600360208181526040808420805460028452828620805460088652848820805460098852868a208054968b9055938a9055908990559188905560048054600181019091557f8a35acfbc15ff81a39ae7d344fd709f28e8600b4aa8c65c6b64bfe7fe36bd19b01805473ffffffffffffffffffffffffffffffffffffffff1916998b16998a1790559787529490935293205490939290610fea90856110ea565b600160a060020a03861660009081526003602090815260408083209390935560029052205461101f908463ffffffff6110ea16565b600160a060020a038616600090815260026020908152604080832093909355600890522054611054908363ffffffff6110ea16565b600160a060020a038616600090815260086020908152604080832093909355600990522054611089908263ffffffff6110ea16565b600160a060020a03808716600081815260096020908152604091829020949094558051928a1683529282015281517f22eea99e9f771a7aa0fc86b8e63b40072c621b3da7e06116bc73a17a6a9b627f929181900390910190a1505050505050565b600082820183811015611147576040805160e560020a62461bcd02815260206004820152601b60248201527f536166654d6174683a206164646974696f6e206f766572666c6f770000000000604482015290519081900360640190fd5b90505b92915050565b6000828211156111aa576040805160e560020a62461bcd02815260206004820152601e60248201527f536166654d6174683a207375627472616374696f6e206f766572666c6f770000604482015290519081900360640190fd5b50900390565b60008215156111c15750600061114a565b8282028284828115156111d057fe5b0414611147576040805160e560020a62461bcd02815260206004820152602160248201527f536166654d6174683a206d756c7469706c69636174696f6e206f766572666c6f60448201527f7700000000000000000000000000000000000000000000000000000000000000606482015290519081900360840190fd5b60008082116112a5576040805160e560020a62461bcd02815260206004820152601a60248201527f536166654d6174683a206469766973696f6e206279207a65726f000000000000604482015290519081900360640190fd5b600082848115156112b257fe5b04949350505050565b60075460015460009182916112dd91906105ae9030319063ffffffff6110ea16565b905060005b6004548110156114955760006113796009600060048581548110151561130457fe5b6000918252602080832090910154600160a060020a0316835282019290925260400181205481546004805492936105ae9361061e92600292918a90811061134757fe5b6000918252602080832090910154600160a060020a03168352820192909252604001902054889063ffffffff6111b016565b90506000811115611417576113cc816008600060048681548110151561139b57fe5b6000918252602080832090910154600160a060020a031683528201929092526040019020549063ffffffff6110ea16565b600860006004858154811015156113df57fe5b6000918252602080832090910154600160a060020a03168352820192909252604001902055611414848263ffffffff6110ea16565b93505b60006002600060048581548110151561142c57fe5b6000918252602080832090910154600160a060020a031683528201929092526040018120919091556004805460099183918690811061146757fe5b6000918252602080832090910154600160a060020a03168352820192909252604001902055506001016112e2565b5060068054830190556001546114b39030319063ffffffff6110ea16565b6007819055507f84f4dd9c634b94098ae910ceb9d67e720dceff0d9ac480543cd0621beefa708760046040518080602001828103825283818154815260200191508054801561152b57602002820191906000526020600020905b8154600160a060020a0316815260019091019060200180831161150d575b50509250505060405180910390a16000611546600482611869565b505050565b600160a060020a03821615156115d1576040805160e560020a62461bcd02815260206004820152602c60248201527f5061796d656e7453706c69747465723a206163636f756e74206973207468652060448201527f7a65726f20616464726573730000000000000000000000000000000000000000606482015290519081900360840190fd5b60008111611629576040805160e560020a62461bcd02815260206004820152601d60248201527f5061796d656e7453706c69747465723a20736861726573206172652030000000604482015290519081900360640190fd5b600160a060020a038216600090815260026020526040902054156116bd576040805160e560020a62461bcd02815260206004820152602b60248201527f5061796d656e7453706c69747465723a206163636f756e7420616c726561647960448201527f2068617320736861726573000000000000000000000000000000000000000000606482015290519081900360840190fd5b60048054600181019091557f8a35acfbc15ff81a39ae7d344fd709f28e8600b4aa8c65c6b64bfe7fe36bd19b01805473ffffffffffffffffffffffffffffffffffffffff1916600160a060020a03841690811790915560009081526002602052604081208290555461172f90826110ea565b60005560408051600160a060020a03841681526020810183905281517f40c340f65e17194d14ddddb073d3c9f888e3cb52b5aae0c6c7706b4fbc905fac929181900390910190a15050565b600160a060020a0381161515611800576040805160e560020a62461bcd02815260206004820152602660248201527f4f776e61626c653a206e6577206f776e657220697320746865207a65726f206160448201527f6464726573730000000000000000000000000000000000000000000000000000606482015290519081900360840190fd5b600554604051600160a060020a038084169216907f8be0079c531659141344cd1fd0a4f28419497f9722a3daafe3b4186f6b6457e090600090a36005805473ffffffffffffffffffffffffffffffffffffffff1916600160a060020a0392909216919091179055565b8154818355818111156115465760008381526020902061154691810190830161083891905b808211156118a2576000815560010161188e565b509056fe4f776e61626c653a2063616c6c6572206973206e6f7420746865206f776e6572a165627a7a72305820464bd9170651d4f2be78ffdae9666c50b0682ada29fc68c4072325d21fd22f390029",
  "source": "/**\r\n *@title EditablePaymentSplitter.\r\n *@author Duncan Brain <duncan@brainenterprise.ca>\r\n *@version 0.5\r\n *@notice This is an adaption OpenZeppelin's Payment Splitter to allow re-construction of the portfolio, and migration\r\n *of one address to another. The Owners have a lot of control here. Bait and switch could happen.\r\n */\r\n\r\npragma solidity ^0.5.0;\r\n\r\nimport \"./Ownable.sol\";\r\nimport \"./PaymentSplitter.sol\";\r\nimport \"./Pausable.sol\";\r\n\r\ncontract EditablePaymentSplitter is PaymentSplitter, Ownable, Pausable{\r\n\r\n    /**\r\n     *  Storage\r\n     */\r\n    uint256 private _totalEscrow;\r\n    uint256 private _previousTotalReceived;\r\n    mapping(address => uint256) private _escrow;\r\n    mapping(address => uint256) private _withdrawals;\r\n\r\n    /**\r\n     *  Events\r\n     */\r\n    event PayeeMigrated(address from, address to);\r\n    event LogEscrow(address[] payees);\r\n    event LogReconstruction(address[] payees);\r\n\r\n    /*\r\n     *  Fallback Function\r\n     */\r\n     ///@dev Overrides fallback function to omit event emission, Metamask automatically sets a gas this change\r\n    ///encourages direct sending\r\n    function () external payable whenNotPaused{}\r\n\r\n    /**\r\n     *  Public Functions\r\n     */\r\n    constructor (address[] memory payees, uint256[] memory shares)\r\n        PaymentSplitter(payees, shares)\r\n        Ownable()\r\n        public\r\n        payable\r\n    {}\r\n\r\n    ///@dev Triggers a transfer to `account` of the amount of Ether that account is owed, according to the percentage\r\n    ///of the total shares, their previous withdrawals and changes to the group resulting in escrow.\r\n    ///@param account is the address of a payee\r\n    function release(address payable account) external {\r\n        require(_shares[account] > 0 || _escrow[account] > 0, \"No shares, and no escrow\");\r\n\r\n        uint256 totalReceived = address(this).balance.add(_totalReleased).sub(_previousTotalReceived);\r\n        uint256 payment = 0;\r\n\r\n        if(_shares[account] > 0){\r\n            payment = totalReceived.mul(_shares[account]).div(_totalShares).sub(_withdrawals[account]);\r\n            _withdrawals[account] = _withdrawals[account].add(payment);\r\n        }\r\n\r\n        if(_escrow[account] > 0){\r\n            payment = payment.add(_escrow[account]);\r\n            _totalEscrow = _totalEscrow.sub(_escrow[account]);\r\n            _escrow[account] = 0;\r\n        }\r\n\r\n        require(payment != 0, \"Account is not due payment\");\r\n        _released[account] = _released[account].add(payment);\r\n        _totalReleased =_totalReleased.add(payment);\r\n        account.transfer(payment);\r\n        emit PaymentReleased(account, payment);\r\n    }\r\n\r\n    /**\r\n     *  External Functions\r\n     */\r\n    ///@dev Transfers data from one payee to another. Used if payee account changes or payee quarantine.\r\n    ///@param account is the address of a payee\r\n    ///@param newAccount is the address the funds available will be migrated to\r\n    function migratePayee(address account, address newAccount) external onlyOwner{\r\n        require(newAccount != address(0), \"New account cannot be zero\");\r\n        require(_shares[account] > 0 || _escrow[account] > 0, \"No shares, and no escrow\");\r\n\r\n        uint setReleased = _released[account];\r\n        uint setShares = _shares[account];\r\n        uint setEscrow = _escrow[account];\r\n        uint setWithdrawals = _withdrawals[account];\r\n\r\n        _released[account] = 0;\r\n        _shares[account] = 0;\r\n        _escrow[account] = 0;\r\n        _withdrawals[account] = 0;\r\n        _payees.push(newAccount);\r\n        _released[newAccount] = _released[newAccount].add(setReleased);\r\n        _shares[newAccount] = _shares[newAccount].add(setShares);\r\n        _escrow[newAccount] = _escrow[newAccount].add(setEscrow);\r\n        _withdrawals[newAccount] = _withdrawals[newAccount].add(setWithdrawals);\r\n        emit PayeeMigrated(account, newAccount);\r\n    }\r\n\r\n    ///@dev This begins a new shares scheme by reconstructing the 'Payment Splitter'.\r\n    ///WARNING: potential for high gas costs -- test the limits.\r\n    ///@param payees is the new array of payees\r\n    ///@param shares is the new shares scheme for payees\r\n    function reconstructor(address[] calldata payees, uint256[] calldata shares) external onlyOwner {\r\n        require(payees.length == shares.length, \"Payees and shares length mismatch\");\r\n        require(payees.length > 0, \"No payees\");\r\n\r\n        escrowPayees();\r\n\r\n        for (uint256 i = 0; i < payees.length; i++) {\r\n            _addPayee(payees[i], shares[i]);\r\n        }\r\n\r\n        emit LogReconstruction(payees);\r\n    }\r\n\r\n    /**\r\n     *  Internal Functions\r\n     */\r\n     ///@dev In order to change share percentage of accounts we must escrow the remaining balance under current scheme\r\n     ///and begin a new shares scheme by reconstructing the 'Payment Splitter'.\r\n    function escrowPayees() internal{\r\n        uint256 forEscrow = 0;\r\n        uint256 totalReceived = address(this).balance.add(_totalReleased).sub(_previousTotalReceived);\r\n\r\n        for (uint256 i = 0; i < _payees.length; i++) {\r\n            uint256 payment = totalReceived.mul(_shares[_payees[i]]).div(_totalShares).sub(_withdrawals[_payees[i]]);\r\n            if(payment > 0){\r\n                _escrow[_payees[i]] = _escrow[_payees[i]].add(payment);\r\n                forEscrow = forEscrow.add(payment);\r\n            }\r\n            _shares[_payees[i]] = 0;\r\n            _withdrawals[_payees[i]] = 0;\r\n        }\r\n\r\n        _totalEscrow += forEscrow;\r\n        _previousTotalReceived = address(this).balance.add(_totalReleased);\r\n        emit LogEscrow(_payees);\r\n        _payees.length = 0;\r\n    }\r\n\r\n    /*\r\n     * Getter functions\r\n     */\r\n    ///@dev Getter for the total Ether held in Escrow.\r\n    ///@return Returns the total amount not yet released from previous distribution schemes.\r\n    function totalEscrow() public view returns (uint256) {\r\n        return _totalEscrow;\r\n    }\r\n\r\n    ///@dev Getter for the total amount of Ether already released.\r\n    ///@return Returns the total amount of Ether received under the previous distribution schemes.\r\n    function previousTotalReceived() public view returns (uint256) {\r\n        return _previousTotalReceived;\r\n    }\r\n\r\n    ///@dev Getter for the total amount of Ether put in escrow for a payee.\r\n    ///@param account is the address of a payee\r\n    ///@return Returns the total amount remaining in escrow for a specific payee.\r\n    function escrow(address account) public view returns (uint256) {\r\n        return _escrow[account];\r\n    }\r\n\r\n    ///@dev Getter for the total amount of Ether released to payee in most recent share distribution.\r\n    ///@param account is the address of a payee\r\n    ///@return Returns the total number of Ether withdrawn under current share distribution.\r\n    function withdrawals(address account) public view returns (uint256) {\r\n        return _withdrawals[account];\r\n    }\r\n\r\n    ///@dev Getter for the address array payee length.\r\n    ///@return Returns an length of array of payees.\r\n    function payeesLength() public view returns (uint) {\r\n        return _payees.length;\r\n    }\r\n}",
  "sourcePath": "C:\\Users\\Duncan\\Documents\\Projects\\SuperGood\\contracts\\EditablePaymentSplitter.sol",
  "compiler": {
    "name": "solc",
    "version": "0.5.1+commit.c8a2cb62.Emscripten.clang"
  },
  "schemaVersion": "3.0.11",
  "updatedAt": "2019-08-01T08:38:51.884Z",
  "devdoc": {
    "methods": {
      "escrow(address)": {
        "return": "Returns the total amount remaining in escrow for a specific payee."
      },
      "isOwner()": {
        "return": "Returns true if the caller is the current owner."
      },
      "migratePayee(address,address)": {
        "params": {
          "newAccount": "is the address the funds available will be migrated to"
        }
      },
      "owner()": {
        "return": "Returns the address of the current owner."
      },
      "pause()": {
        "details": "Called by a pauser to pause, triggers stopped state.\r"
      },
      "paused()": {
        "details": "Returns true if the contract is paused, and false otherwise.\r"
      },
      "payee(uint256)": {
        "return": "Returns the address from an index in the payee array."
      },
      "payeesLength()": {
        "return": "Returns an length of array of payees."
      },
      "previousTotalReceived()": {
        "return": "Returns the total amount of Ether received under the previous distribution schemes."
      },
      "reconstructor(address[],uint256[])": {
        "params": {
          "shares": "is the new shares scheme for payees"
        }
      },
      "release(address)": {
        "params": {
          "account": "is the address of a payee"
        }
      },
      "released(address)": {
        "return": "Returns the total amount of Ether that has been released to a payee."
      },
      "shares(address)": {
        "return": "Returns the total number of shares the payee has."
      },
      "totalEscrow()": {
        "return": "Returns the total amount not yet released from previous distribution schemes."
      },
      "totalReleased()": {
        "return": "Returns the total amount of Ether that has been released."
      },
      "totalShares()": {
        "return": "Returns the total number of shares."
      },
      "transferOwnership(address)": {
        "details": "Transfers ownership of the contract to a new account (`newOwner`). Can only be called by the current owner."
      },
      "unpause()": {
        "details": "Called by a pauser to unpause, returns to normal state.\r"
      },
      "withdrawals(address)": {
        "return": "Returns the total number of Ether withdrawn under current share distribution."
      }
    }
  },
  "userdoc": {
    "methods": {
      "constructor": "Public Functions\r",
      "renounceOwnership()": {
        "notice": "thereby removing any functionality that is only available to the owner."
      }
    }
  }
}