{
  "contractName": "Factory",
  "abi": [
    {
      "constant": true,
      "inputs": [
        {
          "name": "",
          "type": "address"
        }
      ],
      "name": "isInstantiation",
      "outputs": [
        {
          "name": "",
          "type": "bool"
        }
      ],
      "payable": false,
      "stateMutability": "view",
      "type": "function"
    },
    {
      "constant": true,
      "inputs": [
        {
          "name": "",
          "type": "address"
        },
        {
          "name": "",
          "type": "uint256"
        }
      ],
      "name": "instantiations",
      "outputs": [
        {
          "name": "",
          "type": "address"
        }
      ],
      "payable": false,
      "stateMutability": "view",
      "type": "function"
    },
    {
      "anonymous": false,
      "inputs": [
        {
          "indexed": false,
          "name": "sender",
          "type": "address"
        },
        {
          "indexed": false,
          "name": "instantiation",
          "type": "address"
        }
      ],
      "name": "ContractInstantiation",
      "type": "event"
    },
    {
      "constant": true,
      "inputs": [
        {
          "name": "creator",
          "type": "address"
        }
      ],
      "name": "getInstantiationCount",
      "outputs": [
        {
          "name": "",
          "type": "uint256"
        }
      ],
      "payable": false,
      "stateMutability": "view",
      "type": "function"
    }
  ],
  "bytecode": "0x608060405234801561001057600080fd5b50610217806100206000396000f3fe608060405260043610610050577c010000000000000000000000000000000000000000000000000000000060003504632f4f3316811461005557806357183c82146100a95780638f83847814610118575b600080fd5b34801561006157600080fd5b506100956004803603602081101561007857600080fd5b503573ffffffffffffffffffffffffffffffffffffffff1661016a565b604080519115158252519081900360200190f35b3480156100b557600080fd5b506100ef600480360360408110156100cc57600080fd5b5073ffffffffffffffffffffffffffffffffffffffff813516906020013561017f565b6040805173ffffffffffffffffffffffffffffffffffffffff9092168252519081900360200190f35b34801561012457600080fd5b506101586004803603602081101561013b57600080fd5b503573ffffffffffffffffffffffffffffffffffffffff166101c3565b60408051918252519081900360200190f35b60006020819052908152604090205460ff1681565b60016020528160005260406000208181548110151561019a57fe5b60009182526020909120015473ffffffffffffffffffffffffffffffffffffffff169150829050565b73ffffffffffffffffffffffffffffffffffffffff166000908152600160205260409020549056fea165627a7a7230582017eb453f4941e177989f6213559e5d9d18c684b4da9d8e15ffda26bd9072c0ff0029",
  "source": "/**\r\n *@title Factory - Registers factory Items.\r\n *@author Gnosis\r\n *July 28 2019: https://github.com/gnosis/MultiSigWallet/blob/master/contracts/Factory.sol\r\n *@notice Edited from original for style re-formatting.\r\n *This contract is has a register function and instantion count function to keep track of builds.\r\n */\r\n\r\npragma solidity ^0.5.0;\r\n\r\ncontract Factory {\r\n    /*\r\n     *  Events\r\n     */\r\n    event ContractInstantiation(address sender, address instantiation);\r\n\r\n    /*\r\n     *  Storage\r\n     */\r\n    mapping(address => bool) public isInstantiation;\r\n    mapping(address => address[]) public instantiations;\r\n\r\n    /*\r\n     * Public functions\r\n     */\r\n    /// @dev Returns number of instantiations by creator.\r\n    /// @param creator Contract creator.\r\n    /// @return Returns number of instantiations by creator.\r\n    function getInstantiationCount(address creator)\r\n        public\r\n        view\r\n        returns (uint)\r\n    {\r\n        return instantiations[creator].length;\r\n    }\r\n\r\n    /*\r\n     * Internal functions\r\n     */\r\n    /// @dev Registers contract in factory registry.\r\n    /// @param instantiation Address of contract instantiation.\r\n    function register(address instantiation)\r\n        internal\r\n    {\r\n        isInstantiation[instantiation] = true;\r\n        instantiations[msg.sender].push(instantiation);\r\n        emit ContractInstantiation(msg.sender, instantiation);\r\n    }\r\n}",
  "sourcePath": "C:\\Users\\Duncan\\Documents\\Projects\\SuperGood\\contracts\\Factory.sol",
  "compiler": {
    "name": "solc",
    "version": "0.5.1+commit.c8a2cb62.Emscripten.clang"
  },
  "schemaVersion": "3.0.11",
  "updatedAt": "2019-08-01T08:38:51.892Z",
  "devdoc": {
    "methods": {
      "getInstantiationCount(address)": {
        "return": "Returns number of instantiations by creator."
      }
    }
  },
  "userdoc": {
    "methods": {}
  }
}