{
  "contractName": "GoodBoard",
  "abi": [
    {
      "constant": true,
      "inputs": [
        {
          "name": "",
          "type": "uint256"
        }
      ],
      "name": "owners",
      "outputs": [
        {
          "name": "",
          "type": "address"
        }
      ],
      "payable": false,
      "stateMutability": "view",
      "type": "function"
    },
    {
      "constant": true,
      "inputs": [],
      "name": "name",
      "outputs": [
        {
          "name": "",
          "type": "string"
        }
      ],
      "payable": false,
      "stateMutability": "view",
      "type": "function"
    },
    {
      "constant": false,
      "inputs": [
        {
          "name": "owner",
          "type": "address"
        }
      ],
      "name": "removeOwner",
      "outputs": [],
      "payable": false,
      "stateMutability": "nonpayable",
      "type": "function"
    },
    {
      "constant": false,
      "inputs": [
        {
          "name": "transactionId",
          "type": "uint256"
        }
      ],
      "name": "revokeConfirmation",
      "outputs": [],
      "payable": false,
      "stateMutability": "nonpayable",
      "type": "function"
    },
    {
      "constant": true,
      "inputs": [
        {
          "name": "",
          "type": "address"
        }
      ],
      "name": "isInstantiation",
      "outputs": [
        {
          "name": "",
          "type": "bool"
        }
      ],
      "payable": false,
      "stateMutability": "view",
      "type": "function"
    },
    {
      "constant": true,
      "inputs": [
        {
          "name": "",
          "type": "address"
        }
      ],
      "name": "isOwner",
      "outputs": [
        {
          "name": "",
          "type": "bool"
        }
      ],
      "payable": false,
      "stateMutability": "view",
      "type": "function"
    },
    {
      "constant": false,
      "inputs": [
        {
          "name": "destination",
          "type": "address"
        },
        {
          "name": "value",
          "type": "uint256"
        },
        {
          "name": "data",
          "type": "bytes"
        },
        {
          "name": "proposal",
          "type": "string"
        }
      ],
      "name": "submitTransaction",
      "outputs": [
        {
          "name": "transactionId",
          "type": "uint256"
        }
      ],
      "payable": false,
      "stateMutability": "nonpayable",
      "type": "function"
    },
    {
      "constant": true,
      "inputs": [
        {
          "name": "pending",
          "type": "bool"
        },
        {
          "name": "executed",
          "type": "bool"
        }
      ],
      "name": "getTransactionCount",
      "outputs": [
        {
          "name": "count",
          "type": "uint256"
        }
      ],
      "payable": false,
      "stateMutability": "view",
      "type": "function"
    },
    {
      "constant": true,
      "inputs": [
        {
          "name": "",
          "type": "address"
        },
        {
          "name": "",
          "type": "uint256"
        }
      ],
      "name": "instantiations",
      "outputs": [
        {
          "name": "",
          "type": "address"
        }
      ],
      "payable": false,
      "stateMutability": "view",
      "type": "function"
    },
    {
      "constant": true,
      "inputs": [
        {
          "name": "",
          "type": "uint256"
        }
      ],
      "name": "Portfolios",
      "outputs": [
        {
          "name": "",
          "type": "address"
        }
      ],
      "payable": false,
      "stateMutability": "view",
      "type": "function"
    },
    {
      "constant": true,
      "inputs": [
        {
          "name": "transactionId",
          "type": "uint256"
        }
      ],
      "name": "isConfirmed",
      "outputs": [
        {
          "name": "",
          "type": "bool"
        }
      ],
      "payable": false,
      "stateMutability": "view",
      "type": "function"
    },
    {
      "constant": true,
      "inputs": [
        {
          "name": "transactionId",
          "type": "uint256"
        }
      ],
      "name": "getConfirmationCount",
      "outputs": [
        {
          "name": "count",
          "type": "uint256"
        }
      ],
      "payable": false,
      "stateMutability": "view",
      "type": "function"
    },
    {
      "constant": true,
      "inputs": [
        {
          "name": "creator",
          "type": "address"
        }
      ],
      "name": "getInstantiationCount",
      "outputs": [
        {
          "name": "",
          "type": "uint256"
        }
      ],
      "payable": false,
      "stateMutability": "view",
      "type": "function"
    },
    {
      "constant": true,
      "inputs": [],
      "name": "factoryAddress",
      "outputs": [
        {
          "name": "",
          "type": "address"
        }
      ],
      "payable": false,
      "stateMutability": "view",
      "type": "function"
    },
    {
      "constant": true,
      "inputs": [
        {
          "name": "from",
          "type": "uint256"
        },
        {
          "name": "to",
          "type": "uint256"
        },
        {
          "name": "pending",
          "type": "bool"
        },
        {
          "name": "executed",
          "type": "bool"
        }
      ],
      "name": "getTransactionIds",
      "outputs": [
        {
          "name": "_transactionIds",
          "type": "uint256[]"
        }
      ],
      "payable": false,
      "stateMutability": "view",
      "type": "function"
    },
    {
      "constant": true,
      "inputs": [
        {
          "name": "",
          "type": "uint256"
        }
      ],
      "name": "motions",
      "outputs": [
        {
          "name": "destination",
          "type": "address"
        },
        {
          "name": "value",
          "type": "uint256"
        },
        {
          "name": "data",
          "type": "bytes"
        },
        {
          "name": "executed",
          "type": "bool"
        },
        {
          "name": "proposal",
          "type": "string"
        }
      ],
      "payable": false,
      "stateMutability": "view",
      "type": "function"
    },
    {
      "constant": true,
      "inputs": [
        {
          "name": "transactionId",
          "type": "uint256"
        }
      ],
      "name": "getConfirmations",
      "outputs": [
        {
          "name": "_confirmations",
          "type": "address[]"
        }
      ],
      "payable": false,
      "stateMutability": "view",
      "type": "function"
    },
    {
      "constant": true,
      "inputs": [],
      "name": "transactionCount",
      "outputs": [
        {
          "name": "",
          "type": "uint256"
        }
      ],
      "payable": false,
      "stateMutability": "view",
      "type": "function"
    },
    {
      "constant": false,
      "inputs": [
        {
          "name": "_required",
          "type": "uint256"
        }
      ],
      "name": "changeRequirement",
      "outputs": [],
      "payable": false,
      "stateMutability": "nonpayable",
      "type": "function"
    },
    {
      "constant": false,
      "inputs": [
        {
          "name": "transactionId",
          "type": "uint256"
        }
      ],
      "name": "confirmTransaction",
      "outputs": [],
      "payable": false,
      "stateMutability": "nonpayable",
      "type": "function"
    },
    {
      "constant": false,
      "inputs": [
        {
          "name": "_name",
          "type": "string"
        }
      ],
      "name": "reName",
      "outputs": [],
      "payable": false,
      "stateMutability": "nonpayable",
      "type": "function"
    },
    {
      "constant": true,
      "inputs": [],
      "name": "MAX_OWNER_COUNT",
      "outputs": [
        {
          "name": "",
          "type": "uint256"
        }
      ],
      "payable": false,
      "stateMutability": "view",
      "type": "function"
    },
    {
      "constant": true,
      "inputs": [],
      "name": "required",
      "outputs": [
        {
          "name": "",
          "type": "uint256"
        }
      ],
      "payable": false,
      "stateMutability": "view",
      "type": "function"
    },
    {
      "constant": false,
      "inputs": [
        {
          "name": "owner",
          "type": "address"
        },
        {
          "name": "newOwner",
          "type": "address"
        }
      ],
      "name": "replaceOwner",
      "outputs": [],
      "payable": false,
      "stateMutability": "nonpayable",
      "type": "function"
    },
    {
      "constant": false,
      "inputs": [
        {
          "name": "transactionId",
          "type": "uint256"
        }
      ],
      "name": "executeTransaction",
      "outputs": [],
      "payable": false,
      "stateMutability": "nonpayable",
      "type": "function"
    },
    {
      "constant": true,
      "inputs": [],
      "name": "getOwnerCount",
      "outputs": [
        {
          "name": "",
          "type": "uint256"
        }
      ],
      "payable": false,
      "stateMutability": "view",
      "type": "function"
    },
    {
      "inputs": [
        {
          "name": "_owners",
          "type": "address[]"
        },
        {
          "name": "_factoryAddress",
          "type": "address"
        },
        {
          "name": "name",
          "type": "string"
        }
      ],
      "payable": false,
      "stateMutability": "nonpayable",
      "type": "constructor"
    },
    {
      "payable": true,
      "stateMutability": "payable",
      "type": "fallback"
    },
    {
      "anonymous": false,
      "inputs": [
        {
          "indexed": false,
          "name": "newBoardMember",
          "type": "address"
        }
      ],
      "name": "BoardSubscriberAdded",
      "type": "event"
    },
    {
      "anonymous": false,
      "inputs": [
        {
          "indexed": false,
          "name": "newBoardMember",
          "type": "address"
        }
      ],
      "name": "BoardSubscriberNotAdded",
      "type": "event"
    },
    {
      "anonymous": false,
      "inputs": [
        {
          "indexed": false,
          "name": "sender",
          "type": "address"
        },
        {
          "indexed": false,
          "name": "instantiation",
          "type": "address"
        }
      ],
      "name": "ContractInstantiation",
      "type": "event"
    },
    {
      "anonymous": false,
      "inputs": [
        {
          "indexed": true,
          "name": "sender",
          "type": "address"
        },
        {
          "indexed": true,
          "name": "transactionId",
          "type": "uint256"
        }
      ],
      "name": "Confirmation",
      "type": "event"
    },
    {
      "anonymous": false,
      "inputs": [
        {
          "indexed": true,
          "name": "sender",
          "type": "address"
        },
        {
          "indexed": true,
          "name": "transactionId",
          "type": "uint256"
        }
      ],
      "name": "Revocation",
      "type": "event"
    },
    {
      "anonymous": false,
      "inputs": [
        {
          "indexed": true,
          "name": "transactionId",
          "type": "uint256"
        }
      ],
      "name": "Submission",
      "type": "event"
    },
    {
      "anonymous": false,
      "inputs": [
        {
          "indexed": true,
          "name": "transactionId",
          "type": "uint256"
        }
      ],
      "name": "Execution",
      "type": "event"
    },
    {
      "anonymous": false,
      "inputs": [
        {
          "indexed": true,
          "name": "transactionId",
          "type": "uint256"
        }
      ],
      "name": "ExecutionFailure",
      "type": "event"
    },
    {
      "anonymous": false,
      "inputs": [
        {
          "indexed": true,
          "name": "sender",
          "type": "address"
        },
        {
          "indexed": false,
          "name": "value",
          "type": "uint256"
        }
      ],
      "name": "Deposit",
      "type": "event"
    },
    {
      "anonymous": false,
      "inputs": [
        {
          "indexed": true,
          "name": "owner",
          "type": "address"
        }
      ],
      "name": "OwnerAddition",
      "type": "event"
    },
    {
      "anonymous": false,
      "inputs": [
        {
          "indexed": true,
          "name": "owner",
          "type": "address"
        }
      ],
      "name": "OwnerRemoval",
      "type": "event"
    },
    {
      "anonymous": false,
      "inputs": [
        {
          "indexed": false,
          "name": "required",
          "type": "uint256"
        }
      ],
      "name": "RequirementChange",
      "type": "event"
    },
    {
      "anonymous": false,
      "inputs": [
        {
          "indexed": false,
          "name": "name",
          "type": "string"
        }
      ],
      "name": "Renamed",
      "type": "event"
    },
    {
      "constant": false,
      "inputs": [
        {
          "name": "payees",
          "type": "address[]"
        },
        {
          "name": "shares",
          "type": "uint256[]"
        },
        {
          "name": "name",
          "type": "string"
        }
      ],
      "name": "build",
      "outputs": [],
      "payable": false,
      "stateMutability": "nonpayable",
      "type": "function"
    },
    {
      "constant": false,
      "inputs": [
        {
          "name": "owner",
          "type": "address"
        }
      ],
      "name": "addOwner",
      "outputs": [],
      "payable": false,
      "stateMutability": "nonpayable",
      "type": "function"
    },
    {
      "constant": true,
      "inputs": [],
      "name": "getPortfoliosLength",
      "outputs": [
        {
          "name": "",
          "type": "uint256"
        }
      ],
      "payable": false,
      "stateMutability": "view",
      "type": "function"
    }
  ],
  "bytecode": "0x60806040523480156200001157600080fd5b5060405162004d8738038062004d87833981018060405260608110156200003757600080fd5b8101908080516401000000008111156200005057600080fd5b820160208101848111156200006457600080fd5b81518560208202830111640100000000821117156200008257600080fd5b50506020820151604090920180519194929391640100000000811115620000a857600080fd5b82016020810184811115620000bc57600080fd5b8151640100000000811182820187101715620000d757600080fd5b505080519093508592508391508190620000f99060009060208401906200025e565b505081516002810460010160328211158015620001165750818111155b80156200012257508015155b80156200012e57508115155b15156200013a57600080fd5b60005b84518110156200020d576003600086838151811015156200015a57fe5b6020908102909101810151600160a060020a031682528101919091526040016000205460ff16158015620001b1575084516000908690839081106200019b57fe5b90602001906020020151600160a060020a031614155b1515620001bd57600080fd5b6001600360008784815181101515620001d257fe5b602090810291909101810151600160a060020a03168252810191909152604001600020805460ff19169115159190911790556001016200013d565b50835162000223906004906020870190620002e3565b508351600290046001016005555050600a8054600160a060020a031916600160a060020a039590951694909417909355506200039092505050565b828054600181600116156101000203166002900490600052602060002090601f016020900481019282601f10620002a157805160ff1916838001178555620002d1565b82800160010185558215620002d1579182015b82811115620002d1578251825591602001919060010190620002b4565b50620002df92915062000349565b5090565b8280548282559060005260206000209081019282156200033b579160200282015b828111156200033b5782518254600160a060020a031916600160a060020a0390911617825560209092019160019091019062000304565b50620002df92915062000369565b6200036691905b80821115620002df576000815560010162000350565b90565b6200036691905b80821115620002df578054600160a060020a031916815560010162000370565b6149e780620003a06000396000f3fe6080604052600436106200018c577c01000000000000000000000000000000000000000000000000000000006000350463025e7c278114620001cf57806306fdde031462000219578063173825d914620002a957806320ea8d8614620002e05780632f4f3316146200030e5780632f54bf6e146200035957806346e24b0814620003905780635474152514620004fb57806357183c8214620005335780635ae300c9146200057057806364bdf0fb14620005885780637065cb4814620005b6578063759a282814620005ed578063784547a714620007b55780638b51d13f14620007e35780638f8384781462000811578063966dae0e1462000848578063a8abe69a1462000860578063b21d36a814620008f6578063b5dc40c31462000a33578063b77bf6001462000a61578063ba51a6df1462000a79578063c01a8c841462000aa7578063cc168b8a1462000ad5578063d74f8edd1462000b8f578063dc8452cd1462000ba7578063e20056e61462000bbf578063ee22610b1462000bfe578063ef18374a1462000c2c575b6000341115620001cd5760408051348152905133917fe1fffcc4923d04b559f4d29a8bfc6cda04eb5b0d3c460751c2402c5c5cc9109c919081900360200190a25b005b348015620001dc57600080fd5b50620001fd60048036036020811015620001f557600080fd5b503562000c44565b60408051600160a060020a039092168252519081900360200190f35b3480156200022657600080fd5b506200023162000c6d565b6040805160208082528351818301528351919283929083019185019080838360005b838110156200026d57818101518382015260200162000253565b50505050905090810190601f1680156200029b5780820380516001836020036101000a031916815260200191505b509250505060405180910390f35b348015620002b657600080fd5b50620001cd60048036036020811015620002cf57600080fd5b5035600160a060020a031662000cff565b348015620002ed57600080fd5b50620001cd600480360360208110156200030657600080fd5b503562000e78565b3480156200031b57600080fd5b5062000345600480360360208110156200033457600080fd5b5035600160a060020a031662000f35565b604080519115158252519081900360200190f35b3480156200036657600080fd5b5062000345600480360360208110156200037f57600080fd5b5035600160a060020a031662000f4a565b3480156200039d57600080fd5b50620004e960048036036080811015620003b657600080fd5b600160a060020a0382351691602081013591810190606081016040820135640100000000811115620003e757600080fd5b820183602082011115620003fa57600080fd5b803590602001918460018302840111640100000000831117156200041d57600080fd5b91908080601f01602080910402602001604051908101604052809392919081815260200183838082843760009201919091525092959493602081019350359150506401000000008111156200047157600080fd5b8201836020820111156200048457600080fd5b80359060200191846001830284011164010000000083111715620004a757600080fd5b91908080601f01602080910402602001604051908101604052809392919081815260200183838082843760009201919091525092955062000f5f945050505050565b60408051918252519081900360200190f35b3480156200050857600080fd5b50620004e9600480360360408110156200052157600080fd5b50803515159060200135151562000fa5565b3480156200054057600080fd5b50620001fd600480360360408110156200055957600080fd5b50600160a060020a03813516906020013562001017565b3480156200057d57600080fd5b50620004e96200104f565b3480156200059557600080fd5b50620001fd60048036036020811015620005ae57600080fd5b503562001056565b348015620005c357600080fd5b50620001cd60048036036020811015620005dc57600080fd5b5035600160a060020a031662001065565b348015620005fa57600080fd5b50620001cd600480360360608110156200061357600080fd5b8101906020810181356401000000008111156200062f57600080fd5b8201836020820111156200064257600080fd5b803590602001918460208302840111640100000000831117156200066557600080fd5b9190808060200260200160405190810160405280939291908181526020018383602002808284376000920191909152509295949360208101935035915050640100000000811115620006b657600080fd5b820183602082011115620006c957600080fd5b80359060200191846020830284011164010000000083111715620006ec57600080fd5b91908080602002602001604051908101604052809392919081815260200183836020028082843760009201919091525092959493602081019350359150506401000000008111156200073d57600080fd5b8201836020820111156200075057600080fd5b803590602001918460018302840111640100000000831117156200077357600080fd5b91908080601f01602080910402602001604051908101604052809392919081815260200183838082843760009201919091525092955062001179945050505050565b348015620007c257600080fd5b506200034560048036036020811015620007db57600080fd5b503562001337565b348015620007f057600080fd5b50620004e9600480360360208110156200080957600080fd5b5035620013c4565b3480156200081e57600080fd5b50620004e9600480360360208110156200083757600080fd5b5035600160a060020a031662001437565b3480156200085557600080fd5b50620001fd62001452565b3480156200086d57600080fd5b50620008a4600480360360808110156200088657600080fd5b50803590602081013590604081013515159060600135151562001461565b60408051602080825283518183015283519192839290830191858101910280838360005b83811015620008e2578181015183820152602001620008c8565b505050509050019250505060405180910390f35b3480156200090357600080fd5b5062000924600480360360208110156200091c57600080fd5b50356200159e565b6040518086600160a060020a0316600160a060020a03168152602001858152602001806020018415151515815260200180602001838103835286818151815260200191508051906020019080838360005b838110156200098f57818101518382015260200162000975565b50505050905090810190601f168015620009bd5780820380516001836020036101000a031916815260200191505b50838103825284518152845160209182019186019080838360005b83811015620009f2578181015183820152602001620009d8565b50505050905090810190601f16801562000a205780820380516001836020036101000a031916815260200191505b5097505050505050505060405180910390f35b34801562000a4057600080fd5b50620008a46004803603602081101562000a5957600080fd5b5035620016f4565b34801562000a6e57600080fd5b50620004e962001871565b34801562000a8657600080fd5b50620001cd6004803603602081101562000a9f57600080fd5b503562001877565b34801562000ab457600080fd5b50620001cd6004803603602081101562000acd57600080fd5b5035620018fb565b34801562000ae257600080fd5b50620001cd6004803603602081101562000afb57600080fd5b81019060208101813564010000000081111562000b1757600080fd5b82018360208201111562000b2a57600080fd5b8035906020019184600183028401116401000000008311171562000b4d57600080fd5b91908080601f016020809104026020016040519081016040528093929190818152602001838380828437600092019190915250929550620019c9945050505050565b34801562000b9c57600080fd5b50620004e962001aa0565b34801562000bb457600080fd5b50620004e962001aa5565b34801562000bcc57600080fd5b50620001cd6004803603604081101562000be557600080fd5b50600160a060020a038135811691602001351662001aab565b34801562000c0b57600080fd5b50620001cd6004803603602081101562000c2457600080fd5b503562001c37565b34801562000c3957600080fd5b50620004e962001dfd565b600480548290811062000c5357fe5b600091825260209091200154600160a060020a0316905081565b6000805460408051602060026001851615610100026000190190941693909304601f8101849004840282018401909252818152929183018282801562000cf75780601f1062000ccb5761010080835404028352916020019162000cf7565b820191906000526020600020905b81548152906001019060200180831162000cd957829003601f168201915b505050505081565b33301462000d0c57600080fd5b600160a060020a038116600090815260036020526040902054819060ff16151562000d3657600080fd5b600160a060020a0382166000908152600360205260408120805460ff191690555b6004546000190181101562000e135782600160a060020a031660048281548110151562000d8057fe5b600091825260209091200154600160a060020a0316141562000e0a5760048054600019810190811062000daf57fe5b60009182526020909120015460048054600160a060020a03909216918390811062000dd657fe5b9060005260206000200160006101000a815481600160a060020a030219169083600160a060020a0316021790555062000e13565b60010162000d57565b5060048054600019019062000e29908262002184565b5060045462000e40906002905b0460010162001877565b604051600160a060020a038316907f8001553a916ef2f495d26a907cc54d96ed840d7bda71e73194bf5a9df7a76b9090600090a25050565b3360008181526003602052604090205460ff16151562000e9757600080fd5b60008281526002602090815260408083203380855292529091205483919060ff16151562000ec457600080fd5b600084815260016020526040902060030154849060ff161562000ee657600080fd5b6000858152600260209081526040808320338085529252808320805460ff191690555187927ff6a317157440607f36269043eb55f1287a5a19ba2216afeab88cd46cbcfb88e991a35050505050565b60076020526000908152604090205460ff1681565b60036020526000908152604090205460ff1681565b3360008181526003602052604081205490919060ff16151562000f8157600080fd5b62000f8f8686868662001e03565b915062000f9c82620018fb565b50949350505050565b6000805b600654811015620010105783801562000fd4575060008181526001602052604090206003015460ff16155b8062000ffa575082801562000ffa575060008181526001602052604090206003015460ff165b1562001007576001820191505b60010162000fa9565b5092915050565b6008602052816000526040600020818154811015156200103357fe5b600091825260209091200154600160a060020a03169150829050565b6009545b90565b600980548290811062000c5357fe5b3330146200107257600080fd5b600160a060020a038116600090815260036020526040902054819060ff16156200109b57600080fd5b81600160a060020a0381161515620010b257600080fd5b600160a060020a0383166000818152600360205260408120805460ff19166001908117909155600480549182018155918290527f8a35acfbc15ff81a39ae7d344fd709f28e8600b4aa8c65c6b64bfe7fe36bd19b01805473ffffffffffffffffffffffffffffffffffffffff191690921790915554620011359060029062000e36565b604051600160a060020a038416907ff39e6e1eb0edcf53c221607b54b00cd28f3196fed0a24994dc308b8f611b682d90600090a2620011748362001f1f565b505050565b3330146200118657600080fd5b600a5460009084908490600160a060020a031684620011a4620021ab565b600160a060020a0383166040820152608080825285519082015284518190602080830191606084019160a08501918a8201910280838360005b83811015620011f7578181015183820152602001620011dd565b50505050905001848103835287818151815260200191508051906020019060200280838360005b83811015620012385781810151838201526020016200121e565b50505050905001848103825285818151815260200191508051906020019080838360005b83811015620012765781810151838201526020016200125c565b50505050905090810190601f168015620012a45780820380516001836020036101000a031916815260200191505b50975050505050505050604051809103906000f080158015620012cb573d6000803e3d6000fd5b50600980546001810182556000919091527f6e1540171b6c0c960b71a7020d9f60077f6af931a8bbf590da0223dacf75c7af01805473ffffffffffffffffffffffffffffffffffffffff1916600160a060020a03831617905590506200133181620020c6565b50505050565b600080805b600454811015620013bc57600084815260026020526040812060048054919291849081106200136757fe5b6000918252602080832090910154600160a060020a0316835282019290925260400190205460ff16156200139c576001820191505b600554821415620013b357600192505050620013bf565b6001016200133c565b50505b919050565b6000805b600454811015620014315760008381526002602052604081206004805491929184908110620013f357fe5b6000918252602080832090910154600160a060020a0316835282019290925260400190205460ff161562001428576001820191505b600101620013c8565b50919050565b600160a060020a031660009081526008602052604090205490565b600a54600160a060020a031681565b60608060065460405190808252806020026020018201604052801562001491578160200160208202803883390190505b5090506000805b6006548110156200151957858015620014c2575060008181526001602052604090206003015460ff165b80620014e85750848015620014e8575060008181526001602052604090206003015460ff165b156200151057808383815181101515620014fe57fe5b60209081029091010152600191909101905b60010162001498565b87870360405190808252806020026020018201604052801562001546578160200160208202803883390190505b5093508790505b86811015620015935782818151811015156200156557fe5b90602001906020020151848983038151811015156200158057fe5b602090810290910101526001016200154d565b505050949350505050565b6001602081815260009283526040928390208054818401546002808401805488516101009882161598909802600019011691909104601f8101869004860287018601909752868652600160a060020a0390921695909492938301828280156200164b5780601f106200161f576101008083540402835291602001916200164b565b820191906000526020600020905b8154815290600101906020018083116200162d57829003601f168201915b50505050600383015460048401805460408051602060026101006001861615026000190190941693909304601f8101849004840282018401909252818152959660ff9094169593945090830182828015620016ea5780601f10620016be57610100808354040283529160200191620016ea565b820191906000526020600020905b815481529060010190602001808311620016cc57829003601f168201915b5050505050905085565b60608060048054905060405190808252806020026020018201604052801562001727578160200160208202803883390190505b5090506000805b600454811015620017e557600085815260026020526040812060048054919291849081106200175957fe5b6000918252602080832090910154600160a060020a0316835282019290925260400190205460ff1615620017dc5760048054829081106200179657fe5b6000918252602090912001548351600160a060020a0390911690849084908110620017bd57fe5b600160a060020a03909216602092830290910190910152600191909101905b6001016200172e565b8160405190808252806020026020018201604052801562001810578160200160208202803883390190505b509350600090505b81811015620018695782818151811015156200183057fe5b9060200190602002015184828151811015156200184957fe5b600160a060020a0390921660209283029091019091015260010162001818565b505050919050565b60065481565b3330146200188457600080fd5b60045481603282118015906200189a5750818111155b8015620018a657508015155b8015620018b257508115155b1515620018be57600080fd5b60058390556040805184815290517fa3f1ee9126a074d9326c682f561767f710e927faa811f7a99829d49dc421797a9181900360200190a1505050565b3360008181526003602052604090205460ff1615156200191a57600080fd5b6000828152600160205260409020548290600160a060020a031615156200194057600080fd5b60008381526002602090815260408083203380855292529091205484919060ff16156200196c57600080fd5b6000858152600260209081526040808320338085529252808320805460ff191660011790555187927f4a504a94899432a9846e1aa406dceb1bcfd538bb839071d49d1e5e23f5be30ef91a3620019c28562001c37565b5050505050565b333014620019d657600080fd5b8051620019eb906000906020840190620021bc565b5060408051602080825260008054600260001961010060018416150201909116049183018290527f72e439a2d2348e4711ee609edf6fcfd2a4ff52ad22d5fc9d05ec02b57e4162559390929182918201908490801562001a8f5780601f1062001a635761010080835404028352916020019162001a8f565b820191906000526020600020905b81548152906001019060200180831162001a7157829003601f168201915b50509250505060405180910390a150565b603281565b60055481565b33301462001ab857600080fd5b600160a060020a038216600090815260036020526040902054829060ff16151562001ae257600080fd5b600160a060020a038216600090815260036020526040902054829060ff161562001b0b57600080fd5b60005b60045481101562001b9d5784600160a060020a031660048281548110151562001b3357fe5b600091825260209091200154600160a060020a0316141562001b94578360048281548110151562001b6057fe5b9060005260206000200160006101000a815481600160a060020a030219169083600160a060020a0316021790555062001b9d565b60010162001b0e565b50600160a060020a03808516600081815260036020526040808220805460ff1990811690915593871682528082208054909416600117909355915190917f8001553a916ef2f495d26a907cc54d96ed840d7bda71e73194bf5a9df7a76b9091a2604051600160a060020a038416907ff39e6e1eb0edcf53c221607b54b00cd28f3196fed0a24994dc308b8f611b682d90600090a250505050565b3360008181526003602052604090205460ff16151562001c5657600080fd5b60008281526002602090815260408083203380855292529091205483919060ff16151562001c8357600080fd5b600084815260016020526040902060030154849060ff161562001ca557600080fd5b62001cb08562001337565b15620019c25760008581526001602081815260409283902060038101805460ff1916841790558054818401546002808401805488516101009882161598909802600019011691909104601f8101869004860287018601909752868652929562001d8695600160a060020a03909316949193909291839083018282801562001d7b5780601f1062001d4f5761010080835404028352916020019162001d7b565b820191906000526020600020905b81548152906001019060200180831162001d5d57829003601f168201915b505050505062002161565b1562001dbd5760405186907f33e13ecb54c3076d8e8bb8c2881800a4d972b792045ffae98fdf46df365fed7590600090a262001df5565b60405186907f526441bb6c1aba3c9a4a6ca1d6545da9c2333c8c48343ef398eb858d72b7923690600090a260038101805460ff191690555b505050505050565b60045490565b600084600160a060020a038116151562001e1c57600080fd5b6006546040805160a081018252600160a060020a03898116825260208083018a81528385018a8152600060608601819052608086018b905287815260018085529690208551815473ffffffffffffffffffffffffffffffffffffffff19169516949094178455905194830194909455925180519496509193909262001ea9926002850192910190620021bc565b50606082015160038201805460ff19169115159190911790556080820151805162001edf916004840191602090910190620021bc565b50506006805460010190555060405182907fc0ba8fe4b176c1714197d43b9cc6bcf797a4a7461c5fe8d0ef6e184ae7601e5190600090a250949350505050565b600a5460408051600160a060020a0384811660248301523060448084019190915283518084039091018152606490920183526020820180517bffffffffffffffffffffffffffffffffffffffffffffffffffffffff167f7286379300000000000000000000000000000000000000000000000000000000178152925182516000956060959316939282918083835b6020831062001fce5780518252601f19909201916020918201910162001fad565b6001836020036101000a0380198251168184511680821785525050505050509050019150506000604051808303816000865af19150503d806000811462002032576040519150601f19603f3d011682016040523d82523d6000602084013e62002037565b606091505b50915091508115620020855760408051600160a060020a038516815290517fa78f0f10a429d0004466d60400e9bed5361cdb50f7c8a6669c908b3911e3bf5b9181900360200190a162001174565b60408051600160a060020a038516815290517f1652108c604468ffb3d0098a13ec86c059a65a78433a4cd8a52621e343e898d99181900360200190a1505050565b600160a060020a0381166000818152600760209081526040808320805460ff1916600190811790915533808552600884528285208054928301815585529383902001805473ffffffffffffffffffffffffffffffffffffffff19168517905580519283529082019290925281517f4fb057ad4a26ed17a57957fa69c306f11987596069b89521c511fc9a894e6161929181900390910190a150565b6000806040516020840160008287838a8c6187965a03f198975050505050505050565b81548183558181111562001174576000838152602090206200117491810190830162002241565b60405161275d806200225f83390190565b828054600181600116156101000203166002900490600052602060002090601f016020900481019282601f10620021ff57805160ff19168380011785556200222f565b828001600101855582156200222f579182015b828111156200222f57825182559160200191906001019062002212565b506200223d92915062002241565b5090565b6200105391905b808211156200223d57600081556001016200224856fe60806040526040516200275d3803806200275d833981018060405260808110156200002957600080fd5b8101908080516401000000008111156200004257600080fd5b820160208101848111156200005657600080fd5b81518560208202830111640100000000821117156200007457600080fd5b505092919060200180516401000000008111156200009157600080fd5b82016020810184811115620000a557600080fd5b8151856020820283011164010000000082111715620000c357600080fd5b50506020820151604090920180519194929391640100000000811115620000e957600080fd5b82016020810184811115620000fd57600080fd5b81516401000000008111828201871017156200011857600080fd5b5050929190505050808484818180518251141515620001be57604080517f08c379a000000000000000000000000000000000000000000000000000000000815260206004820152603260248201527f5061796d656e7453706c69747465723a2070617965657320616e64207368617260448201527f6573206c656e677468206d69736d617463680000000000000000000000000000606482015290519081900360840190fd5b81516000106200022f57604080517f08c379a000000000000000000000000000000000000000000000000000000000815260206004820152601a60248201527f5061796d656e7453706c69747465723a206e6f20706179656573000000000000604482015290519081900360640190fd5b60005b825181101562000290576200028783828151811015156200024f57fe5b9060200190602002015183838151811015156200026857fe5b9060200190602002015162000341640100000000026401000000009004565b60010162000232565b505060058054600160a060020a031916331790819055604051600160a060020a039190911691506000907f8be0079c531659141344cd1fd0a4f28419497f9722a3daafe3b4186f6b6457e0908290a350506005805460a060020a60ff021916905580516200030690600a90602084019062000818565b5050600b8054600160a060020a031916600160a060020a0384161790556200033784640100000000620005bb810204565b50505050620008bd565b600160a060020a0382161515620003df57604080517f08c379a000000000000000000000000000000000000000000000000000000000815260206004820152602c60248201527f5061796d656e7453706c69747465723a206163636f756e74206973207468652060448201527f7a65726f20616464726573730000000000000000000000000000000000000000606482015290519081900360840190fd5b600081116200044f57604080517f08c379a000000000000000000000000000000000000000000000000000000000815260206004820152601d60248201527f5061796d656e7453706c69747465723a20736861726573206172652030000000604482015290519081900360640190fd5b600160a060020a03821660009081526002602052604090205415620004fb57604080517f08c379a000000000000000000000000000000000000000000000000000000000815260206004820152602b60248201527f5061796d656e7453706c69747465723a206163636f756e7420616c726561647960448201527f2068617320736861726573000000000000000000000000000000000000000000606482015290519081900360840190fd5b60048054600181019091557f8a35acfbc15ff81a39ae7d344fd709f28e8600b4aa8c65c6b64bfe7fe36bd19b018054600160a060020a031916600160a060020a0384169081179091556000908152600260205260408120829055546200057090826401000000006200079c8102620014201704565b60005560408051600160a060020a03841681526020810183905281517f40c340f65e17194d14ddddb073d3c9f888e3cb52b5aae0c6c7706b4fbc905fac929181900390910190a15050565b600b5460408051306044820181905260248201928352845160648301528451600094606094600160a060020a0390911693879392829160840190602080870191028083838c5b838110156200061b57818101518382015260200162000601565b50506040805193909501838103601f19018452855250506020810180517fc3dc47ec00000000000000000000000000000000000000000000000000000000600160e060020a0390911617815292518151919750955085945091925081905083835b602083106200069d5780518252601f1990920191602091820191016200067c565b6001836020036101000a0380198251168184511680821785525050505050509050019150506000604051808303816000865af19150503d806000811462000701576040519150601f19603f3d011682016040523d82523d6000602084013e62000706565b606091505b509150915081156200075757600b5460408051600160a060020a039092168252517fce255aea1c9d0ffc899ad635ba04330bd5dc6d0196d9c94ecbca8a78fa7ca6ca9181900360200190a162000797565b600b5460408051600160a060020a039092168252517f963bfa1b56ec34486f7dda320affea81d310180e595b97d57837fbe2b46f9acf9181900360200190a15b505050565b6000828201838110156200081157604080517f08c379a000000000000000000000000000000000000000000000000000000000815260206004820152601b60248201527f536166654d6174683a206164646974696f6e206f766572666c6f770000000000604482015290519081900360640190fd5b9392505050565b828054600181600116156101000203166002900490600052602060002090601f016020900481019282601f106200085b57805160ff19168380011785556200088b565b828001600101855582156200088b579182015b828111156200088b5782518255916020019190600101906200086e565b50620008999291506200089d565b5090565b620008ba91905b80821115620008995760008155600101620008a4565b90565b611e9080620008cd6000396000f3fe60806040526004361061012c577c0100000000000000000000000000000000000000000000000000000000600035046306fdde038114610190578063191655871461021a5780633a98ef391461024d5780633f4ba83a1461027457806357d3c7c3146102895780635c975abb146102bc578063715018a6146102e55780637a9262a2146102fa5780638456cb591461032d5780638771eb35146103425780638b83209b146103575780638ccc7d011461039d5780638da5cb5b1461046c5780638f32d59b14610481578063966dae0e146104965780639852595c146104ab578063a3d89844146104de578063cc168b8a146104f3578063ce7c2ac2146105a6578063e33b7de3146105d9578063e919ecad146105ee578063f2fde38b14610603578063f8c2df0d14610636575b60055460a060020a900460ff161561018e576040805160e560020a62461bcd02815260206004820152601060248201527f5061757361626c653a2070617573656400000000000000000000000000000000604482015290519081900360640190fd5b005b34801561019c57600080fd5b506101a5610671565b6040805160208082528351818301528351919283929083019185019080838360005b838110156101df5781810151838201526020016101c7565b50505050905090810190601f16801561020c5780820380516001836020036101000a031916815260200191505b509250505060405180910390f35b34801561022657600080fd5b5061018e6004803603602081101561023d57600080fd5b5035600160a060020a03166106ff565b34801561025957600080fd5b50610262610a35565b60408051918252519081900360200190f35b34801561028057600080fd5b5061018e610a3c565b34801561029557600080fd5b50610262600480360360208110156102ac57600080fd5b5035600160a060020a0316610b3e565b3480156102c857600080fd5b506102d1610b59565b604080519115158252519081900360200190f35b3480156102f157600080fd5b5061018e610b69565b34801561030657600080fd5b506102626004803603602081101561031d57600080fd5b5035600160a060020a0316610c0c565b34801561033957600080fd5b5061018e610c27565b34801561034e57600080fd5b50610262610d2e565b34801561036357600080fd5b506103816004803603602081101561037a57600080fd5b5035610d34565b60408051600160a060020a039092168252519081900360200190f35b3480156103a957600080fd5b5061018e600480360360408110156103c057600080fd5b8101906020810181356401000000008111156103db57600080fd5b8201836020820111156103ed57600080fd5b8035906020019184602083028401116401000000008311171561040f57600080fd5b91939092909160208101903564010000000081111561042d57600080fd5b82018360208201111561043f57600080fd5b8035906020019184602083028401116401000000008311171561046157600080fd5b509092509050610d60565b34801561047857600080fd5b50610381610f55565b34801561048d57600080fd5b506102d1610f64565b3480156104a257600080fd5b50610381610f75565b3480156104b757600080fd5b50610262600480360360208110156104ce57600080fd5b5035600160a060020a0316610f84565b3480156104ea57600080fd5b50610262610f9f565b3480156104ff57600080fd5b5061018e6004803603602081101561051657600080fd5b81019060208101813564010000000081111561053157600080fd5b82018360208201111561054357600080fd5b8035906020019184600183028401116401000000008311171561056557600080fd5b91908080601f016020809104026020016040519081016040528093929190818152602001838380828437600092019190915250929550610fa5945050505050565b3480156105b257600080fd5b50610262600480360360208110156105c957600080fd5b5035600160a060020a03166110b5565b3480156105e557600080fd5b506102626110d0565b3480156105fa57600080fd5b506102626110d6565b34801561060f57600080fd5b5061018e6004803603602081101561062657600080fd5b5035600160a060020a03166110dc565b34801561064257600080fd5b5061018e6004803603604081101561065957600080fd5b50600160a060020a0381358116916020013516611134565b600a805460408051602060026001851615610100026000190190941693909304601f810184900484028201840190925281815292918301828280156106f75780601f106106cc576101008083540402835291602001916106f7565b820191906000526020600020905b8154815290600101906020018083116106da57829003601f168201915b505050505081565b600160a060020a038116600090815260026020526040812054118061073a5750600160a060020a038116600090815260086020526040812054115b1515610790576040805160e560020a62461bcd02815260206004820152601860248201527f4e6f207368617265732c20616e64206e6f20657363726f770000000000000000604482015290519081900360640190fd5b6007546001546000916107bb916107af9030319063ffffffff61142016565b9063ffffffff61148616565b600160a060020a0383166000908152600260205260408120549192509081101561087157600160a060020a0383166000908152600960209081526040808320548354600290935292205461082b92916107af9161081f90879063ffffffff6114e616565b9063ffffffff61158216565b600160a060020a038416600090815260096020526040902054909150610857908263ffffffff61142016565b600160a060020a0384166000908152600960205260409020555b600160a060020a038316600090815260086020526040812054111561090657600160a060020a0383166000908152600860205260409020546108ba90829063ffffffff61142016565b600160a060020a0384166000908152600860205260409020546006549192506108e9919063ffffffff61148616565b600655600160a060020a0383166000908152600860205260408120555b80151561095d576040805160e560020a62461bcd02815260206004820152601a60248201527f4163636f756e74206973206e6f7420647565207061796d656e74000000000000604482015290519081900360640190fd5b600160a060020a038316600090815260036020526040902054610986908263ffffffff61142016565b600160a060020a0384166000908152600360205260409020556001546109b2908263ffffffff61142016565b600155604051600160a060020a0384169082156108fc029083906000818181858888f193505050501580156109eb573d6000803e3d6000fd5b5060408051600160a060020a03851681526020810183905281517fdf20fd1e76bc69d672e4814fafb2c449bba3a5369d8359adf9e05e6fde87b056929181900390910190a1505050565b6000545b90565b610a44610f64565b1515610a88576040805160e560020a62461bcd0281526020600482018190526024820152600080516020611e45833981519152604482015290519081900360640190fd5b60055460a060020a900460ff161515610aeb576040805160e560020a62461bcd02815260206004820152601460248201527f5061757361626c653a206e6f7420706175736564000000000000000000000000604482015290519081900360640190fd5b6005805474ff0000000000000000000000000000000000000000191690556040805133815290517f5db9ee0a495bf2e6ff9c91a7834c1ba4fdd244a5e8aa4e537bd38aeae4b073aa9181900360200190a1565b600160a060020a031660009081526008602052604090205490565b60055460a060020a900460ff1690565b610b71610f64565b1515610bb5576040805160e560020a62461bcd0281526020600482018190526024820152600080516020611e45833981519152604482015290519081900360640190fd5b600554604051600091600160a060020a0316907f8be0079c531659141344cd1fd0a4f28419497f9722a3daafe3b4186f6b6457e0908390a36005805473ffffffffffffffffffffffffffffffffffffffff19169055565b600160a060020a031660009081526009602052604090205490565b610c2f610f64565b1515610c73576040805160e560020a62461bcd0281526020600482018190526024820152600080516020611e45833981519152604482015290519081900360640190fd5b60055460a060020a900460ff1615610cd5576040805160e560020a62461bcd02815260206004820152601060248201527f5061757361626c653a2070617573656400000000000000000000000000000000604482015290519081900360640190fd5b6005805474ff0000000000000000000000000000000000000000191660a060020a1790556040805133815290517f62e78cea01bee320cd4e420270b5ea74000d11b0c9f74754ebdbfc544b05a2589181900360200190a1565b60075490565b6000600482815481101515610d4557fe5b600091825260209091200154600160a060020a031692915050565b610d68610f64565b1515610dac576040805160e560020a62461bcd0281526020600482018190526024820152600080516020611e45833981519152604482015290519081900360640190fd5b828114610e03576040805160e560020a62461bcd02815260206004820152601e60248201527f5061796565732c20736861726573206c656e677468206d69736d617463680000604482015290519081900360640190fd5b60008311610e5b576040805160e560020a62461bcd02815260206004820152600960248201527f4e6f207061796565730000000000000000000000000000000000000000000000604482015290519081900360640190fd5b610e636115f1565b60005b83811015610eaf57610ea7858583818110610e7d57fe5b90506020020135600160a060020a03168484848181101515610e9b57fe5b90506020020135611881565b600101610e66565b50610eec848480806020026020016040519081016040528093929190818152602001838360200280828437600092019190915250611ab092505050565b7fc7b028f6b169e74091d3560d01b5a1f9601eeaf83bd43ed36e52437d8e4382b4848460405180806020018281038252848482818152602001925060200280828437600083820152604051601f909101601f19169092018290039550909350505050a150505050565b600554600160a060020a031690565b600554600160a060020a0316331490565b600b54600160a060020a031681565b600160a060020a031660009081526003602052604090205490565b60065490565b610fad610f64565b1515610ff1576040805160e560020a62461bcd0281526020600482018190526024820152600080516020611e45833981519152604482015290519081900360640190fd5b805161100490600a906020840190611d8c565b50604080516020808252600a8054600260001961010060018416150201909116049183018290527f72e439a2d2348e4711ee609edf6fcfd2a4ff52ad22d5fc9d05ec02b57e416255939092918291820190849080156110a45780601f10611079576101008083540402835291602001916110a4565b820191906000526020600020905b81548152906001019060200180831161108757829003601f168201915b50509250505060405180910390a150565b600160a060020a031660009081526002602052604090205490565b60015490565b60045490565b6110e4610f64565b1515611128576040805160e560020a62461bcd0281526020600482018190526024820152600080516020611e45833981519152604482015290519081900360640190fd5b61113181611c9d565b50565b61113c610f64565b1515611180576040805160e560020a62461bcd0281526020600482018190526024820152600080516020611e45833981519152604482015290519081900360640190fd5b600160a060020a03811615156111e0576040805160e560020a62461bcd02815260206004820152601a60248201527f4e6577206163636f756e742063616e6e6f74206265207a65726f000000000000604482015290519081900360640190fd5b600160a060020a038216600090815260026020526040812054118061121b5750600160a060020a038216600090815260086020526040812054115b1515611271576040805160e560020a62461bcd02815260206004820152601860248201527f4e6f207368617265732c20616e64206e6f20657363726f770000000000000000604482015290519081900360640190fd5b600160a060020a038281166000908152600360208181526040808420805460028452828620805460088652848820805460098852868a208054968b9055938a9055908990559188905560048054600181019091557f8a35acfbc15ff81a39ae7d344fd709f28e8600b4aa8c65c6b64bfe7fe36bd19b01805473ffffffffffffffffffffffffffffffffffffffff1916998b16998a17905597875294909352932054909392906113209085611420565b600160a060020a038616600090815260036020908152604080832093909355600290522054611355908463ffffffff61142016565b600160a060020a03861660009081526002602090815260408083209390935560089052205461138a908363ffffffff61142016565b600160a060020a0386166000908152600860209081526040808320939093556009905220546113bf908263ffffffff61142016565b600160a060020a03808716600081815260096020908152604091829020949094558051928a1683529282015281517f22eea99e9f771a7aa0fc86b8e63b40072c621b3da7e06116bc73a17a6a9b627f929181900390910190a1505050505050565b60008282018381101561147d576040805160e560020a62461bcd02815260206004820152601b60248201527f536166654d6174683a206164646974696f6e206f766572666c6f770000000000604482015290519081900360640190fd5b90505b92915050565b6000828211156114e0576040805160e560020a62461bcd02815260206004820152601e60248201527f536166654d6174683a207375627472616374696f6e206f766572666c6f770000604482015290519081900360640190fd5b50900390565b60008215156114f757506000611480565b82820282848281151561150657fe5b041461147d576040805160e560020a62461bcd02815260206004820152602160248201527f536166654d6174683a206d756c7469706c69636174696f6e206f766572666c6f60448201527f7700000000000000000000000000000000000000000000000000000000000000606482015290519081900360840190fd5b60008082116115db576040805160e560020a62461bcd02815260206004820152601a60248201527f536166654d6174683a206469766973696f6e206279207a65726f000000000000604482015290519081900360640190fd5b600082848115156115e857fe5b04949350505050565b600754600154600091829161161391906107af9030319063ffffffff61142016565b905060005b6004548110156117cb5760006116af6009600060048581548110151561163a57fe5b6000918252602080832090910154600160a060020a0316835282019290925260400181205481546004805492936107af9361081f92600292918a90811061167d57fe5b6000918252602080832090910154600160a060020a03168352820192909252604001902054889063ffffffff6114e616565b9050600081111561174d5761170281600860006004868154811015156116d157fe5b6000918252602080832090910154600160a060020a031683528201929092526040019020549063ffffffff61142016565b6008600060048581548110151561171557fe5b6000918252602080832090910154600160a060020a0316835282019290925260400190205561174a848263ffffffff61142016565b93505b60006002600060048581548110151561176257fe5b6000918252602080832090910154600160a060020a031683528201929092526040018120919091556004805460099183918690811061179d57fe5b6000918252602080832090910154600160a060020a0316835282019290925260400190205550600101611618565b5060068054830190556001546117e99030319063ffffffff61142016565b6007819055507f84f4dd9c634b94098ae910ceb9d67e720dceff0d9ac480543cd0621beefa708760046040518080602001828103825283818154815260200191508054801561186157602002820191906000526020600020905b8154600160a060020a03168152600190910190602001808311611843575b50509250505060405180910390a1600061187c600482611e0a565b505050565b600160a060020a0382161515611907576040805160e560020a62461bcd02815260206004820152602c60248201527f5061796d656e7453706c69747465723a206163636f756e74206973207468652060448201527f7a65726f20616464726573730000000000000000000000000000000000000000606482015290519081900360840190fd5b6000811161195f576040805160e560020a62461bcd02815260206004820152601d60248201527f5061796d656e7453706c69747465723a20736861726573206172652030000000604482015290519081900360640190fd5b600160a060020a038216600090815260026020526040902054156119f3576040805160e560020a62461bcd02815260206004820152602b60248201527f5061796d656e7453706c69747465723a206163636f756e7420616c726561647960448201527f2068617320736861726573000000000000000000000000000000000000000000606482015290519081900360840190fd5b60048054600181019091557f8a35acfbc15ff81a39ae7d344fd709f28e8600b4aa8c65c6b64bfe7fe36bd19b01805473ffffffffffffffffffffffffffffffffffffffff1916600160a060020a038416908117909155600090815260026020526040812082905554611a659082611420565b60005560408051600160a060020a03841681526020810183905281517f40c340f65e17194d14ddddb073d3c9f888e3cb52b5aae0c6c7706b4fbc905fac929181900390910190a15050565b600b5460408051306044820181905260248201928352845160648301528451600094606094600160a060020a0390911693879392829160840190602080870191028083838c5b83811015611b0e578181015183820152602001611af6565b50506040805193909501838103601f19018452855250506020810180517fc3dc47ec000000000000000000000000000000000000000000000000000000007bffffffffffffffffffffffffffffffffffffffffffffffffffffffff90911617815292518151919750955085945091925081905083835b60208310611ba35780518252601f199092019160209182019101611b84565b6001836020036101000a0380198251168184511680821785525050505050509050019150506000604051808303816000865af19150503d8060008114611c05576040519150601f19603f3d011682016040523d82523d6000602084013e611c0a565b606091505b50915091508115611c5957600b5460408051600160a060020a039092168252517fce255aea1c9d0ffc899ad635ba04330bd5dc6d0196d9c94ecbca8a78fa7ca6ca9181900360200190a161187c565b600b5460408051600160a060020a039092168252517f963bfa1b56ec34486f7dda320affea81d310180e595b97d57837fbe2b46f9acf9181900360200190a1505050565b600160a060020a0381161515611d23576040805160e560020a62461bcd02815260206004820152602660248201527f4f776e61626c653a206e6577206f776e657220697320746865207a65726f206160448201527f6464726573730000000000000000000000000000000000000000000000000000606482015290519081900360840190fd5b600554604051600160a060020a038084169216907f8be0079c531659141344cd1fd0a4f28419497f9722a3daafe3b4186f6b6457e090600090a36005805473ffffffffffffffffffffffffffffffffffffffff1916600160a060020a0392909216919091179055565b828054600181600116156101000203166002900490600052602060002090601f016020900481019282601f10611dcd57805160ff1916838001178555611dfa565b82800160010185558215611dfa579182015b82811115611dfa578251825591602001919060010190611ddf565b50611e06929150611e2a565b5090565b81548183558181111561187c5760008381526020902061187c9181019083015b610a3991905b80821115611e065760008155600101611e3056fe4f776e61626c653a2063616c6c6572206973206e6f7420746865206f776e6572a165627a7a723058200aca4fd48bf4939e4e2a41d23c1b92e174855a892cfd8afbfe9b8ea7d9fd724f0029a165627a7a72305820ea42dd0bf4706f2babd81eb497c14ee67ed9c40b031beacdf19fbab9cf2a03b50029",
  "source": "/**\r\n *@title GoodBoard.\r\n *@author Duncan Brain <duncan@brainenterprise.ca>\r\n *@version 0.5\r\n *@notice This is a multiple signature wallet committee that generates and controls payment splitter \"portfolios\". In this case\r\n * it is intended to build charity portfolios, but nothing prevents non-charities from using this as well.\r\n */\r\n\r\npragma solidity ^0.5.0;\r\n\r\nimport \"./CommitteeDAO.sol\";\r\nimport \"./Factory.sol\";\r\nimport \"./Portfolio.sol\";\r\n\r\ncontract GoodBoard is CommitteeDAO, Factory{\r\n\r\n    /*\r\n     *  Storage\r\n     */\r\n    address[] public Portfolios;\r\n    address public factoryAddress;\r\n\r\n    /*\r\n     *  Events\r\n     */\r\n    event BoardSubscriberAdded(address newBoardMember);\r\n    event BoardSubscriberNotAdded(address newBoardMember);\r\n\r\n    /*\r\n     * Public functions\r\n     */\r\n    constructor(address[] memory _owners, address _factoryAddress, string memory name) public\r\n        CommitteeDAO(_owners, name)\r\n    {\r\n        factoryAddress = _factoryAddress;\r\n    }\r\n\r\n    ///@dev Builds a payment splitter portfolio that can be reconstructed\r\n    ///@param payees would be an array of charities.\r\n    ///@param shares would be the shares per charity.\r\n    function build(address[] memory payees, uint256[] memory shares, string memory name)\r\n        public\r\n        onlyWallet\r\n    {\r\n            address newPortfolio = address(new Portfolio(payees, shares, factoryAddress, name));\r\n            Portfolios.push(newPortfolio);\r\n            register(newPortfolio);\r\n    }\r\n\r\n    ///@dev Overrides CommitteeDAO to update factory address Lookup\r\n    function addOwner(address owner)\r\n        public\r\n        onlyWallet\r\n        ownerDoesNotExist(owner)\r\n        notNull(owner)\r\n    {\r\n        isOwner[owner] = true;\r\n        owners.push(owner);\r\n        changeRequirement((owners.length/2) + 1);\r\n        emit OwnerAddition(owner);\r\n        updateFactorySubscribers(owner);\r\n    }\r\n\r\n    ///@dev Updates the UI lookup mapping using an external function call\r\n    ///@param owner is the added owner\r\n    function updateFactorySubscribers(address owner)\r\n        internal\r\n    {\r\n        (bool success, bytes memory returnData) = factoryAddress.call(abi.encodeWithSignature(\"internalSubscribe(address,address)\",owner,address(this)));\r\n        if (success){\r\n            emit BoardSubscriberAdded(owner);\r\n        }\r\n        else {\r\n            emit BoardSubscriberNotAdded(owner);\r\n        }\r\n    }\r\n\r\n    ///@dev returns amount of portfolios instantiated\r\n    ///@return amount of portfolios\r\n    function getPortfoliosLength()\r\n        public\r\n        view\r\n        returns(uint)\r\n    {\r\n        return Portfolios.length;\r\n    }\r\n}",
  "sourcePath": "C:\\Users\\Duncan\\Documents\\Projects\\SuperGood\\contracts\\GoodBoard.sol",
  "compiler": {
    "name": "solc",
    "version": "0.5.1+commit.c8a2cb62.Emscripten.clang"
  },
  "schemaVersion": "3.0.11",
  "updatedAt": "2019-08-01T08:38:51.896Z",
  "devdoc": {
    "methods": {
      "addOwner(address)": {
        "details": "Overrides CommitteeDAO to update factory address Lookup"
      },
      "build(address[],uint256[],string)": {
        "params": {
          "shares": "would be the shares per charity."
        }
      },
      "changeRequirement(uint256)": {
        "params": {
          "_required": "Number of required confirmations."
        }
      },
      "confirmTransaction(uint256)": {
        "params": {
          "transactionId": "Transaction ID."
        }
      },
      "executeTransaction(uint256)": {
        "params": {
          "transactionId": "Transaction ID."
        }
      },
      "getConfirmationCount(uint256)": {
        "return": "Number of confirmations."
      },
      "getConfirmations(uint256)": {
        "return": "Returns array of owner addresses."
      },
      "getInstantiationCount(address)": {
        "return": "Returns number of instantiations by creator."
      },
      "getPortfoliosLength()": {
        "return": "amount of portfolios"
      },
      "getTransactionCount(bool,bool)": {
        "details": "Overrides the MultiSigWallet struct transactions with motions"
      },
      "getTransactionIds(uint256,uint256,bool,bool)": {
        "details": "Overrides the MultiSigWallet struct transactions with motions"
      },
      "isConfirmed(uint256)": {
        "return": "Confirmation status."
      },
      "reName(string)": {
        "details": "Called by a owner to name."
      },
      "removeOwner(address)": {
        "details": "Overrides MultiSigWallet to keep transaction pass requirement to 50% + 1"
      },
      "replaceOwner(address,address)": {
        "params": {
          "newOwner": "Address of new owner."
        }
      },
      "revokeConfirmation(uint256)": {
        "params": {
          "transactionId": "Transaction ID."
        }
      },
      "submitTransaction(address,uint256,bytes,string)": {
        "return": "Returns transaction ID."
      }
    }
  },
  "userdoc": {
    "methods": {}
  }
}