{
  "contractName": "MultiSigWallet",
  "abi": [
    {
      "constant": true,
      "inputs": [
        {
          "name": "",
          "type": "uint256"
        }
      ],
      "name": "owners",
      "outputs": [
        {
          "name": "",
          "type": "address"
        }
      ],
      "payable": false,
      "stateMutability": "view",
      "type": "function"
    },
    {
      "constant": true,
      "inputs": [
        {
          "name": "",
          "type": "address"
        }
      ],
      "name": "isOwner",
      "outputs": [
        {
          "name": "",
          "type": "bool"
        }
      ],
      "payable": false,
      "stateMutability": "view",
      "type": "function"
    },
    {
      "constant": true,
      "inputs": [
        {
          "name": "",
          "type": "uint256"
        },
        {
          "name": "",
          "type": "address"
        }
      ],
      "name": "confirmations",
      "outputs": [
        {
          "name": "",
          "type": "bool"
        }
      ],
      "payable": false,
      "stateMutability": "view",
      "type": "function"
    },
    {
      "constant": true,
      "inputs": [
        {
          "name": "",
          "type": "uint256"
        }
      ],
      "name": "transactions",
      "outputs": [
        {
          "name": "destination",
          "type": "address"
        },
        {
          "name": "value",
          "type": "uint256"
        },
        {
          "name": "data",
          "type": "bytes"
        },
        {
          "name": "executed",
          "type": "bool"
        }
      ],
      "payable": false,
      "stateMutability": "view",
      "type": "function"
    },
    {
      "constant": true,
      "inputs": [],
      "name": "transactionCount",
      "outputs": [
        {
          "name": "",
          "type": "uint256"
        }
      ],
      "payable": false,
      "stateMutability": "view",
      "type": "function"
    },
    {
      "constant": true,
      "inputs": [],
      "name": "MAX_OWNER_COUNT",
      "outputs": [
        {
          "name": "",
          "type": "uint256"
        }
      ],
      "payable": false,
      "stateMutability": "view",
      "type": "function"
    },
    {
      "constant": true,
      "inputs": [],
      "name": "required",
      "outputs": [
        {
          "name": "",
          "type": "uint256"
        }
      ],
      "payable": false,
      "stateMutability": "view",
      "type": "function"
    },
    {
      "inputs": [
        {
          "name": "_owners",
          "type": "address[]"
        },
        {
          "name": "_required",
          "type": "uint256"
        }
      ],
      "payable": false,
      "stateMutability": "nonpayable",
      "type": "constructor"
    },
    {
      "payable": true,
      "stateMutability": "payable",
      "type": "fallback"
    },
    {
      "anonymous": false,
      "inputs": [
        {
          "indexed": true,
          "name": "sender",
          "type": "address"
        },
        {
          "indexed": true,
          "name": "transactionId",
          "type": "uint256"
        }
      ],
      "name": "Confirmation",
      "type": "event"
    },
    {
      "anonymous": false,
      "inputs": [
        {
          "indexed": true,
          "name": "sender",
          "type": "address"
        },
        {
          "indexed": true,
          "name": "transactionId",
          "type": "uint256"
        }
      ],
      "name": "Revocation",
      "type": "event"
    },
    {
      "anonymous": false,
      "inputs": [
        {
          "indexed": true,
          "name": "transactionId",
          "type": "uint256"
        }
      ],
      "name": "Submission",
      "type": "event"
    },
    {
      "anonymous": false,
      "inputs": [
        {
          "indexed": true,
          "name": "transactionId",
          "type": "uint256"
        }
      ],
      "name": "Execution",
      "type": "event"
    },
    {
      "anonymous": false,
      "inputs": [
        {
          "indexed": true,
          "name": "transactionId",
          "type": "uint256"
        }
      ],
      "name": "ExecutionFailure",
      "type": "event"
    },
    {
      "anonymous": false,
      "inputs": [
        {
          "indexed": true,
          "name": "sender",
          "type": "address"
        },
        {
          "indexed": false,
          "name": "value",
          "type": "uint256"
        }
      ],
      "name": "Deposit",
      "type": "event"
    },
    {
      "anonymous": false,
      "inputs": [
        {
          "indexed": true,
          "name": "owner",
          "type": "address"
        }
      ],
      "name": "OwnerAddition",
      "type": "event"
    },
    {
      "anonymous": false,
      "inputs": [
        {
          "indexed": true,
          "name": "owner",
          "type": "address"
        }
      ],
      "name": "OwnerRemoval",
      "type": "event"
    },
    {
      "anonymous": false,
      "inputs": [
        {
          "indexed": false,
          "name": "required",
          "type": "uint256"
        }
      ],
      "name": "RequirementChange",
      "type": "event"
    },
    {
      "constant": false,
      "inputs": [
        {
          "name": "owner",
          "type": "address"
        }
      ],
      "name": "addOwner",
      "outputs": [],
      "payable": false,
      "stateMutability": "nonpayable",
      "type": "function"
    },
    {
      "constant": false,
      "inputs": [
        {
          "name": "owner",
          "type": "address"
        }
      ],
      "name": "removeOwner",
      "outputs": [],
      "payable": false,
      "stateMutability": "nonpayable",
      "type": "function"
    },
    {
      "constant": false,
      "inputs": [
        {
          "name": "owner",
          "type": "address"
        },
        {
          "name": "newOwner",
          "type": "address"
        }
      ],
      "name": "replaceOwner",
      "outputs": [],
      "payable": false,
      "stateMutability": "nonpayable",
      "type": "function"
    },
    {
      "constant": false,
      "inputs": [
        {
          "name": "destination",
          "type": "address"
        },
        {
          "name": "value",
          "type": "uint256"
        },
        {
          "name": "data",
          "type": "bytes"
        }
      ],
      "name": "submitTransaction",
      "outputs": [
        {
          "name": "transactionId",
          "type": "uint256"
        }
      ],
      "payable": false,
      "stateMutability": "nonpayable",
      "type": "function"
    },
    {
      "constant": false,
      "inputs": [
        {
          "name": "transactionId",
          "type": "uint256"
        }
      ],
      "name": "confirmTransaction",
      "outputs": [],
      "payable": false,
      "stateMutability": "nonpayable",
      "type": "function"
    },
    {
      "constant": false,
      "inputs": [
        {
          "name": "transactionId",
          "type": "uint256"
        }
      ],
      "name": "revokeConfirmation",
      "outputs": [],
      "payable": false,
      "stateMutability": "nonpayable",
      "type": "function"
    },
    {
      "constant": false,
      "inputs": [
        {
          "name": "transactionId",
          "type": "uint256"
        }
      ],
      "name": "executeTransaction",
      "outputs": [],
      "payable": false,
      "stateMutability": "nonpayable",
      "type": "function"
    },
    {
      "constant": true,
      "inputs": [
        {
          "name": "transactionId",
          "type": "uint256"
        }
      ],
      "name": "isConfirmed",
      "outputs": [
        {
          "name": "",
          "type": "bool"
        }
      ],
      "payable": false,
      "stateMutability": "view",
      "type": "function"
    },
    {
      "constant": true,
      "inputs": [
        {
          "name": "transactionId",
          "type": "uint256"
        }
      ],
      "name": "getConfirmationCount",
      "outputs": [
        {
          "name": "count",
          "type": "uint256"
        }
      ],
      "payable": false,
      "stateMutability": "view",
      "type": "function"
    },
    {
      "constant": true,
      "inputs": [
        {
          "name": "pending",
          "type": "bool"
        },
        {
          "name": "executed",
          "type": "bool"
        }
      ],
      "name": "getTransactionCount",
      "outputs": [
        {
          "name": "count",
          "type": "uint256"
        }
      ],
      "payable": false,
      "stateMutability": "view",
      "type": "function"
    },
    {
      "constant": true,
      "inputs": [],
      "name": "getOwners",
      "outputs": [
        {
          "name": "",
          "type": "address[]"
        }
      ],
      "payable": false,
      "stateMutability": "view",
      "type": "function"
    },
    {
      "constant": true,
      "inputs": [
        {
          "name": "transactionId",
          "type": "uint256"
        }
      ],
      "name": "getConfirmations",
      "outputs": [
        {
          "name": "_confirmations",
          "type": "address[]"
        }
      ],
      "payable": false,
      "stateMutability": "view",
      "type": "function"
    },
    {
      "constant": true,
      "inputs": [
        {
          "name": "from",
          "type": "uint256"
        },
        {
          "name": "to",
          "type": "uint256"
        },
        {
          "name": "pending",
          "type": "bool"
        },
        {
          "name": "executed",
          "type": "bool"
        }
      ],
      "name": "getTransactionIds",
      "outputs": [
        {
          "name": "_transactionIds",
          "type": "uint256[]"
        }
      ],
      "payable": false,
      "stateMutability": "view",
      "type": "function"
    }
  ],
  "bytecode": "0x60806040523480156200001157600080fd5b506040516200185b3803806200185b833981018060405260408110156200003757600080fd5b8101908080516401000000008111156200005057600080fd5b820160208101848111156200006457600080fd5b81518560208202830111640100000000821117156200008257600080fd5b5050602090910151815191935091508160328211801590620000a45750818111155b8015620000b057508015155b8015620000bc57508115155b1515620000c857600080fd5b60005b84518110156200019b57600260008683815181101515620000e857fe5b6020908102909101810151600160a060020a031682528101919091526040016000205460ff161580156200013f575084516000908690839081106200012957fe5b90602001906020020151600160a060020a031614155b15156200014b57600080fd5b60016002600087848151811015156200016057fe5b602090810291909101810151600160a060020a03168252810191909152604001600020805460ff1916911515919091179055600101620000cb565b508351620001b1906003906020870190620001be565b5050506004555062000252565b82805482825590600052602060002090810192821562000216579160200282015b82811115620002165782518254600160a060020a031916600160a060020a03909116178255602090920191600190910190620001df565b506200022492915062000228565b5090565b6200024f91905b8082111562000224578054600160a060020a03191681556001016200022f565b90565b6115f980620002626000396000f3fe60806040526004361061010b577c01000000000000000000000000000000000000000000000000000000006000350463025e7c27811461014d578063173825d91461019357806320ea8d86146101c65780632f54bf6e146101f05780633411c81c1461023757806354741525146102705780637065cb48146102b6578063784547a7146102e95780638b51d13f146103135780639ace38c21461033d578063a0e67e2b1461040a578063a8abe69a1461046f578063b5dc40c3146104af578063b77bf600146104d9578063c01a8c84146104ee578063c642747414610518578063d74f8edd146105aa578063dc8452cd146105bf578063e20056e6146105d4578063ee22610b1461060f575b600034111561014b5760408051348152905133917fe1fffcc4923d04b559f4d29a8bfc6cda04eb5b0d3c460751c2402c5c5cc9109c919081900360200190a25b005b34801561015957600080fd5b506101776004803603602081101561017057600080fd5b5035610639565b60408051600160a060020a039092168252519081900360200190f35b34801561019f57600080fd5b5061014b600480360360208110156101b657600080fd5b5035600160a060020a0316610661565b3480156101d257600080fd5b5061014b600480360360208110156101e957600080fd5b50356107d1565b3480156101fc57600080fd5b506102236004803603602081101561021357600080fd5b5035600160a060020a031661088b565b604080519115158252519081900360200190f35b34801561024357600080fd5b506102236004803603604081101561025a57600080fd5b5080359060200135600160a060020a03166108a0565b34801561027c57600080fd5b506102a46004803603604081101561029357600080fd5b5080351515906020013515156108c0565b60408051918252519081900360200190f35b3480156102c257600080fd5b5061014b600480360360208110156102d957600080fd5b5035600160a060020a031661092c565b3480156102f557600080fd5b506102236004803603602081101561030c57600080fd5b5035610a51565b34801561031f57600080fd5b506102a46004803603602081101561033657600080fd5b5035610ad8565b34801561034957600080fd5b506103676004803603602081101561036057600080fd5b5035610b47565b6040518085600160a060020a0316600160a060020a031681526020018481526020018060200183151515158152602001828103825284818151815260200191508051906020019080838360005b838110156103cc5781810151838201526020016103b4565b50505050905090810190601f1680156103f95780820380516001836020036101000a031916815260200191505b509550505050505060405180910390f35b34801561041657600080fd5b5061041f610c05565b60408051602080825283518183015283519192839290830191858101910280838360005b8381101561045b578181015183820152602001610443565b505050509050019250505060405180910390f35b34801561047b57600080fd5b5061041f6004803603608081101561049257600080fd5b508035906020810135906040810135151590606001351515610c68565b3480156104bb57600080fd5b5061041f600480360360208110156104d257600080fd5b5035610d99565b3480156104e557600080fd5b506102a4610f0a565b3480156104fa57600080fd5b5061014b6004803603602081101561051157600080fd5b5035610f10565b34801561052457600080fd5b506102a46004803603606081101561053b57600080fd5b600160a060020a038235169160208101359181019060608101604082013564010000000081111561056b57600080fd5b82018360208201111561057d57600080fd5b8035906020019184600183028401116401000000008311171561059f57600080fd5b509092509050610fdb565b3480156105b657600080fd5b506102a4611031565b3480156105cb57600080fd5b506102a4611036565b3480156105e057600080fd5b5061014b600480360360408110156105f757600080fd5b50600160a060020a038135811691602001351661103c565b34801561061b57600080fd5b5061014b6004803603602081101561063257600080fd5b50356111bf565b600380548290811061064757fe5b600091825260209091200154600160a060020a0316905081565b33301461066d57600080fd5b600160a060020a038116600090815260026020526040902054819060ff16151561069657600080fd5b600160a060020a0382166000908152600260205260408120805460ff191690555b6003546000190181101561076c5782600160a060020a03166003828154811015156106de57fe5b600091825260209091200154600160a060020a031614156107645760038054600019810190811061070b57fe5b60009182526020909120015460038054600160a060020a03909216918390811061073157fe5b9060005260206000200160006101000a815481600160a060020a030219169083600160a060020a0316021790555061076c565b6001016106b7565b50600380546000190190610780908261150c565b506003546004541115610799576003546107999061137a565b604051600160a060020a038316907f8001553a916ef2f495d26a907cc54d96ed840d7bda71e73194bf5a9df7a76b9090600090a25050565b3360008181526002602052604090205460ff1615156107ef57600080fd5b60008281526001602090815260408083203380855292529091205483919060ff16151561081b57600080fd5b600084815260208190526040902060030154849060ff161561083c57600080fd5b6000858152600160209081526040808320338085529252808320805460ff191690555187927ff6a317157440607f36269043eb55f1287a5a19ba2216afeab88cd46cbcfb88e991a35050505050565b60026020526000908152604090205460ff1681565b600160209081526000928352604080842090915290825290205460ff1681565b6000805b600554811015610925578380156108ed575060008181526020819052604090206003015460ff16155b806109115750828015610911575060008181526020819052604090206003015460ff165b1561091d576001820191505b6001016108c4565b5092915050565b33301461093857600080fd5b600160a060020a038116600090815260026020526040902054819060ff161561096057600080fd5b81600160a060020a038116151561097657600080fd5b600380549050600101600454603282111580156109935750818111155b801561099e57508015155b80156109a957508115155b15156109b457600080fd5b600160a060020a038516600081815260026020526040808220805460ff1916600190811790915560038054918201815583527fc2575a0e9e593c00f959f8c92f12db2869c3395a3b0502d05e2516446f71f85b01805473ffffffffffffffffffffffffffffffffffffffff191684179055517ff39e6e1eb0edcf53c221607b54b00cd28f3196fed0a24994dc308b8f611b682d9190a25050505050565b600080805b600354811015610ad05760008481526001602052604081206003805491929184908110610a7f57fe5b6000918252602080832090910154600160a060020a0316835282019290925260400190205460ff1615610ab3576001820191505b600454821415610ac857600192505050610ad3565b600101610a56565b50505b919050565b6000805b600354811015610b415760008381526001602052604081206003805491929184908110610b0557fe5b6000918252602080832090910154600160a060020a0316835282019290925260400190205460ff1615610b39576001820191505b600101610adc565b50919050565b6000602081815291815260409081902080546001808301546002808501805487516101009582161595909502600019011691909104601f8101889004880284018801909652858352600160a060020a0390931695909491929190830182828015610bf25780601f10610bc757610100808354040283529160200191610bf2565b820191906000526020600020905b815481529060010190602001808311610bd557829003601f168201915b5050506003909301549192505060ff1684565b60606003805480602002602001604051908101604052809291908181526020018280548015610c5d57602002820191906000526020600020905b8154600160a060020a03168152600190910190602001808311610c3f575b505050505090505b90565b606080600554604051908082528060200260200182016040528015610c97578160200160208202803883390190505b5090506000805b600554811015610d1957858015610cc7575060008181526020819052604090206003015460ff16155b80610ceb5750848015610ceb575060008181526020819052604090206003015460ff165b15610d1157808383815181101515610cff57fe5b60209081029091010152600191909101905b600101610c9e565b878703604051908082528060200260200182016040528015610d45578160200160208202803883390190505b5093508790505b86811015610d8e578281815181101515610d6257fe5b9060200190602002015184898303815181101515610d7c57fe5b60209081029091010152600101610d4c565b505050949350505050565b606080600380549050604051908082528060200260200182016040528015610dcb578160200160208202803883390190505b5090506000805b600354811015610e835760008581526001602052604081206003805491929184908110610dfb57fe5b6000918252602080832090910154600160a060020a0316835282019290925260400190205460ff1615610e7b576003805482908110610e3657fe5b6000918252602090912001548351600160a060020a0390911690849084908110610e5c57fe5b600160a060020a03909216602092830290910190910152600191909101905b600101610dd2565b81604051908082528060200260200182016040528015610ead578160200160208202803883390190505b509350600090505b81811015610f02578281815181101515610ecb57fe5b906020019060200201518482815181101515610ee357fe5b600160a060020a03909216602092830290910190910152600101610eb5565b505050919050565b60055481565b3360008181526002602052604090205460ff161515610f2e57600080fd5b6000828152602081905260409020548290600160a060020a03161515610f5357600080fd5b60008381526001602090815260408083203380855292529091205484919060ff1615610f7e57600080fd5b6000858152600160208181526040808420338086529252808420805460ff1916909317909255905187927f4a504a94899432a9846e1aa406dceb1bcfd538bb839071d49d1e5e23f5be30ef91a3610fd4856111bf565b5050505050565b600061101e858585858080601f0160208091040260200160405190810160405280939291908181526020018383808284376000920191909152506113f992505050565b905061102981610f10565b949350505050565b603281565b60045481565b33301461104857600080fd5b600160a060020a038216600090815260026020526040902054829060ff16151561107157600080fd5b600160a060020a038216600090815260026020526040902054829060ff161561109957600080fd5b60005b6003548110156111255784600160a060020a03166003828154811015156110bf57fe5b600091825260209091200154600160a060020a0316141561111d57836003828154811015156110ea57fe5b9060005260206000200160006101000a815481600160a060020a030219169083600160a060020a03160217905550611125565b60010161109c565b50600160a060020a03808516600081815260026020526040808220805460ff1990811690915593871682528082208054909416600117909355915190917f8001553a916ef2f495d26a907cc54d96ed840d7bda71e73194bf5a9df7a76b9091a2604051600160a060020a038416907ff39e6e1eb0edcf53c221607b54b00cd28f3196fed0a24994dc308b8f611b682d90600090a250505050565b3360008181526002602052604090205460ff1615156111dd57600080fd5b60008281526001602090815260408083203380855292529091205483919060ff16151561120957600080fd5b600084815260208190526040902060030154849060ff161561122a57600080fd5b61123385610a51565b15610fd4576000858152602081815260409182902060038101805460ff19166001908117909155815481830154600280850180548851601f60001997831615610100029790970190911692909204948501879004870282018701909752838152939561130595600160a060020a039093169491939283908301828280156112fb5780601f106112d0576101008083540402835291602001916112fb565b820191906000526020600020905b8154815290600101906020018083116112de57829003601f168201915b50505050506114e9565b1561133a5760405186907f33e13ecb54c3076d8e8bb8c2881800a4d972b792045ffae98fdf46df365fed7590600090a2611372565b60405186907f526441bb6c1aba3c9a4a6ca1d6545da9c2333c8c48343ef398eb858d72b7923690600090a260038101805460ff191690555b505050505050565b33301461138657600080fd5b600354816032821180159061139b5750818111155b80156113a657508015155b80156113b157508115155b15156113bc57600080fd5b60048390556040805184815290517fa3f1ee9126a074d9326c682f561767f710e927faa811f7a99829d49dc421797a9181900360200190a1505050565b600083600160a060020a038116151561141157600080fd5b60055460408051608081018252600160a060020a0388811682526020808301898152838501898152600060608601819052878152808452959095208451815473ffffffffffffffffffffffffffffffffffffffff191694169390931783555160018301559251805194965091939092611491926002850192910190611535565b50606091909101516003909101805460ff191691151591909117905560058054600101905560405182907fc0ba8fe4b176c1714197d43b9cc6bcf797a4a7461c5fe8d0ef6e184ae7601e5190600090a2509392505050565b6000806040516020840160008287838a8c6187965a03f198975050505050505050565b815481835581811115611530576000838152602090206115309181019083016115b3565b505050565b828054600181600116156101000203166002900490600052602060002090601f016020900481019282601f1061157657805160ff19168380011785556115a3565b828001600101855582156115a3579182015b828111156115a3578251825591602001919060010190611588565b506115af9291506115b3565b5090565b610c6591905b808211156115af57600081556001016115b956fea165627a7a723058208699b4b67cf015fd6b2efcd9b069613c94a15759ec6874617cfe4d59f00eb1ff0029",
  "source": "/**\r\n *@title MultiSigWallet - Allows multiple parties to agree on transactions before execution.\r\n *@author Stefan George - <stefan.george@consensys.net>\r\n *July 28 2019: https://github.com/gnosis/MultiSigWallet/blob/master/contracts/MultiSigWallet.sol\r\n *@notice Edited from original by author to updated pragma 0.5.0, MultiSigWallet => constructor, changed functions\r\n *from public onlyWallet to internal onlyWallet to reduce bytecode, +emit events,\r\n *constant => view, + memory to function arguments, +{} around if, for statements, address(0), and style re-formatting.\r\n *This contract is a multi signature wallet that is capable of storing, voting on and executing transactions.\r\n */\r\n\r\npragma solidity ^0.5.0;\r\n\r\ncontract MultiSigWallet {\r\n\r\n    /*\r\n     *  Constants\r\n     */\r\n    uint constant public MAX_OWNER_COUNT = 50;\r\n\r\n    /*\r\n     *  Storage\r\n     */\r\n    mapping (uint => Transaction) public transactions;\r\n    mapping (uint => mapping (address => bool)) public confirmations;\r\n    mapping (address => bool) public isOwner;\r\n    address[] public owners;\r\n    uint public required;\r\n    uint public transactionCount;\r\n\r\n    struct Transaction {\r\n        address destination;\r\n        uint value;\r\n        bytes data;\r\n        bool executed;\r\n    }\r\n\r\n    /*\r\n     *  Events\r\n     */\r\n    event Confirmation(address indexed sender, uint indexed transactionId);\r\n    event Revocation(address indexed sender, uint indexed transactionId);\r\n    event Submission(uint indexed transactionId);\r\n    event Execution(uint indexed transactionId);\r\n    event ExecutionFailure(uint indexed transactionId);\r\n    event Deposit(address indexed sender, uint value);\r\n    event OwnerAddition(address indexed owner);\r\n    event OwnerRemoval(address indexed owner);\r\n    event RequirementChange(uint required);\r\n\r\n    /*\r\n     *  Modifiers\r\n     */\r\n    modifier onlyWallet() {\r\n        require(msg.sender == address(this));\r\n        _;\r\n    }\r\n\r\n    modifier ownerDoesNotExist(address owner) {\r\n        require(!isOwner[owner]);\r\n        _;\r\n    }\r\n\r\n    modifier ownerExists(address owner) {\r\n        require(isOwner[owner]);\r\n        _;\r\n    }\r\n\r\n    modifier transactionExists(uint transactionId) {\r\n        require(transactions[transactionId].destination != address(0));\r\n        _;\r\n    }\r\n\r\n    modifier confirmed(uint transactionId, address owner) {\r\n        require(confirmations[transactionId][owner]);\r\n        _;\r\n    }\r\n\r\n    modifier notConfirmed(uint transactionId, address owner) {\r\n        require(!confirmations[transactionId][owner]);\r\n        _;\r\n    }\r\n\r\n    modifier notExecuted(uint transactionId) {\r\n        require(!transactions[transactionId].executed);\r\n        _;\r\n    }\r\n\r\n    modifier notNull(address _address) {\r\n        require(_address != address(0));\r\n        _;\r\n    }\r\n\r\n    modifier validRequirement(uint ownerCount, uint _required) {\r\n        require(ownerCount <= MAX_OWNER_COUNT\r\n        && _required <= ownerCount\r\n        && _required != 0\r\n        && ownerCount != 0);\r\n        _;\r\n    }\r\n\r\n    /*\r\n     *  Fallback Function\r\n     */\r\n    /// @dev Emits event when deposit is made.\r\n    function() external payable {\r\n        if (msg.value > 0){\r\n            emit Deposit(msg.sender, msg.value);\r\n        }\r\n    }\r\n\r\n    /*\r\n     * Public functions\r\n     */\r\n    /// @dev Contract constructor sets initial owners and required number of confirmations.\r\n    /// @param _owners List of initial owners.\r\n    /// @param _required Number of required confirmations.\r\n    constructor(address[] memory _owners, uint _required)\r\n        public\r\n        validRequirement(_owners.length, _required)\r\n    {\r\n        for (uint i = 0; i < _owners.length; i++) {\r\n            require(!isOwner[_owners[i]] && _owners[i] != address(0));\r\n            isOwner[_owners[i]] = true;\r\n        }\r\n        owners = _owners;\r\n        required = _required;\r\n    }\r\n\r\n    /// @dev Allows to add a new owner. Transaction has to be sent by wallet.\r\n    /// @param owner Address of new owner.\r\n    function addOwner(address owner)\r\n        public\r\n        onlyWallet\r\n        ownerDoesNotExist(owner)\r\n        notNull(owner)\r\n        validRequirement(owners.length + 1, required)\r\n    {\r\n        isOwner[owner] = true;\r\n        owners.push(owner);\r\n        emit OwnerAddition(owner);\r\n    }\r\n\r\n    /// @dev Allows to remove an owner. Transaction has to be sent by wallet.\r\n    /// @param owner Address of owner.\r\n    function removeOwner(address owner)\r\n        public\r\n        onlyWallet\r\n        ownerExists(owner)\r\n    {\r\n        isOwner[owner] = false;\r\n        for (uint i = 0; i < owners.length - 1; i++){\r\n            if (owners[i] == owner) {\r\n                owners[i] = owners[owners.length - 1];\r\n                break;\r\n            }\r\n        }\r\n        owners.length -= 1;\r\n        if (required > owners.length){\r\n            changeRequirement(owners.length);\r\n        }\r\n        emit OwnerRemoval(owner);\r\n    }\r\n\r\n    /// @dev Allows to replace an owner with a new owner. Transaction has to be sent by wallet.\r\n    /// @param owner Address of owner to be replaced.\r\n    /// @param newOwner Address of new owner.\r\n    function replaceOwner(address owner, address newOwner)\r\n        public\r\n        onlyWallet\r\n        ownerExists(owner)\r\n        ownerDoesNotExist(newOwner)\r\n    {\r\n        for (uint i = 0; i < owners.length; i++){\r\n            if (owners[i] == owner) {\r\n                owners[i] = newOwner;\r\n                break;\r\n            }\r\n        }\r\n        isOwner[owner] = false;\r\n        isOwner[newOwner] = true;\r\n        emit OwnerRemoval(owner);\r\n        emit OwnerAddition(newOwner);\r\n    }\r\n\r\n    /// @dev Allows to change the number of required confirmations. Transaction has to be sent by wallet.\r\n    /// @param _required Number of required confirmations.\r\n    function changeRequirement(uint _required)\r\n        internal\r\n        onlyWallet\r\n        validRequirement(owners.length, _required)\r\n    {\r\n        required = _required;\r\n        emit RequirementChange(_required);\r\n    }\r\n\r\n    /// @dev Allows an owner to submit and confirm a transaction.\r\n    /// @param destination Transaction target address.\r\n    /// @param value Transaction ether value.\r\n    /// @param data Transaction data payload.\r\n    /// @return Returns transaction ID.\r\n    function submitTransaction(address destination, uint value, bytes calldata data)\r\n        external\r\n        returns (uint transactionId)\r\n    {\r\n        transactionId = addTransaction(destination, value, data);\r\n        confirmTransaction(transactionId);\r\n    }\r\n\r\n    /// @dev Allows an owner to confirm a transaction.\r\n    /// @param transactionId Transaction ID.\r\n    function confirmTransaction(uint transactionId)\r\n        public\r\n        ownerExists(msg.sender)\r\n        transactionExists(transactionId)\r\n        notConfirmed(transactionId, msg.sender)\r\n    {\r\n        confirmations[transactionId][msg.sender] = true;\r\n        emit Confirmation(msg.sender, transactionId);\r\n        executeTransaction(transactionId);\r\n    }\r\n\r\n    /// @dev Allows an owner to revoke a confirmation for a transaction.\r\n    /// @param transactionId Transaction ID.\r\n    function revokeConfirmation(uint transactionId)\r\n        public\r\n        ownerExists(msg.sender)\r\n        confirmed(transactionId, msg.sender)\r\n        notExecuted(transactionId)\r\n    {\r\n        confirmations[transactionId][msg.sender] = false;\r\n        emit Revocation(msg.sender, transactionId);\r\n    }\r\n\r\n    /// @dev Allows anyone to execute a confirmed transaction.\r\n    /// @param transactionId Transaction ID.\r\n    function executeTransaction(uint transactionId)\r\n        public\r\n        ownerExists(msg.sender)\r\n        confirmed(transactionId, msg.sender)\r\n        notExecuted(transactionId)\r\n    {\r\n        if (isConfirmed(transactionId)) {\r\n            Transaction storage txn = transactions[transactionId];\r\n            txn.executed = true;\r\n            if (external_call(txn.destination, txn.value, txn.data.length, txn.data)){\r\n                emit Execution(transactionId);\r\n            }\r\n            else {\r\n                emit ExecutionFailure(transactionId);\r\n                txn.executed = false;\r\n            }\r\n        }\r\n    }\r\n\r\n    /// @dev Returns the confirmation status of a transaction.\r\n    /// @param transactionId Transaction ID.\r\n    /// @return Confirmation status.\r\n    function isConfirmed(uint transactionId)\r\n        public\r\n        view\r\n        returns (bool)\r\n    {\r\n        uint count = 0;\r\n        for (uint i = 0; i < owners.length; i++) {\r\n            if (confirmations[transactionId][owners[i]]){\r\n                count += 1;\r\n            }\r\n            if (count == required){\r\n                return true;\r\n            }\r\n        }\r\n    }\r\n\r\n    /*\r\n     * Internal functions\r\n     */\r\n    ///@dev call has been separated into its own function in order to take advantage of the Solidity's code generator\r\n    ///to produce a loop that copies tx.data into memory.\r\n    ///@param destination Address of transaction.\r\n    ///@param value Ether attached to transaction.\r\n    ///@param dataLength Length of parameter data.\r\n    ///@param data Encoded transaction data.\r\n    ///@return bool Success or failure of transaction\r\n    function external_call(address destination, uint value, uint dataLength, bytes memory data)\r\n        internal\r\n        returns(bool)\r\n    {\r\n        bool result;\r\n        assembly {\r\n            let x := mload(0x40)   // \"Allocate\" memory for output (0x40 is where \"free memory\" pointer is stored by convention)\r\n            let d := add(data, 32) // First 32 bytes are the padded length of data, so exclude that\r\n            result := call(\r\n                sub(gas, 34710),   // 34710 is the value that solidity is currently emitting\r\n                // It includes callGas (700) + callVeryLow (3, to pay for SUB) + callValueTransferGas (9000) +\r\n                // callNewAccountGas (25000, in case the destination address does not exist and needs creating)\r\n                destination,\r\n                value,\r\n                d,\r\n                dataLength,        // Size of the input (in bytes) - this is what fixes the padding problem\r\n                x,\r\n                0                  // Output is ignored, therefore the output size is zero\r\n            )\r\n        }\r\n        return result;\r\n    }\r\n\r\n    /// @dev Adds a new transaction to the transaction mapping, if transaction does not exist yet.\r\n    /// @param destination Transaction target address.\r\n    /// @param value Transaction ether value.\r\n    /// @param data Transaction data payload.\r\n    /// @return Returns transaction ID.\r\n    function addTransaction(address destination, uint value, bytes memory data)\r\n        internal\r\n        notNull(destination)\r\n        returns (uint transactionId)\r\n    {\r\n        transactionId = transactionCount;\r\n        transactions[transactionId] = Transaction({\r\n            destination: destination,\r\n            value: value,\r\n            data: data,\r\n            executed: false\r\n        });\r\n        transactionCount += 1;\r\n        emit Submission(transactionId);\r\n    }\r\n\r\n    /*\r\n     * Getter functions\r\n     */\r\n    /// @dev Returns number of confirmations of a transaction.\r\n    /// @param transactionId Transaction ID.\r\n    /// @return Number of confirmations.\r\n    function getConfirmationCount(uint transactionId)\r\n        public\r\n        view\r\n        returns (uint count)\r\n    {\r\n        for (uint i = 0; i < owners.length; i++){\r\n            if (confirmations[transactionId][owners[i]]){\r\n                count += 1;\r\n            }\r\n        }\r\n    }\r\n\r\n    /// @dev Returns total number of transactions after filers are applied.\r\n    /// @param pending Include pending transactions.\r\n    /// @param executed Include executed transactions.\r\n    /// @return Total number of transactions after filters are applied.\r\n    function getTransactionCount(bool pending, bool executed)\r\n        public\r\n        view\r\n        returns (uint count)\r\n    {\r\n        for (uint i = 0; i < transactionCount; i++){\r\n            if (pending && !transactions[i].executed || executed && transactions[i].executed){\r\n                count += 1;\r\n            }\r\n        }\r\n    }\r\n\r\n    /// @dev Returns list of owners.\r\n    /// @return List of owner addresses.\r\n    function getOwners()\r\n        public\r\n        view\r\n        returns (address[] memory)\r\n    {\r\n        return owners;\r\n    }\r\n\r\n    /// @dev Returns array with owner addresses, which confirmed transaction.\r\n    /// @param transactionId Transaction ID.\r\n    /// @return Returns array of owner addresses.\r\n    function getConfirmations(uint transactionId)\r\n        public\r\n        view\r\n        returns (address[] memory _confirmations)\r\n    {\r\n        address[] memory confirmationsTemp = new address[](owners.length);\r\n        uint count = 0;\r\n        uint i;\r\n        for (i = 0; i < owners.length; i++){\r\n            if (confirmations[transactionId][owners[i]]) {\r\n                confirmationsTemp[count] = owners[i];\r\n                count += 1;\r\n            }\r\n        }\r\n        _confirmations = new address[](count);\r\n        for (i = 0; i < count; i++){\r\n            _confirmations[i] = confirmationsTemp[i];\r\n        }\r\n    }\r\n\r\n    /// @dev Returns list of transaction IDs in defined range.\r\n    /// @param from Index start position of transaction array.\r\n    /// @param to Index end position of transaction array.\r\n    /// @param pending Include pending transactions.\r\n    /// @param executed Include executed transactions.\r\n    /// @return Returns array of transaction IDs.\r\n    function getTransactionIds(uint from, uint to, bool pending, bool executed)\r\n        public\r\n        view\r\n        returns (uint[] memory _transactionIds)\r\n    {\r\n        uint[] memory transactionIdsTemp = new uint[](transactionCount);\r\n        uint count = 0;\r\n        uint i;\r\n        for (i = 0; i < transactionCount; i++){\r\n            if (pending && !transactions[i].executed || executed && transactions[i].executed) {\r\n                transactionIdsTemp[count] = i;\r\n                count += 1;\r\n            }\r\n        }\r\n        _transactionIds = new uint[](to - from);\r\n        for (i = from; i < to; i++){\r\n            _transactionIds[i - from] = transactionIdsTemp[i];\r\n        }\r\n    }\r\n}",
  "sourcePath": "C:\\Users\\Duncan\\Documents\\Projects\\SuperGood\\contracts\\MultiSigWallet.sol",
  "compiler": {
    "name": "solc",
    "version": "0.5.1+commit.c8a2cb62.Emscripten.clang"
  },
  "schemaVersion": "3.0.11",
  "updatedAt": "2019-08-01T04:53:30.181Z",
  "devdoc": {
    "methods": {
      "addOwner(address)": {
        "params": {
          "owner": "Address of new owner."
        }
      },
      "confirmTransaction(uint256)": {
        "params": {
          "transactionId": "Transaction ID."
        }
      },
      "constructor": {
        "params": {
          "_required": "Number of required confirmations."
        }
      },
      "executeTransaction(uint256)": {
        "params": {
          "transactionId": "Transaction ID."
        }
      },
      "getConfirmationCount(uint256)": {
        "return": "Number of confirmations."
      },
      "getConfirmations(uint256)": {
        "return": "Returns array of owner addresses."
      },
      "getOwners()": {
        "return": "List of owner addresses."
      },
      "getTransactionCount(bool,bool)": {
        "return": "Total number of transactions after filters are applied."
      },
      "getTransactionIds(uint256,uint256,bool,bool)": {
        "return": "Returns array of transaction IDs."
      },
      "isConfirmed(uint256)": {
        "return": "Confirmation status."
      },
      "removeOwner(address)": {
        "params": {
          "owner": "Address of owner."
        }
      },
      "replaceOwner(address,address)": {
        "params": {
          "newOwner": "Address of new owner."
        }
      },
      "revokeConfirmation(uint256)": {
        "params": {
          "transactionId": "Transaction ID."
        }
      },
      "submitTransaction(address,uint256,bytes)": {
        "return": "Returns transaction ID."
      }
    }
  },
  "userdoc": {
    "methods": {}
  }
}