{
  "contractName": "Portfolio",
  "abi": [
    {
      "constant": true,
      "inputs": [],
      "name": "name",
      "outputs": [
        {
          "name": "",
          "type": "string"
        }
      ],
      "payable": false,
      "stateMutability": "view",
      "type": "function"
    },
    {
      "constant": false,
      "inputs": [
        {
          "name": "account",
          "type": "address"
        }
      ],
      "name": "release",
      "outputs": [],
      "payable": false,
      "stateMutability": "nonpayable",
      "type": "function"
    },
    {
      "constant": true,
      "inputs": [],
      "name": "totalShares",
      "outputs": [
        {
          "name": "",
          "type": "uint256"
        }
      ],
      "payable": false,
      "stateMutability": "view",
      "type": "function"
    },
    {
      "constant": false,
      "inputs": [],
      "name": "unpause",
      "outputs": [],
      "payable": false,
      "stateMutability": "nonpayable",
      "type": "function"
    },
    {
      "constant": true,
      "inputs": [
        {
          "name": "account",
          "type": "address"
        }
      ],
      "name": "escrow",
      "outputs": [
        {
          "name": "",
          "type": "uint256"
        }
      ],
      "payable": false,
      "stateMutability": "view",
      "type": "function"
    },
    {
      "constant": true,
      "inputs": [],
      "name": "paused",
      "outputs": [
        {
          "name": "",
          "type": "bool"
        }
      ],
      "payable": false,
      "stateMutability": "view",
      "type": "function"
    },
    {
      "constant": false,
      "inputs": [],
      "name": "renounceOwnership",
      "outputs": [],
      "payable": false,
      "stateMutability": "nonpayable",
      "type": "function"
    },
    {
      "constant": true,
      "inputs": [
        {
          "name": "account",
          "type": "address"
        }
      ],
      "name": "withdrawals",
      "outputs": [
        {
          "name": "",
          "type": "uint256"
        }
      ],
      "payable": false,
      "stateMutability": "view",
      "type": "function"
    },
    {
      "constant": false,
      "inputs": [],
      "name": "pause",
      "outputs": [],
      "payable": false,
      "stateMutability": "nonpayable",
      "type": "function"
    },
    {
      "constant": true,
      "inputs": [],
      "name": "previousTotalReceived",
      "outputs": [
        {
          "name": "",
          "type": "uint256"
        }
      ],
      "payable": false,
      "stateMutability": "view",
      "type": "function"
    },
    {
      "constant": true,
      "inputs": [
        {
          "name": "index",
          "type": "uint256"
        }
      ],
      "name": "payee",
      "outputs": [
        {
          "name": "",
          "type": "address"
        }
      ],
      "payable": false,
      "stateMutability": "view",
      "type": "function"
    },
    {
      "constant": true,
      "inputs": [],
      "name": "owner",
      "outputs": [
        {
          "name": "",
          "type": "address"
        }
      ],
      "payable": false,
      "stateMutability": "view",
      "type": "function"
    },
    {
      "constant": true,
      "inputs": [],
      "name": "isOwner",
      "outputs": [
        {
          "name": "",
          "type": "bool"
        }
      ],
      "payable": false,
      "stateMutability": "view",
      "type": "function"
    },
    {
      "constant": true,
      "inputs": [],
      "name": "factoryAddress",
      "outputs": [
        {
          "name": "",
          "type": "address"
        }
      ],
      "payable": false,
      "stateMutability": "view",
      "type": "function"
    },
    {
      "constant": true,
      "inputs": [
        {
          "name": "account",
          "type": "address"
        }
      ],
      "name": "released",
      "outputs": [
        {
          "name": "",
          "type": "uint256"
        }
      ],
      "payable": false,
      "stateMutability": "view",
      "type": "function"
    },
    {
      "constant": true,
      "inputs": [],
      "name": "totalEscrow",
      "outputs": [
        {
          "name": "",
          "type": "uint256"
        }
      ],
      "payable": false,
      "stateMutability": "view",
      "type": "function"
    },
    {
      "constant": true,
      "inputs": [
        {
          "name": "account",
          "type": "address"
        }
      ],
      "name": "shares",
      "outputs": [
        {
          "name": "",
          "type": "uint256"
        }
      ],
      "payable": false,
      "stateMutability": "view",
      "type": "function"
    },
    {
      "constant": true,
      "inputs": [],
      "name": "totalReleased",
      "outputs": [
        {
          "name": "",
          "type": "uint256"
        }
      ],
      "payable": false,
      "stateMutability": "view",
      "type": "function"
    },
    {
      "constant": true,
      "inputs": [],
      "name": "payeesLength",
      "outputs": [
        {
          "name": "",
          "type": "uint256"
        }
      ],
      "payable": false,
      "stateMutability": "view",
      "type": "function"
    },
    {
      "constant": false,
      "inputs": [
        {
          "name": "newOwner",
          "type": "address"
        }
      ],
      "name": "transferOwnership",
      "outputs": [],
      "payable": false,
      "stateMutability": "nonpayable",
      "type": "function"
    },
    {
      "constant": false,
      "inputs": [
        {
          "name": "account",
          "type": "address"
        },
        {
          "name": "newAccount",
          "type": "address"
        }
      ],
      "name": "migratePayee",
      "outputs": [],
      "payable": false,
      "stateMutability": "nonpayable",
      "type": "function"
    },
    {
      "inputs": [
        {
          "name": "payees",
          "type": "address[]"
        },
        {
          "name": "shares",
          "type": "uint256[]"
        },
        {
          "name": "_factoryAddress",
          "type": "address"
        },
        {
          "name": "name",
          "type": "string"
        }
      ],
      "payable": true,
      "stateMutability": "payable",
      "type": "constructor"
    },
    {
      "payable": true,
      "stateMutability": "payable",
      "type": "fallback"
    },
    {
      "anonymous": false,
      "inputs": [
        {
          "indexed": false,
          "name": "factory",
          "type": "address"
        }
      ],
      "name": "CharityLookupAdded",
      "type": "event"
    },
    {
      "anonymous": false,
      "inputs": [
        {
          "indexed": false,
          "name": "factory",
          "type": "address"
        }
      ],
      "name": "CharityLookupNotAdded",
      "type": "event"
    },
    {
      "anonymous": false,
      "inputs": [
        {
          "indexed": false,
          "name": "name",
          "type": "string"
        }
      ],
      "name": "Renamed",
      "type": "event"
    },
    {
      "anonymous": false,
      "inputs": [
        {
          "indexed": false,
          "name": "from",
          "type": "address"
        },
        {
          "indexed": false,
          "name": "to",
          "type": "address"
        }
      ],
      "name": "PayeeMigrated",
      "type": "event"
    },
    {
      "anonymous": false,
      "inputs": [
        {
          "indexed": false,
          "name": "payees",
          "type": "address[]"
        }
      ],
      "name": "LogEscrow",
      "type": "event"
    },
    {
      "anonymous": false,
      "inputs": [
        {
          "indexed": false,
          "name": "payees",
          "type": "address[]"
        }
      ],
      "name": "LogReconstruction",
      "type": "event"
    },
    {
      "anonymous": false,
      "inputs": [
        {
          "indexed": false,
          "name": "account",
          "type": "address"
        }
      ],
      "name": "Paused",
      "type": "event"
    },
    {
      "anonymous": false,
      "inputs": [
        {
          "indexed": false,
          "name": "account",
          "type": "address"
        }
      ],
      "name": "Unpaused",
      "type": "event"
    },
    {
      "anonymous": false,
      "inputs": [
        {
          "indexed": true,
          "name": "previousOwner",
          "type": "address"
        },
        {
          "indexed": true,
          "name": "newOwner",
          "type": "address"
        }
      ],
      "name": "OwnershipTransferred",
      "type": "event"
    },
    {
      "anonymous": false,
      "inputs": [
        {
          "indexed": false,
          "name": "account",
          "type": "address"
        },
        {
          "indexed": false,
          "name": "shares",
          "type": "uint256"
        }
      ],
      "name": "PayeeAdded",
      "type": "event"
    },
    {
      "anonymous": false,
      "inputs": [
        {
          "indexed": false,
          "name": "to",
          "type": "address"
        },
        {
          "indexed": false,
          "name": "amount",
          "type": "uint256"
        }
      ],
      "name": "PaymentReleased",
      "type": "event"
    },
    {
      "anonymous": false,
      "inputs": [
        {
          "indexed": false,
          "name": "from",
          "type": "address"
        },
        {
          "indexed": false,
          "name": "amount",
          "type": "uint256"
        }
      ],
      "name": "PaymentReceived",
      "type": "event"
    },
    {
      "constant": false,
      "inputs": [
        {
          "name": "_name",
          "type": "string"
        }
      ],
      "name": "reName",
      "outputs": [],
      "payable": false,
      "stateMutability": "nonpayable",
      "type": "function"
    },
    {
      "constant": false,
      "inputs": [
        {
          "name": "payees",
          "type": "address[]"
        },
        {
          "name": "shares",
          "type": "uint256[]"
        }
      ],
      "name": "reconstructor",
      "outputs": [],
      "payable": false,
      "stateMutability": "nonpayable",
      "type": "function"
    }
  ],
  "bytecode": "0x60806040526040516200275d3803806200275d833981018060405260808110156200002957600080fd5b8101908080516401000000008111156200004257600080fd5b820160208101848111156200005657600080fd5b81518560208202830111640100000000821117156200007457600080fd5b505092919060200180516401000000008111156200009157600080fd5b82016020810184811115620000a557600080fd5b8151856020820283011164010000000082111715620000c357600080fd5b50506020820151604090920180519194929391640100000000811115620000e957600080fd5b82016020810184811115620000fd57600080fd5b81516401000000008111828201871017156200011857600080fd5b5050929190505050808484818180518251141515620001be57604080517f08c379a000000000000000000000000000000000000000000000000000000000815260206004820152603260248201527f5061796d656e7453706c69747465723a2070617965657320616e64207368617260448201527f6573206c656e677468206d69736d617463680000000000000000000000000000606482015290519081900360840190fd5b81516000106200022f57604080517f08c379a000000000000000000000000000000000000000000000000000000000815260206004820152601a60248201527f5061796d656e7453706c69747465723a206e6f20706179656573000000000000604482015290519081900360640190fd5b60005b825181101562000290576200028783828151811015156200024f57fe5b9060200190602002015183838151811015156200026857fe5b9060200190602002015162000341640100000000026401000000009004565b60010162000232565b505060058054600160a060020a031916331790819055604051600160a060020a039190911691506000907f8be0079c531659141344cd1fd0a4f28419497f9722a3daafe3b4186f6b6457e0908290a350506005805460a060020a60ff021916905580516200030690600a90602084019062000818565b5050600b8054600160a060020a031916600160a060020a0384161790556200033784640100000000620005bb810204565b50505050620008bd565b600160a060020a0382161515620003df57604080517f08c379a000000000000000000000000000000000000000000000000000000000815260206004820152602c60248201527f5061796d656e7453706c69747465723a206163636f756e74206973207468652060448201527f7a65726f20616464726573730000000000000000000000000000000000000000606482015290519081900360840190fd5b600081116200044f57604080517f08c379a000000000000000000000000000000000000000000000000000000000815260206004820152601d60248201527f5061796d656e7453706c69747465723a20736861726573206172652030000000604482015290519081900360640190fd5b600160a060020a03821660009081526002602052604090205415620004fb57604080517f08c379a000000000000000000000000000000000000000000000000000000000815260206004820152602b60248201527f5061796d656e7453706c69747465723a206163636f756e7420616c726561647960448201527f2068617320736861726573000000000000000000000000000000000000000000606482015290519081900360840190fd5b60048054600181019091557f8a35acfbc15ff81a39ae7d344fd709f28e8600b4aa8c65c6b64bfe7fe36bd19b018054600160a060020a031916600160a060020a0384169081179091556000908152600260205260408120829055546200057090826401000000006200079c8102620014201704565b60005560408051600160a060020a03841681526020810183905281517f40c340f65e17194d14ddddb073d3c9f888e3cb52b5aae0c6c7706b4fbc905fac929181900390910190a15050565b600b5460408051306044820181905260248201928352845160648301528451600094606094600160a060020a0390911693879392829160840190602080870191028083838c5b838110156200061b57818101518382015260200162000601565b50506040805193909501838103601f19018452855250506020810180517fc3dc47ec00000000000000000000000000000000000000000000000000000000600160e060020a0390911617815292518151919750955085945091925081905083835b602083106200069d5780518252601f1990920191602091820191016200067c565b6001836020036101000a0380198251168184511680821785525050505050509050019150506000604051808303816000865af19150503d806000811462000701576040519150601f19603f3d011682016040523d82523d6000602084013e62000706565b606091505b509150915081156200075757600b5460408051600160a060020a039092168252517fce255aea1c9d0ffc899ad635ba04330bd5dc6d0196d9c94ecbca8a78fa7ca6ca9181900360200190a162000797565b600b5460408051600160a060020a039092168252517f963bfa1b56ec34486f7dda320affea81d310180e595b97d57837fbe2b46f9acf9181900360200190a15b505050565b6000828201838110156200081157604080517f08c379a000000000000000000000000000000000000000000000000000000000815260206004820152601b60248201527f536166654d6174683a206164646974696f6e206f766572666c6f770000000000604482015290519081900360640190fd5b9392505050565b828054600181600116156101000203166002900490600052602060002090601f016020900481019282601f106200085b57805160ff19168380011785556200088b565b828001600101855582156200088b579182015b828111156200088b5782518255916020019190600101906200086e565b50620008999291506200089d565b5090565b620008ba91905b80821115620008995760008155600101620008a4565b90565b611e9080620008cd6000396000f3fe60806040526004361061012c577c0100000000000000000000000000000000000000000000000000000000600035046306fdde038114610190578063191655871461021a5780633a98ef391461024d5780633f4ba83a1461027457806357d3c7c3146102895780635c975abb146102bc578063715018a6146102e55780637a9262a2146102fa5780638456cb591461032d5780638771eb35146103425780638b83209b146103575780638ccc7d011461039d5780638da5cb5b1461046c5780638f32d59b14610481578063966dae0e146104965780639852595c146104ab578063a3d89844146104de578063cc168b8a146104f3578063ce7c2ac2146105a6578063e33b7de3146105d9578063e919ecad146105ee578063f2fde38b14610603578063f8c2df0d14610636575b60055460a060020a900460ff161561018e576040805160e560020a62461bcd02815260206004820152601060248201527f5061757361626c653a2070617573656400000000000000000000000000000000604482015290519081900360640190fd5b005b34801561019c57600080fd5b506101a5610671565b6040805160208082528351818301528351919283929083019185019080838360005b838110156101df5781810151838201526020016101c7565b50505050905090810190601f16801561020c5780820380516001836020036101000a031916815260200191505b509250505060405180910390f35b34801561022657600080fd5b5061018e6004803603602081101561023d57600080fd5b5035600160a060020a03166106ff565b34801561025957600080fd5b50610262610a35565b60408051918252519081900360200190f35b34801561028057600080fd5b5061018e610a3c565b34801561029557600080fd5b50610262600480360360208110156102ac57600080fd5b5035600160a060020a0316610b3e565b3480156102c857600080fd5b506102d1610b59565b604080519115158252519081900360200190f35b3480156102f157600080fd5b5061018e610b69565b34801561030657600080fd5b506102626004803603602081101561031d57600080fd5b5035600160a060020a0316610c0c565b34801561033957600080fd5b5061018e610c27565b34801561034e57600080fd5b50610262610d2e565b34801561036357600080fd5b506103816004803603602081101561037a57600080fd5b5035610d34565b60408051600160a060020a039092168252519081900360200190f35b3480156103a957600080fd5b5061018e600480360360408110156103c057600080fd5b8101906020810181356401000000008111156103db57600080fd5b8201836020820111156103ed57600080fd5b8035906020019184602083028401116401000000008311171561040f57600080fd5b91939092909160208101903564010000000081111561042d57600080fd5b82018360208201111561043f57600080fd5b8035906020019184602083028401116401000000008311171561046157600080fd5b509092509050610d60565b34801561047857600080fd5b50610381610f55565b34801561048d57600080fd5b506102d1610f64565b3480156104a257600080fd5b50610381610f75565b3480156104b757600080fd5b50610262600480360360208110156104ce57600080fd5b5035600160a060020a0316610f84565b3480156104ea57600080fd5b50610262610f9f565b3480156104ff57600080fd5b5061018e6004803603602081101561051657600080fd5b81019060208101813564010000000081111561053157600080fd5b82018360208201111561054357600080fd5b8035906020019184600183028401116401000000008311171561056557600080fd5b91908080601f016020809104026020016040519081016040528093929190818152602001838380828437600092019190915250929550610fa5945050505050565b3480156105b257600080fd5b50610262600480360360208110156105c957600080fd5b5035600160a060020a03166110b5565b3480156105e557600080fd5b506102626110d0565b3480156105fa57600080fd5b506102626110d6565b34801561060f57600080fd5b5061018e6004803603602081101561062657600080fd5b5035600160a060020a03166110dc565b34801561064257600080fd5b5061018e6004803603604081101561065957600080fd5b50600160a060020a0381358116916020013516611134565b600a805460408051602060026001851615610100026000190190941693909304601f810184900484028201840190925281815292918301828280156106f75780601f106106cc576101008083540402835291602001916106f7565b820191906000526020600020905b8154815290600101906020018083116106da57829003601f168201915b505050505081565b600160a060020a038116600090815260026020526040812054118061073a5750600160a060020a038116600090815260086020526040812054115b1515610790576040805160e560020a62461bcd02815260206004820152601860248201527f4e6f207368617265732c20616e64206e6f20657363726f770000000000000000604482015290519081900360640190fd5b6007546001546000916107bb916107af9030319063ffffffff61142016565b9063ffffffff61148616565b600160a060020a0383166000908152600260205260408120549192509081101561087157600160a060020a0383166000908152600960209081526040808320548354600290935292205461082b92916107af9161081f90879063ffffffff6114e616565b9063ffffffff61158216565b600160a060020a038416600090815260096020526040902054909150610857908263ffffffff61142016565b600160a060020a0384166000908152600960205260409020555b600160a060020a038316600090815260086020526040812054111561090657600160a060020a0383166000908152600860205260409020546108ba90829063ffffffff61142016565b600160a060020a0384166000908152600860205260409020546006549192506108e9919063ffffffff61148616565b600655600160a060020a0383166000908152600860205260408120555b80151561095d576040805160e560020a62461bcd02815260206004820152601a60248201527f4163636f756e74206973206e6f7420647565207061796d656e74000000000000604482015290519081900360640190fd5b600160a060020a038316600090815260036020526040902054610986908263ffffffff61142016565b600160a060020a0384166000908152600360205260409020556001546109b2908263ffffffff61142016565b600155604051600160a060020a0384169082156108fc029083906000818181858888f193505050501580156109eb573d6000803e3d6000fd5b5060408051600160a060020a03851681526020810183905281517fdf20fd1e76bc69d672e4814fafb2c449bba3a5369d8359adf9e05e6fde87b056929181900390910190a1505050565b6000545b90565b610a44610f64565b1515610a88576040805160e560020a62461bcd0281526020600482018190526024820152600080516020611e45833981519152604482015290519081900360640190fd5b60055460a060020a900460ff161515610aeb576040805160e560020a62461bcd02815260206004820152601460248201527f5061757361626c653a206e6f7420706175736564000000000000000000000000604482015290519081900360640190fd5b6005805474ff0000000000000000000000000000000000000000191690556040805133815290517f5db9ee0a495bf2e6ff9c91a7834c1ba4fdd244a5e8aa4e537bd38aeae4b073aa9181900360200190a1565b600160a060020a031660009081526008602052604090205490565b60055460a060020a900460ff1690565b610b71610f64565b1515610bb5576040805160e560020a62461bcd0281526020600482018190526024820152600080516020611e45833981519152604482015290519081900360640190fd5b600554604051600091600160a060020a0316907f8be0079c531659141344cd1fd0a4f28419497f9722a3daafe3b4186f6b6457e0908390a36005805473ffffffffffffffffffffffffffffffffffffffff19169055565b600160a060020a031660009081526009602052604090205490565b610c2f610f64565b1515610c73576040805160e560020a62461bcd0281526020600482018190526024820152600080516020611e45833981519152604482015290519081900360640190fd5b60055460a060020a900460ff1615610cd5576040805160e560020a62461bcd02815260206004820152601060248201527f5061757361626c653a2070617573656400000000000000000000000000000000604482015290519081900360640190fd5b6005805474ff0000000000000000000000000000000000000000191660a060020a1790556040805133815290517f62e78cea01bee320cd4e420270b5ea74000d11b0c9f74754ebdbfc544b05a2589181900360200190a1565b60075490565b6000600482815481101515610d4557fe5b600091825260209091200154600160a060020a031692915050565b610d68610f64565b1515610dac576040805160e560020a62461bcd0281526020600482018190526024820152600080516020611e45833981519152604482015290519081900360640190fd5b828114610e03576040805160e560020a62461bcd02815260206004820152601e60248201527f5061796565732c20736861726573206c656e677468206d69736d617463680000604482015290519081900360640190fd5b60008311610e5b576040805160e560020a62461bcd02815260206004820152600960248201527f4e6f207061796565730000000000000000000000000000000000000000000000604482015290519081900360640190fd5b610e636115f1565b60005b83811015610eaf57610ea7858583818110610e7d57fe5b90506020020135600160a060020a03168484848181101515610e9b57fe5b90506020020135611881565b600101610e66565b50610eec848480806020026020016040519081016040528093929190818152602001838360200280828437600092019190915250611ab092505050565b7fc7b028f6b169e74091d3560d01b5a1f9601eeaf83bd43ed36e52437d8e4382b4848460405180806020018281038252848482818152602001925060200280828437600083820152604051601f909101601f19169092018290039550909350505050a150505050565b600554600160a060020a031690565b600554600160a060020a0316331490565b600b54600160a060020a031681565b600160a060020a031660009081526003602052604090205490565b60065490565b610fad610f64565b1515610ff1576040805160e560020a62461bcd0281526020600482018190526024820152600080516020611e45833981519152604482015290519081900360640190fd5b805161100490600a906020840190611d8c565b50604080516020808252600a8054600260001961010060018416150201909116049183018290527f72e439a2d2348e4711ee609edf6fcfd2a4ff52ad22d5fc9d05ec02b57e416255939092918291820190849080156110a45780601f10611079576101008083540402835291602001916110a4565b820191906000526020600020905b81548152906001019060200180831161108757829003601f168201915b50509250505060405180910390a150565b600160a060020a031660009081526002602052604090205490565b60015490565b60045490565b6110e4610f64565b1515611128576040805160e560020a62461bcd0281526020600482018190526024820152600080516020611e45833981519152604482015290519081900360640190fd5b61113181611c9d565b50565b61113c610f64565b1515611180576040805160e560020a62461bcd0281526020600482018190526024820152600080516020611e45833981519152604482015290519081900360640190fd5b600160a060020a03811615156111e0576040805160e560020a62461bcd02815260206004820152601a60248201527f4e6577206163636f756e742063616e6e6f74206265207a65726f000000000000604482015290519081900360640190fd5b600160a060020a038216600090815260026020526040812054118061121b5750600160a060020a038216600090815260086020526040812054115b1515611271576040805160e560020a62461bcd02815260206004820152601860248201527f4e6f207368617265732c20616e64206e6f20657363726f770000000000000000604482015290519081900360640190fd5b600160a060020a038281166000908152600360208181526040808420805460028452828620805460088652848820805460098852868a208054968b9055938a9055908990559188905560048054600181019091557f8a35acfbc15ff81a39ae7d344fd709f28e8600b4aa8c65c6b64bfe7fe36bd19b01805473ffffffffffffffffffffffffffffffffffffffff1916998b16998a17905597875294909352932054909392906113209085611420565b600160a060020a038616600090815260036020908152604080832093909355600290522054611355908463ffffffff61142016565b600160a060020a03861660009081526002602090815260408083209390935560089052205461138a908363ffffffff61142016565b600160a060020a0386166000908152600860209081526040808320939093556009905220546113bf908263ffffffff61142016565b600160a060020a03808716600081815260096020908152604091829020949094558051928a1683529282015281517f22eea99e9f771a7aa0fc86b8e63b40072c621b3da7e06116bc73a17a6a9b627f929181900390910190a1505050505050565b60008282018381101561147d576040805160e560020a62461bcd02815260206004820152601b60248201527f536166654d6174683a206164646974696f6e206f766572666c6f770000000000604482015290519081900360640190fd5b90505b92915050565b6000828211156114e0576040805160e560020a62461bcd02815260206004820152601e60248201527f536166654d6174683a207375627472616374696f6e206f766572666c6f770000604482015290519081900360640190fd5b50900390565b60008215156114f757506000611480565b82820282848281151561150657fe5b041461147d576040805160e560020a62461bcd02815260206004820152602160248201527f536166654d6174683a206d756c7469706c69636174696f6e206f766572666c6f60448201527f7700000000000000000000000000000000000000000000000000000000000000606482015290519081900360840190fd5b60008082116115db576040805160e560020a62461bcd02815260206004820152601a60248201527f536166654d6174683a206469766973696f6e206279207a65726f000000000000604482015290519081900360640190fd5b600082848115156115e857fe5b04949350505050565b600754600154600091829161161391906107af9030319063ffffffff61142016565b905060005b6004548110156117cb5760006116af6009600060048581548110151561163a57fe5b6000918252602080832090910154600160a060020a0316835282019290925260400181205481546004805492936107af9361081f92600292918a90811061167d57fe5b6000918252602080832090910154600160a060020a03168352820192909252604001902054889063ffffffff6114e616565b9050600081111561174d5761170281600860006004868154811015156116d157fe5b6000918252602080832090910154600160a060020a031683528201929092526040019020549063ffffffff61142016565b6008600060048581548110151561171557fe5b6000918252602080832090910154600160a060020a0316835282019290925260400190205561174a848263ffffffff61142016565b93505b60006002600060048581548110151561176257fe5b6000918252602080832090910154600160a060020a031683528201929092526040018120919091556004805460099183918690811061179d57fe5b6000918252602080832090910154600160a060020a0316835282019290925260400190205550600101611618565b5060068054830190556001546117e99030319063ffffffff61142016565b6007819055507f84f4dd9c634b94098ae910ceb9d67e720dceff0d9ac480543cd0621beefa708760046040518080602001828103825283818154815260200191508054801561186157602002820191906000526020600020905b8154600160a060020a03168152600190910190602001808311611843575b50509250505060405180910390a1600061187c600482611e0a565b505050565b600160a060020a0382161515611907576040805160e560020a62461bcd02815260206004820152602c60248201527f5061796d656e7453706c69747465723a206163636f756e74206973207468652060448201527f7a65726f20616464726573730000000000000000000000000000000000000000606482015290519081900360840190fd5b6000811161195f576040805160e560020a62461bcd02815260206004820152601d60248201527f5061796d656e7453706c69747465723a20736861726573206172652030000000604482015290519081900360640190fd5b600160a060020a038216600090815260026020526040902054156119f3576040805160e560020a62461bcd02815260206004820152602b60248201527f5061796d656e7453706c69747465723a206163636f756e7420616c726561647960448201527f2068617320736861726573000000000000000000000000000000000000000000606482015290519081900360840190fd5b60048054600181019091557f8a35acfbc15ff81a39ae7d344fd709f28e8600b4aa8c65c6b64bfe7fe36bd19b01805473ffffffffffffffffffffffffffffffffffffffff1916600160a060020a038416908117909155600090815260026020526040812082905554611a659082611420565b60005560408051600160a060020a03841681526020810183905281517f40c340f65e17194d14ddddb073d3c9f888e3cb52b5aae0c6c7706b4fbc905fac929181900390910190a15050565b600b5460408051306044820181905260248201928352845160648301528451600094606094600160a060020a0390911693879392829160840190602080870191028083838c5b83811015611b0e578181015183820152602001611af6565b50506040805193909501838103601f19018452855250506020810180517fc3dc47ec000000000000000000000000000000000000000000000000000000007bffffffffffffffffffffffffffffffffffffffffffffffffffffffff90911617815292518151919750955085945091925081905083835b60208310611ba35780518252601f199092019160209182019101611b84565b6001836020036101000a0380198251168184511680821785525050505050509050019150506000604051808303816000865af19150503d8060008114611c05576040519150601f19603f3d011682016040523d82523d6000602084013e611c0a565b606091505b50915091508115611c5957600b5460408051600160a060020a039092168252517fce255aea1c9d0ffc899ad635ba04330bd5dc6d0196d9c94ecbca8a78fa7ca6ca9181900360200190a161187c565b600b5460408051600160a060020a039092168252517f963bfa1b56ec34486f7dda320affea81d310180e595b97d57837fbe2b46f9acf9181900360200190a1505050565b600160a060020a0381161515611d23576040805160e560020a62461bcd02815260206004820152602660248201527f4f776e61626c653a206e6577206f776e657220697320746865207a65726f206160448201527f6464726573730000000000000000000000000000000000000000000000000000606482015290519081900360840190fd5b600554604051600160a060020a038084169216907f8be0079c531659141344cd1fd0a4f28419497f9722a3daafe3b4186f6b6457e090600090a36005805473ffffffffffffffffffffffffffffffffffffffff1916600160a060020a0392909216919091179055565b828054600181600116156101000203166002900490600052602060002090601f016020900481019282601f10611dcd57805160ff1916838001178555611dfa565b82800160010185558215611dfa579182015b82811115611dfa578251825591602001919060010190611ddf565b50611e06929150611e2a565b5090565b81548183558181111561187c5760008381526020902061187c9181019083015b610a3991905b80821115611e065760008155600101611e3056fe4f776e61626c653a2063616c6c6572206973206e6f7420746865206f776e6572a165627a7a723058200aca4fd48bf4939e4e2a41d23c1b92e174855a892cfd8afbfe9b8ea7d9fd724f0029",
  "source": "/**\r\n *@title Portfolio.\r\n *@author Duncan Brain <duncan@brainenterprise.ca>\r\n *@version 0.5\r\n *@notice This is an EditablePaymentSplitter that stores the root factory and edits the UI state.\r\n */\r\npragma solidity ^0.5.0;\r\n\r\nimport \"./EditablePaymentSplitter.sol\";\r\nimport \"./Nameable.sol\";\r\n\r\ncontract Portfolio is EditablePaymentSplitter, Nameable{\r\n\r\n    /**\r\n     *  Storage\r\n     */\r\n    address public factoryAddress;\r\n\r\n    /**\r\n     *  Events\r\n     */\r\n    event CharityLookupAdded(address factory);\r\n    event CharityLookupNotAdded(address factory);\r\n\r\n    /**\r\n     *  Public Functions\r\n     */\r\n    ///@dev Takes the factory address and updates root factory UI mappings\r\n    //@param _factoryAddress root factory address\r\n    constructor (address[] memory payees, uint256[] memory shares, address _factoryAddress, string memory name)\r\n        EditablePaymentSplitter(payees, shares)\r\n        Nameable(name)\r\n        public\r\n        payable\r\n    {\r\n        factoryAddress = _factoryAddress;\r\n        updateFactoryCharities(payees);\r\n    }\r\n\r\n    ///@dev makes naming only available to owner\r\n    function reName(string memory _name) public onlyOwner{\r\n        name = _name;\r\n        emit Renamed(name);\r\n    }\r\n\r\n    /**\r\n     *  Internal Functions\r\n     */\r\n    ///@dev Updates the UI lookup mapping using an external function call\r\n    ///@param payees is the added payees\r\n    function updateFactoryCharities(address[] memory payees)\r\n        internal\r\n    {\r\n        (bool success, bytes memory returnData) = factoryAddress.call(abi.encodeWithSignature(\"registerCharities(address[],address)\",payees,address(this)));\r\n        if (success){\r\n            emit CharityLookupAdded(factoryAddress);\r\n        }\r\n        else {\r\n            emit CharityLookupNotAdded(factoryAddress);\r\n        }\r\n    }\r\n\r\n    ///@dev This overrides reconstructor in EditablePaymentSplitter to update UI root address\r\n    function reconstructor(address[] calldata payees, uint256[] calldata shares) external onlyOwner {\r\n        require(payees.length == shares.length, \"Payees, shares length mismatch\");\r\n        require(payees.length > 0, \"No payees\");\r\n\r\n        escrowPayees();\r\n\r\n        for (uint256 i = 0; i < payees.length; i++) {\r\n            _addPayee(payees[i], shares[i]);\r\n        }\r\n        updateFactoryCharities(payees);\r\n        emit LogReconstruction(payees);\r\n    }\r\n}",
  "sourcePath": "C:\\Users\\Duncan\\Documents\\Projects\\SuperGood\\contracts\\Portfolio.sol",
  "compiler": {
    "name": "solc",
    "version": "0.5.1+commit.c8a2cb62.Emscripten.clang"
  },
  "schemaVersion": "3.0.11",
  "updatedAt": "2019-08-01T08:38:51.911Z",
  "devdoc": {
    "methods": {
      "constructor": {
        "details": "Takes the factory address and updates root factory UI mappings"
      },
      "escrow(address)": {
        "return": "Returns the total amount remaining in escrow for a specific payee."
      },
      "isOwner()": {
        "return": "Returns true if the caller is the current owner."
      },
      "migratePayee(address,address)": {
        "params": {
          "newAccount": "is the address the funds available will be migrated to"
        }
      },
      "owner()": {
        "return": "Returns the address of the current owner."
      },
      "pause()": {
        "details": "Called by a pauser to pause, triggers stopped state.\r"
      },
      "paused()": {
        "details": "Returns true if the contract is paused, and false otherwise.\r"
      },
      "payee(uint256)": {
        "return": "Returns the address from an index in the payee array."
      },
      "payeesLength()": {
        "return": "Returns an length of array of payees."
      },
      "previousTotalReceived()": {
        "return": "Returns the total amount of Ether received under the previous distribution schemes."
      },
      "reName(string)": {
        "details": "makes naming only available to owner"
      },
      "reconstructor(address[],uint256[])": {
        "details": "This overrides reconstructor in EditablePaymentSplitter to update UI root address"
      },
      "release(address)": {
        "params": {
          "account": "is the address of a payee"
        }
      },
      "released(address)": {
        "return": "Returns the total amount of Ether that has been released to a payee."
      },
      "shares(address)": {
        "return": "Returns the total number of shares the payee has."
      },
      "totalEscrow()": {
        "return": "Returns the total amount not yet released from previous distribution schemes."
      },
      "totalReleased()": {
        "return": "Returns the total amount of Ether that has been released."
      },
      "totalShares()": {
        "return": "Returns the total number of shares."
      },
      "transferOwnership(address)": {
        "details": "Transfers ownership of the contract to a new account (`newOwner`). Can only be called by the current owner."
      },
      "unpause()": {
        "details": "Called by a pauser to unpause, returns to normal state.\r"
      },
      "withdrawals(address)": {
        "return": "Returns the total number of Ether withdrawn under current share distribution."
      }
    }
  },
  "userdoc": {
    "methods": {
      "renounceOwnership()": {
        "notice": "thereby removing any functionality that is only available to the owner."
      }
    }
  }
}