{
  "contractName": "ProofOfExistence2",
  "abi": [
    {
      "inputs": [],
      "payable": false,
      "stateMutability": "nonpayable",
      "type": "constructor"
    },
    {
      "constant": false,
      "inputs": [
        {
          "name": "proof",
          "type": "bytes32"
        }
      ],
      "name": "storeProof",
      "outputs": [],
      "payable": false,
      "stateMutability": "nonpayable",
      "type": "function"
    },
    {
      "constant": false,
      "inputs": [
        {
          "name": "document",
          "type": "string"
        }
      ],
      "name": "notarize",
      "outputs": [],
      "payable": false,
      "stateMutability": "nonpayable",
      "type": "function"
    },
    {
      "constant": true,
      "inputs": [
        {
          "name": "document",
          "type": "string"
        }
      ],
      "name": "proofFor",
      "outputs": [
        {
          "name": "",
          "type": "bytes32"
        }
      ],
      "payable": false,
      "stateMutability": "pure",
      "type": "function"
    },
    {
      "constant": true,
      "inputs": [
        {
          "name": "document",
          "type": "string"
        }
      ],
      "name": "checkDocument",
      "outputs": [
        {
          "name": "",
          "type": "bool"
        }
      ],
      "payable": false,
      "stateMutability": "view",
      "type": "function"
    }
  ],
  "bytecode": "0x608060405234801561001057600080fd5b506104da806100206000396000f3fe608060405234801561001057600080fd5b506004361061004c5760003560e01c806353fb9233146100515780637183616c146101245780638952877b1461019d578063f6c1acdf146101cb575b600080fd5b61010a6004803603602081101561006757600080fd5b810190808035906020019064010000000081111561008457600080fd5b82018360208201111561009657600080fd5b803590602001918460018302840111640100000000831117156100b857600080fd5b91908080601f016020809104026020016040519081016040528093929190818152602001838380828437600081840152601f19601f82011690508083019250505050505050919291929050505061029a565b604051808215151515815260200191505060405180910390f35b61019b6004803603602081101561013a57600080fd5b810190808035906020019064010000000081111561015757600080fd5b82018360208201111561016957600080fd5b8035906020019184600183028401116401000000008311171561018b57600080fd5b90919293919293905050506102b9565b005b6101c9600480360360208110156101b357600080fd5b8101908080359060200190929190505050610318565b005b610284600480360360208110156101e157600080fd5b81019080803590602001906401000000008111156101fe57600080fd5b82018360208201111561021057600080fd5b8035906020019184600183028401116401000000008311171561023257600080fd5b91908080601f016020809104026020016040519081016040528093929190818152602001838380828437600081840152601f19601f820116905080830192505050505050509192919290505050610347565b6040518082815260200191505060405180910390f35b6000806102a683610347565b90506102b181610458565b915050919050565b600061030883838080601f016020809104026020016040519081016040528093929190818152602001838380828437600081840152601f19601f82011690508083019250505050505050610347565b905061031381610318565b505050565b600081908060018154018082558091505090600182039060005260206000200160009091929091909150555050565b60006002826040516020018082805190602001908083835b60208310610382578051825260208201915060208101905060208303925061035f565b6001836020036101000a0380198251168184511680821785525050505050509050019150506040516020818303038152906040526040518082805190602001908083835b602083106103e957805182526020820191506020810190506020830392506103c6565b6001836020036101000a038019825116818451168082178552505050505050905001915050602060405180830381855afa15801561042b573d6000803e3d6000fd5b5050506040513d602081101561044057600080fd5b81019080805190602001909291905050509050919050565b600080600090505b6000805490508110156104a357826000828154811061047b57fe5b906000526020600020015414156104965760019150506104a9565b8080600101915050610460565b50600090505b91905056fea165627a7a72305820961ecda6ff6b1bb11a854f3d3fd5d500a66d5acaa90ff9a97c6389e6984e31600029",
  "source": "pragma solidity ^0.5.0;\n\n\ncontract ProofOfExistence2 {\n    constructor() public {\n    }\n    // state\n    bytes32[] private proofs;\n\n    // store a proof of existence in the contract state\n    // *transactional function*\n    function storeProof(bytes32 proof)\n    public\n    {\n    proofs.push(proof);\n    }\n\n    // calculate and store the proof for a document\n    // *transactional function*\n    function notarize(string calldata document)\n    external\n    {\n    bytes32 proof = proofFor(document);\n    storeProof(proof);\n    }\n\n    // helper function to get a document's sha256\n    // *read-only function*\n    function proofFor(string memory document)\n    pure\n    public\n    returns (bytes32)\n    {\n    return sha256(abi.encodePacked(document));\n    }\n\n    // check if a document has been notarized\n    // *read-only function*\n    function checkDocument(string memory document)\n    public\n    view\n    returns (bool)\n    {\n    bytes32 proof = proofFor(document);\n    return hasProof(proof);\n    }\n\n    // returns true if proof is stored\n    // *read-only function*\n    function hasProof(bytes32 proof)\n    internal\n    view\n    returns (bool)\n    {\n    for (uint256 i = 0; i < proofs.length; i++) {\n    if (proofs[i] == proof) {\n    return true;\n    }\n    }\n    return false;\n    }\n}\n",
  "sourcePath": "C:/Users/Duncan/Documents/Projects/SuperGood/contracts/ProofOfExistence2.sol",
  "compiler": {
    "name": "solc",
    "version": "0.5.8+commit.23d335f2.Emscripten.clang"
  },
  "schemaVersion": "3.0.11",
  "updatedAt": "2019-06-27T12:24:20.925Z",
  "devdoc": {
    "methods": {}
  },
  "userdoc": {
    "methods": {}
  }
}