{
  "contractName": "SuperGood",
  "abi": [
    {
      "constant": true,
      "inputs": [
        {
          "name": "",
          "type": "uint256"
        }
      ],
      "name": "GoodBoards",
      "outputs": [
        {
          "name": "",
          "type": "address"
        }
      ],
      "payable": false,
      "stateMutability": "view",
      "type": "function"
    },
    {
      "constant": true,
      "inputs": [],
      "name": "SubscriptionCost",
      "outputs": [
        {
          "name": "",
          "type": "uint256"
        }
      ],
      "payable": false,
      "stateMutability": "view",
      "type": "function"
    },
    {
      "constant": true,
      "inputs": [
        {
          "name": "",
          "type": "address"
        }
      ],
      "name": "isCharityInstantiation",
      "outputs": [
        {
          "name": "",
          "type": "bool"
        }
      ],
      "payable": false,
      "stateMutability": "view",
      "type": "function"
    },
    {
      "constant": true,
      "inputs": [],
      "name": "UnSubscribeCost",
      "outputs": [
        {
          "name": "",
          "type": "uint256"
        }
      ],
      "payable": false,
      "stateMutability": "view",
      "type": "function"
    },
    {
      "constant": true,
      "inputs": [
        {
          "name": "",
          "type": "address"
        }
      ],
      "name": "isInstantiation",
      "outputs": [
        {
          "name": "",
          "type": "bool"
        }
      ],
      "payable": false,
      "stateMutability": "view",
      "type": "function"
    },
    {
      "constant": true,
      "inputs": [
        {
          "name": "",
          "type": "address"
        },
        {
          "name": "",
          "type": "uint256"
        }
      ],
      "name": "instantiations",
      "outputs": [
        {
          "name": "",
          "type": "address"
        }
      ],
      "payable": false,
      "stateMutability": "view",
      "type": "function"
    },
    {
      "constant": false,
      "inputs": [],
      "name": "renounceOwnership",
      "outputs": [],
      "payable": false,
      "stateMutability": "nonpayable",
      "type": "function"
    },
    {
      "constant": true,
      "inputs": [],
      "name": "owner",
      "outputs": [
        {
          "name": "",
          "type": "address"
        }
      ],
      "payable": false,
      "stateMutability": "view",
      "type": "function"
    },
    {
      "constant": true,
      "inputs": [],
      "name": "isOwner",
      "outputs": [
        {
          "name": "",
          "type": "bool"
        }
      ],
      "payable": false,
      "stateMutability": "view",
      "type": "function"
    },
    {
      "constant": true,
      "inputs": [
        {
          "name": "creator",
          "type": "address"
        }
      ],
      "name": "getInstantiationCount",
      "outputs": [
        {
          "name": "",
          "type": "uint256"
        }
      ],
      "payable": false,
      "stateMutability": "view",
      "type": "function"
    },
    {
      "constant": true,
      "inputs": [
        {
          "name": "",
          "type": "address"
        },
        {
          "name": "",
          "type": "uint256"
        }
      ],
      "name": "SubscribeLookup",
      "outputs": [
        {
          "name": "",
          "type": "address"
        }
      ],
      "payable": false,
      "stateMutability": "view",
      "type": "function"
    },
    {
      "constant": true,
      "inputs": [
        {
          "name": "",
          "type": "address"
        },
        {
          "name": "",
          "type": "uint256"
        }
      ],
      "name": "CharityLookup",
      "outputs": [
        {
          "name": "",
          "type": "address"
        }
      ],
      "payable": false,
      "stateMutability": "view",
      "type": "function"
    },
    {
      "constant": false,
      "inputs": [
        {
          "name": "newOwner",
          "type": "address"
        }
      ],
      "name": "transferOwnership",
      "outputs": [],
      "payable": false,
      "stateMutability": "nonpayable",
      "type": "function"
    },
    {
      "inputs": [],
      "payable": false,
      "stateMutability": "nonpayable",
      "type": "constructor"
    },
    {
      "anonymous": false,
      "inputs": [
        {
          "indexed": false,
          "name": "newGoodBoard",
          "type": "address"
        }
      ],
      "name": "BoardSubscribeAdded",
      "type": "event"
    },
    {
      "anonymous": false,
      "inputs": [
        {
          "indexed": false,
          "name": "subscriber",
          "type": "address"
        },
        {
          "indexed": false,
          "name": "subscribedTo",
          "type": "address"
        }
      ],
      "name": "SubscribeAdded",
      "type": "event"
    },
    {
      "anonymous": false,
      "inputs": [
        {
          "indexed": false,
          "name": "portfolioAddress",
          "type": "address"
        }
      ],
      "name": "CharitySubscribeAdded",
      "type": "event"
    },
    {
      "anonymous": false,
      "inputs": [
        {
          "indexed": true,
          "name": "previousOwner",
          "type": "address"
        },
        {
          "indexed": true,
          "name": "newOwner",
          "type": "address"
        }
      ],
      "name": "OwnershipTransferred",
      "type": "event"
    },
    {
      "anonymous": false,
      "inputs": [
        {
          "indexed": false,
          "name": "sender",
          "type": "address"
        },
        {
          "indexed": false,
          "name": "instantiation",
          "type": "address"
        }
      ],
      "name": "ContractInstantiation",
      "type": "event"
    },
    {
      "constant": false,
      "inputs": [
        {
          "name": "_owners",
          "type": "address[]"
        },
        {
          "name": "name",
          "type": "string"
        }
      ],
      "name": "build",
      "outputs": [],
      "payable": false,
      "stateMutability": "nonpayable",
      "type": "function"
    },
    {
      "constant": false,
      "inputs": [
        {
          "name": "watchAddress",
          "type": "address"
        }
      ],
      "name": "paidSubscribe",
      "outputs": [],
      "payable": true,
      "stateMutability": "payable",
      "type": "function"
    },
    {
      "constant": false,
      "inputs": [
        {
          "name": "watchAddress",
          "type": "address"
        }
      ],
      "name": "paidUnsubscribe",
      "outputs": [],
      "payable": true,
      "stateMutability": "payable",
      "type": "function"
    },
    {
      "constant": false,
      "inputs": [
        {
          "name": "newCostUn",
          "type": "uint256"
        },
        {
          "name": "newCostSub",
          "type": "uint256"
        }
      ],
      "name": "changeSubcriptionCost",
      "outputs": [],
      "payable": false,
      "stateMutability": "nonpayable",
      "type": "function"
    },
    {
      "constant": false,
      "inputs": [],
      "name": "withdraw",
      "outputs": [],
      "payable": false,
      "stateMutability": "nonpayable",
      "type": "function"
    },
    {
      "constant": false,
      "inputs": [
        {
          "name": "_charities",
          "type": "address[]"
        },
        {
          "name": "portfolioAddress",
          "type": "address"
        }
      ],
      "name": "registerCharities",
      "outputs": [],
      "payable": false,
      "stateMutability": "nonpayable",
      "type": "function"
    },
    {
      "constant": false,
      "inputs": [
        {
          "name": "subscriber",
          "type": "address"
        },
        {
          "name": "watchAddress",
          "type": "address"
        }
      ],
      "name": "internalSubscribe",
      "outputs": [],
      "payable": false,
      "stateMutability": "nonpayable",
      "type": "function"
    },
    {
      "constant": true,
      "inputs": [
        {
          "name": "subscriber",
          "type": "address"
        }
      ],
      "name": "getSubscribeLength",
      "outputs": [
        {
          "name": "length",
          "type": "uint256"
        }
      ],
      "payable": false,
      "stateMutability": "view",
      "type": "function"
    },
    {
      "constant": true,
      "inputs": [
        {
          "name": "charity",
          "type": "address"
        }
      ],
      "name": "getCharitySubscribeLength",
      "outputs": [
        {
          "name": "length",
          "type": "uint256"
        }
      ],
      "payable": false,
      "stateMutability": "view",
      "type": "function"
    },
    {
      "constant": true,
      "inputs": [],
      "name": "getGoodBoards",
      "outputs": [
        {
          "name": "",
          "type": "address[]"
        }
      ],
      "payable": false,
      "stateMutability": "view",
      "type": "function"
    }
  ],
  "bytecode": "0x608060405234801561001057600080fd5b5060028054600160a060020a031916331790819055604051600160a060020a0391909116906000907f8be0079c531659141344cd1fd0a4f28419497f9722a3daafe3b4186f6b6457e0908290a3615fa98061006c6000396000f3fe60806040526004361062000144577c010000000000000000000000000000000000000000000000000000000060003504630a8922028114620001495780630d09c948146200019357806314430c7814620001bd57806326b5ec79146200020857806328453a0e14620002205780632d4e971e14620002575780632f4f331614620003325780633ccfd60b146200036957806340afc08d146200038157806357183c8214620003aa5780635e2a405f14620003e7578063715018a614620004515780637286379314620004695780637978454e14620004a85780637be5910714620004df5780638da5cb5b14620005085780638f32d59b14620005205780638f838478146200053857806390eab050146200056f578063c3dc47ec14620005a3578063d57cfd7a1462000630578063e0b78939146200066d578063f2fde38b14620006aa575b600080fd5b3480156200015657600080fd5b5062000177600480360360208110156200016f57600080fd5b5035620006e1565b60408051600160a060020a039092168252519081900360200190f35b348015620001a057600080fd5b50620001ab6200070a565b60408051918252519081900360200190f35b348015620001ca57600080fd5b50620001f460048036036020811015620001e357600080fd5b5035600160a060020a031662000710565b604080519115158252519081900360200190f35b3480156200021557600080fd5b50620001ab62000725565b3480156200022d57600080fd5b50620001ab600480360360208110156200024657600080fd5b5035600160a060020a03166200072b565b3480156200026457600080fd5b5062000330600480360360408110156200027d57600080fd5b8101906020810181356401000000008111156200029957600080fd5b820183602082011115620002ac57600080fd5b80359060200191846020830284011164010000000083111715620002cf57600080fd5b919390929091602081019035640100000000811115620002ee57600080fd5b8201836020820111156200030157600080fd5b803590602001918460018302840111640100000000831117156200032457600080fd5b50909250905062000746565b005b3480156200033f57600080fd5b50620001f4600480360360208110156200035857600080fd5b5035600160a060020a03166200088d565b3480156200037657600080fd5b5062000330620008a2565b62000330600480360360208110156200039957600080fd5b5035600160a060020a031662000938565b348015620003b757600080fd5b506200017760048036036040811015620003d057600080fd5b50600160a060020a03813516906020013562000a0b565b348015620003f457600080fd5b50620003ff62000a43565b60408051602080825283518183015283519192839290830191858101910280838360005b838110156200043d57818101518382015260200162000423565b505050509050019250505060405180910390f35b3480156200045e57600080fd5b506200033062000aa7565b3480156200047657600080fd5b5062000330600480360360408110156200048f57600080fd5b50600160a060020a038135811691602001351662000b41565b348015620004b557600080fd5b50620001ab60048036036020811015620004ce57600080fd5b5035600160a060020a031662000c8f565b6200033060048036036020811015620004f757600080fd5b5035600160a060020a031662000caa565b3480156200051557600080fd5b506200017762000d05565b3480156200052d57600080fd5b50620001f462000d14565b3480156200054557600080fd5b50620001ab600480360360208110156200055e57600080fd5b5035600160a060020a031662000d25565b3480156200057c57600080fd5b5062000330600480360360408110156200059557600080fd5b508035906020013562000d40565b348015620005b057600080fd5b506200033060048036036040811015620005c957600080fd5b810190602081018135640100000000811115620005e557600080fd5b820183602082011115620005f857600080fd5b803590602001918460208302840111640100000000831117156200061b57600080fd5b919350915035600160a060020a031662000d98565b3480156200063d57600080fd5b5062000177600480360360408110156200065657600080fd5b50600160a060020a03813516906020013562000e5b565b3480156200067a57600080fd5b5062000177600480360360408110156200069357600080fd5b50600160a060020a03813516906020013562000e77565b348015620006b757600080fd5b506200033060048036036020811015620006d057600080fd5b5035600160a060020a031662000e93565b6005805482908110620006f057fe5b600091825260209091200154600160a060020a0316905081565b60035481565b600a6020526000908152604090205460ff1681565b60045481565b600160a060020a031660009081526006602052604090205490565b600084843085856200075762001229565b808060200185600160a060020a0316600160a060020a03168152602001806020018381038352888882818152602001925060200280828437600083820152601f01601f1916909101848103835285815260200190508585808284376000838201819052604051601f909201601f19169093018190039a509850909650505050505050f080158015620007ed573d6000803e3d6000fd5b50600580546001810182556000919091527f036b6384b5eca791c62761152d0c79bb0604c104a5fb6f4eb0703f3154bb3db0018054600160a060020a031916600160a060020a0383161790559050620008468162000eee565b6200088685858080602002602001604051908101604052809392919081815260200183836020028082843760009201919091525085925062000f79915050565b5050505050565b60006020819052908152604090205460ff1681565b620008ac62000d14565b1515620008f2576040805160e560020a62461bcd028152602060048201819052602482015260008051602062005f5e833981519152604482015290519081900360640190fd5b620008fc62000d05565b604051600160a060020a039190911690303180156108fc02916000818181858888f1935050505015801562000935573d6000803e3d6000fd5b50565b60035434101562000993576040805160e560020a62461bcd02815260206004820152601760248201527f4d6573736167652076616c756520696e636f7272656374000000000000000000604482015290519081900360640190fd5b3360008181526006602090815260408083208054600181018255908452928290209092018054600160a060020a031916600160a060020a03861690811790915582519384529083015280517f1f813347de9b4c42732b728732e3c1744386259d57a685b8f19cb1cf68c79efe9281900390910190a150565b60016020528160005260406000208181548110151562000a2757fe5b600091825260209091200154600160a060020a03169150829050565b6060600580548060200260200160405190810160405280929190818152602001828054801562000a9d57602002820191906000526020600020905b8154600160a060020a0316815260019091019060200180831162000a7e575b5050505050905090565b62000ab162000d14565b151562000af7576040805160e560020a62461bcd028152602060048201819052602482015260008051602062005f5e833981519152604482015290519081900360640190fd5b600254604051600091600160a060020a0316907f8be0079c531659141344cd1fd0a4f28419497f9722a3daafe3b4186f6b6457e0908390a360028054600160a060020a0319169055565b3360009081526020819052604090205460ff168062000b5f57503330145b151562000bb6576040805160e560020a62461bcd02815260206004820152601160248201527f4e6f7420696e7374616e74696174696f6e000000000000000000000000000000604482015290519081900360640190fd5b600160a060020a0380831660009081526007602090815260408083209385168352929052205460ff16151562000c4657600160a060020a038281166000818152600660209081526040808320805460018082018355918552838520018054600160a060020a03191696881696871790559383526007825280832094835293905291909120805460ff191690911790555b60408051600160a060020a0380851682528316602082015281517f1f813347de9b4c42732b728732e3c1744386259d57a685b8f19cb1cf68c79efe929181900390910190a15050565b600160a060020a031660009081526008602052604090205490565b60045434101562000993576040805160e560020a62461bcd02815260206004820152601760248201527f4d6573736167652076616c756520696e636f7272656374000000000000000000604482015290519081900360640190fd5b600254600160a060020a031690565b600254600160a060020a0316331490565b600160a060020a031660009081526001602052604090205490565b62000d4a62000d14565b151562000d90576040805160e560020a62461bcd028152602060048201819052602482015260008051602062005f5e833981519152604482015290519081900360640190fd5b600355600455565b60005b8281101562000e19576001600a600086868581811062000db757fe5b60209081029290920135600160a060020a0316835250810191909152604001600020805460ff191691151591909117905562000e1084848381811062000df957fe5b90506020020135600160a060020a0316836200107b565b60010162000d9b565b5060408051600160a060020a038316815290517f9e0ce4f4451bea1790a3dbe090878f15ebc0e25127a8ba22b1d55c72de5e9e449181900360200190a1505050565b60066020528160005260406000208181548110151562000a2757fe5b60086020528160005260406000208181548110151562000a2757fe5b62000e9d62000d14565b151562000ee3576040805160e560020a62461bcd028152602060048201819052602482015260008051602062005f5e833981519152604482015290519081900360640190fd5b620009358162001146565b600160a060020a038116600081815260208181526040808320805460ff191660019081179091553380855281845282852080549283018155855293839020018054600160a060020a0319168517905580519283529082019290925281517f4fb057ad4a26ed17a57957fa69c306f11987596069b89521c511fc9a894e6161929181900390910190a150565b60005b82518110156200103a5730600160a060020a03166372863793848381518110151562000fa457fe5b60209081029091010151604080517c010000000000000000000000000000000000000000000000000000000063ffffffff8516028152600160a060020a039283166004820152918616602483015251604480830192600092919082900301818387803b1580156200101457600080fd5b505af115801562001029573d6000803e3d6000fd5b50506001909201915062000f7c9050565b5060408051600160a060020a038316815290517f1c9d76830026520933e9e00760c83a6115b4d7d9eaf7ccd838fbfbc525807b329181900360200190a15050565b600160a060020a0380831660009081526009602090815260408083209385168352929052205460ff16151562000c4657600160a060020a038281166000818152600860209081526040808320805460018082018355918552838520018054600160a060020a031916968816968717905584845260098352818420868552835292819020805460ff1916909317909255815192835282019290925281517f1f813347de9b4c42732b728732e3c1744386259d57a685b8f19cb1cf68c79efe929181900390910190a15050565b600160a060020a0381161515620011cd576040805160e560020a62461bcd02815260206004820152602660248201527f4f776e61626c653a206e6577206f776e657220697320746865207a65726f206160448201527f6464726573730000000000000000000000000000000000000000000000000000606482015290519081900360840190fd5b600254604051600160a060020a038084169216907f8be0079c531659141344cd1fd0a4f28419497f9722a3daafe3b4186f6b6457e090600090a360028054600160a060020a031916600160a060020a0392909216919091179055565b604051614d23806200123b8339019056fe60806040523480156200001157600080fd5b5060405162004d2338038062004d23833981018060405260608110156200003757600080fd5b8101908080516401000000008111156200005057600080fd5b820160208101848111156200006457600080fd5b81518560208202830111640100000000821117156200008257600080fd5b50506020820151604090920180519194929391640100000000811115620000a857600080fd5b82016020810184811115620000bc57600080fd5b8151640100000000811182820187101715620000d757600080fd5b505080519093508592508391508190620000f99060009060208401906200025e565b505081516002810460010160328211158015620001165750818111155b80156200012257508015155b80156200012e57508115155b15156200013a57600080fd5b60005b84518110156200020d576003600086838151811015156200015a57fe5b6020908102909101810151600160a060020a031682528101919091526040016000205460ff16158015620001b1575084516000908690839081106200019b57fe5b90602001906020020151600160a060020a031614155b1515620001bd57600080fd5b6001600360008784815181101515620001d257fe5b602090810291909101810151600160a060020a03168252810191909152604001600020805460ff19169115159190911790556001016200013d565b50835162000223906004906020870190620002e3565b508351600290046001016005555050600a8054600160a060020a031916600160a060020a039590951694909417909355506200039092505050565b828054600181600116156101000203166002900490600052602060002090601f016020900481019282601f10620002a157805160ff1916838001178555620002d1565b82800160010185558215620002d1579182015b82811115620002d1578251825591602001919060010190620002b4565b50620002df92915062000349565b5090565b8280548282559060005260206000209081019282156200033b579160200282015b828111156200033b5782518254600160a060020a031916600160a060020a0390911617825560209092019160019091019062000304565b50620002df92915062000369565b6200036691905b80821115620002df576000815560010162000350565b90565b6200036691905b80821115620002df578054600160a060020a031916815560010162000370565b61498380620003a06000396000f3fe60806040526004361062000174577c01000000000000000000000000000000000000000000000000000000006000350463025e7c278114620001b757806306fdde031462000201578063173825d9146200029157806320ea8d8614620002c85780632f4f331614620002f65780632f54bf6e146200034157806346e24b0814620003785780635474152514620004e357806357183c82146200051b5780635ae300c9146200055857806364bdf0fb14620005705780637065cb48146200059e578063759a282814620005d5578063784547a7146200079d5780638b51d13f14620007cb5780638f83847814620007f9578063966dae0e1462000830578063a8abe69a1462000848578063b21d36a814620008de578063b5dc40c31462000a1b578063b77bf6001462000a49578063c01a8c841462000a61578063cc168b8a1462000a8f578063d74f8edd1462000b49578063e20056e61462000b61578063ee22610b1462000ba0578063ef18374a1462000bce575b6000341115620001b55760408051348152905133917fe1fffcc4923d04b559f4d29a8bfc6cda04eb5b0d3c460751c2402c5c5cc9109c919081900360200190a25b005b348015620001c457600080fd5b50620001e560048036036020811015620001dd57600080fd5b503562000be6565b60408051600160a060020a039092168252519081900360200190f35b3480156200020e57600080fd5b506200021962000c0f565b6040805160208082528351818301528351919283929083019185019080838360005b83811015620002555781810151838201526020016200023b565b50505050905090810190601f168015620002835780820380516001836020036101000a031916815260200191505b509250505060405180910390f35b3480156200029e57600080fd5b50620001b560048036036020811015620002b757600080fd5b5035600160a060020a031662000ca1565b348015620002d557600080fd5b50620001b560048036036020811015620002ee57600080fd5b503562000e1a565b3480156200030357600080fd5b506200032d600480360360208110156200031c57600080fd5b5035600160a060020a031662000ed7565b604080519115158252519081900360200190f35b3480156200034e57600080fd5b506200032d600480360360208110156200036757600080fd5b5035600160a060020a031662000eec565b3480156200038557600080fd5b50620004d1600480360360808110156200039e57600080fd5b600160a060020a0382351691602081013591810190606081016040820135640100000000811115620003cf57600080fd5b820183602082011115620003e257600080fd5b803590602001918460018302840111640100000000831117156200040557600080fd5b91908080601f01602080910402602001604051908101604052809392919081815260200183838082843760009201919091525092959493602081019350359150506401000000008111156200045957600080fd5b8201836020820111156200046c57600080fd5b803590602001918460018302840111640100000000831117156200048f57600080fd5b91908080601f01602080910402602001604051908101604052809392919081815260200183838082843760009201919091525092955062000f01945050505050565b60408051918252519081900360200190f35b348015620004f057600080fd5b50620004d1600480360360408110156200050957600080fd5b50803515159060200135151562000f47565b3480156200052857600080fd5b50620001e5600480360360408110156200054157600080fd5b50600160a060020a03813516906020013562000fb9565b3480156200056557600080fd5b50620004d162000ff1565b3480156200057d57600080fd5b50620001e5600480360360208110156200059657600080fd5b503562000ff8565b348015620005ab57600080fd5b50620001b560048036036020811015620005c457600080fd5b5035600160a060020a031662001007565b348015620005e257600080fd5b50620001b560048036036060811015620005fb57600080fd5b8101906020810181356401000000008111156200061757600080fd5b8201836020820111156200062a57600080fd5b803590602001918460208302840111640100000000831117156200064d57600080fd5b91908080602002602001604051908101604052809392919081815260200183836020028082843760009201919091525092959493602081019350359150506401000000008111156200069e57600080fd5b820183602082011115620006b157600080fd5b80359060200191846020830284011164010000000083111715620006d457600080fd5b91908080602002602001604051908101604052809392919081815260200183836020028082843760009201919091525092959493602081019350359150506401000000008111156200072557600080fd5b8201836020820111156200073857600080fd5b803590602001918460018302840111640100000000831117156200075b57600080fd5b91908080601f0160208091040260200160405190810160405280939291908181526020018383808284376000920191909152509295506200111b945050505050565b348015620007aa57600080fd5b506200032d60048036036020811015620007c357600080fd5b5035620012d9565b348015620007d857600080fd5b50620004d160048036036020811015620007f157600080fd5b503562001366565b3480156200080657600080fd5b50620004d1600480360360208110156200081f57600080fd5b5035600160a060020a0316620013d9565b3480156200083d57600080fd5b50620001e5620013f4565b3480156200085557600080fd5b506200088c600480360360808110156200086e57600080fd5b50803590602081013590604081013515159060600135151562001403565b60408051602080825283518183015283519192839290830191858101910280838360005b83811015620008ca578181015183820152602001620008b0565b505050509050019250505060405180910390f35b348015620008eb57600080fd5b506200090c600480360360208110156200090457600080fd5b503562001540565b6040518086600160a060020a0316600160a060020a03168152602001858152602001806020018415151515815260200180602001838103835286818151815260200191508051906020019080838360005b83811015620009775781810151838201526020016200095d565b50505050905090810190601f168015620009a55780820380516001836020036101000a031916815260200191505b50838103825284518152845160209182019186019080838360005b83811015620009da578181015183820152602001620009c0565b50505050905090810190601f16801562000a085780820380516001836020036101000a031916815260200191505b5097505050505050505060405180910390f35b34801562000a2857600080fd5b506200088c6004803603602081101562000a4157600080fd5b503562001696565b34801562000a5657600080fd5b50620004d162001813565b34801562000a6e57600080fd5b50620001b56004803603602081101562000a8757600080fd5b503562001819565b34801562000a9c57600080fd5b50620001b56004803603602081101562000ab557600080fd5b81019060208101813564010000000081111562000ad157600080fd5b82018360208201111562000ae457600080fd5b8035906020019184600183028401116401000000008311171562000b0757600080fd5b91908080601f016020809104026020016040519081016040528093929190818152602001838380828437600092019190915250929550620018e7945050505050565b34801562000b5657600080fd5b50620004d1620019be565b34801562000b6e57600080fd5b50620001b56004803603604081101562000b8757600080fd5b50600160a060020a0381358116916020013516620019c3565b34801562000bad57600080fd5b50620001b56004803603602081101562000bc657600080fd5b503562001b4f565b34801562000bdb57600080fd5b50620004d162001d15565b600480548290811062000bf557fe5b600091825260209091200154600160a060020a0316905081565b6000805460408051602060026001851615610100026000190190941693909304601f8101849004840282018401909252818152929183018282801562000c995780601f1062000c6d5761010080835404028352916020019162000c99565b820191906000526020600020905b81548152906001019060200180831162000c7b57829003601f168201915b505050505081565b33301462000cae57600080fd5b600160a060020a038116600090815260036020526040902054819060ff16151562000cd857600080fd5b600160a060020a0382166000908152600360205260408120805460ff191690555b6004546000190181101562000db55782600160a060020a031660048281548110151562000d2257fe5b600091825260209091200154600160a060020a0316141562000dac5760048054600019810190811062000d5157fe5b60009182526020909120015460048054600160a060020a03909216918390811062000d7857fe5b9060005260206000200160006101000a815481600160a060020a030219169083600160a060020a0316021790555062000db5565b60010162000cf9565b5060048054600019019062000dcb908262002120565b5060045462000de2906002905b0460010162001d1b565b604051600160a060020a038316907f8001553a916ef2f495d26a907cc54d96ed840d7bda71e73194bf5a9df7a76b9090600090a25050565b3360008181526003602052604090205460ff16151562000e3957600080fd5b60008281526002602090815260408083203380855292529091205483919060ff16151562000e6657600080fd5b600084815260016020526040902060030154849060ff161562000e8857600080fd5b6000858152600260209081526040808320338085529252808320805460ff191690555187927ff6a317157440607f36269043eb55f1287a5a19ba2216afeab88cd46cbcfb88e991a35050505050565b60076020526000908152604090205460ff1681565b60036020526000908152604090205460ff1681565b3360008181526003602052604081205490919060ff16151562000f2357600080fd5b62000f318686868662001d9f565b915062000f3e8262001819565b50949350505050565b6000805b60065481101562000fb25783801562000f76575060008181526001602052604090206003015460ff16155b8062000f9c575082801562000f9c575060008181526001602052604090206003015460ff165b1562000fa9576001820191505b60010162000f4b565b5092915050565b60086020528160005260406000208181548110151562000fd557fe5b600091825260209091200154600160a060020a03169150829050565b6009545b90565b600980548290811062000bf557fe5b3330146200101457600080fd5b600160a060020a038116600090815260036020526040902054819060ff16156200103d57600080fd5b81600160a060020a03811615156200105457600080fd5b600160a060020a0383166000818152600360205260408120805460ff19166001908117909155600480549182018155918290527f8a35acfbc15ff81a39ae7d344fd709f28e8600b4aa8c65c6b64bfe7fe36bd19b01805473ffffffffffffffffffffffffffffffffffffffff191690921790915554620010d79060029062000dd8565b604051600160a060020a038416907ff39e6e1eb0edcf53c221607b54b00cd28f3196fed0a24994dc308b8f611b682d90600090a2620011168362001ebb565b505050565b3330146200112857600080fd5b600a5460009084908490600160a060020a0316846200114662002147565b600160a060020a0383166040820152608080825285519082015284518190602080830191606084019160a08501918a8201910280838360005b83811015620011995781810151838201526020016200117f565b50505050905001848103835287818151815260200191508051906020019060200280838360005b83811015620011da578181015183820152602001620011c0565b50505050905001848103825285818151815260200191508051906020019080838360005b8381101562001218578181015183820152602001620011fe565b50505050905090810190601f168015620012465780820380516001836020036101000a031916815260200191505b50975050505050505050604051809103906000f0801580156200126d573d6000803e3d6000fd5b50600980546001810182556000919091527f6e1540171b6c0c960b71a7020d9f60077f6af931a8bbf590da0223dacf75c7af01805473ffffffffffffffffffffffffffffffffffffffff1916600160a060020a0383161790559050620012d38162002062565b50505050565b600080805b6004548110156200135e57600084815260026020526040812060048054919291849081106200130957fe5b6000918252602080832090910154600160a060020a0316835282019290925260400190205460ff16156200133e576001820191505b600554821415620013555760019250505062001361565b600101620012de565b50505b919050565b6000805b600454811015620013d357600083815260026020526040812060048054919291849081106200139557fe5b6000918252602080832090910154600160a060020a0316835282019290925260400190205460ff1615620013ca576001820191505b6001016200136a565b50919050565b600160a060020a031660009081526008602052604090205490565b600a54600160a060020a031681565b60608060065460405190808252806020026020018201604052801562001433578160200160208202803883390190505b5090506000805b600654811015620014bb5785801562001464575060008181526001602052604090206003015460ff165b806200148a57508480156200148a575060008181526001602052604090206003015460ff165b15620014b257808383815181101515620014a057fe5b60209081029091010152600191909101905b6001016200143a565b878703604051908082528060200260200182016040528015620014e8578160200160208202803883390190505b5093508790505b86811015620015355782818151811015156200150757fe5b90602001906020020151848983038151811015156200152257fe5b60209081029091010152600101620014ef565b505050949350505050565b6001602081815260009283526040928390208054818401546002808401805488516101009882161598909802600019011691909104601f8101869004860287018601909752868652600160a060020a039092169590949293830182828015620015ed5780601f10620015c157610100808354040283529160200191620015ed565b820191906000526020600020905b815481529060010190602001808311620015cf57829003601f168201915b50505050600383015460048401805460408051602060026101006001861615026000190190941693909304601f8101849004840282018401909252818152959660ff90941695939450908301828280156200168c5780601f1062001660576101008083540402835291602001916200168c565b820191906000526020600020905b8154815290600101906020018083116200166e57829003601f168201915b5050505050905085565b606080600480549050604051908082528060200260200182016040528015620016c9578160200160208202803883390190505b5090506000805b600454811015620017875760008581526002602052604081206004805491929184908110620016fb57fe5b6000918252602080832090910154600160a060020a0316835282019290925260400190205460ff16156200177e5760048054829081106200173857fe5b6000918252602090912001548351600160a060020a03909116908490849081106200175f57fe5b600160a060020a03909216602092830290910190910152600191909101905b600101620016d0565b81604051908082528060200260200182016040528015620017b2578160200160208202803883390190505b509350600090505b818110156200180b578281815181101515620017d257fe5b906020019060200201518482815181101515620017eb57fe5b600160a060020a03909216602092830290910190910152600101620017ba565b505050919050565b60065481565b3360008181526003602052604090205460ff1615156200183857600080fd5b6000828152600160205260409020548290600160a060020a031615156200185e57600080fd5b60008381526002602090815260408083203380855292529091205484919060ff16156200188a57600080fd5b6000858152600260209081526040808320338085529252808320805460ff191660011790555187927f4a504a94899432a9846e1aa406dceb1bcfd538bb839071d49d1e5e23f5be30ef91a3620018e08562001b4f565b5050505050565b333014620018f457600080fd5b80516200190990600090602084019062002158565b5060408051602080825260008054600260001961010060018416150201909116049183018290527f72e439a2d2348e4711ee609edf6fcfd2a4ff52ad22d5fc9d05ec02b57e41625593909291829182019084908015620019ad5780601f106200198157610100808354040283529160200191620019ad565b820191906000526020600020905b8154815290600101906020018083116200198f57829003601f168201915b50509250505060405180910390a150565b603281565b333014620019d057600080fd5b600160a060020a038216600090815260036020526040902054829060ff161515620019fa57600080fd5b600160a060020a038216600090815260036020526040902054829060ff161562001a2357600080fd5b60005b60045481101562001ab55784600160a060020a031660048281548110151562001a4b57fe5b600091825260209091200154600160a060020a0316141562001aac578360048281548110151562001a7857fe5b9060005260206000200160006101000a815481600160a060020a030219169083600160a060020a0316021790555062001ab5565b60010162001a26565b50600160a060020a03808516600081815260036020526040808220805460ff1990811690915593871682528082208054909416600117909355915190917f8001553a916ef2f495d26a907cc54d96ed840d7bda71e73194bf5a9df7a76b9091a2604051600160a060020a038416907ff39e6e1eb0edcf53c221607b54b00cd28f3196fed0a24994dc308b8f611b682d90600090a250505050565b3360008181526003602052604090205460ff16151562001b6e57600080fd5b60008281526002602090815260408083203380855292529091205483919060ff16151562001b9b57600080fd5b600084815260016020526040902060030154849060ff161562001bbd57600080fd5b62001bc885620012d9565b15620018e05760008581526001602081815260409283902060038101805460ff1916841790558054818401546002808401805488516101009882161598909802600019011691909104601f8101869004860287018601909752868652929562001c9e95600160a060020a03909316949193909291839083018282801562001c935780601f1062001c675761010080835404028352916020019162001c93565b820191906000526020600020905b81548152906001019060200180831162001c7557829003601f168201915b5050505050620020fd565b1562001cd55760405186907f33e13ecb54c3076d8e8bb8c2881800a4d972b792045ffae98fdf46df365fed7590600090a262001d0d565b60405186907f526441bb6c1aba3c9a4a6ca1d6545da9c2333c8c48343ef398eb858d72b7923690600090a260038101805460ff191690555b505050505050565b60045490565b33301462001d2857600080fd5b600454816032821180159062001d3e5750818111155b801562001d4a57508015155b801562001d5657508115155b151562001d6257600080fd5b60058390556040805184815290517fa3f1ee9126a074d9326c682f561767f710e927faa811f7a99829d49dc421797a9181900360200190a1505050565b600084600160a060020a038116151562001db857600080fd5b6006546040805160a081018252600160a060020a03898116825260208083018a81528385018a8152600060608601819052608086018b905287815260018085529690208551815473ffffffffffffffffffffffffffffffffffffffff19169516949094178455905194830194909455925180519496509193909262001e4592600285019291019062002158565b50606082015160038201805460ff19169115159190911790556080820151805162001e7b91600484019160209091019062002158565b50506006805460010190555060405182907fc0ba8fe4b176c1714197d43b9cc6bcf797a4a7461c5fe8d0ef6e184ae7601e5190600090a250949350505050565b600a5460408051600160a060020a0384811660248301523060448084019190915283518084039091018152606490920183526020820180517bffffffffffffffffffffffffffffffffffffffffffffffffffffffff167f7286379300000000000000000000000000000000000000000000000000000000178152925182516000956060959316939282918083835b6020831062001f6a5780518252601f19909201916020918201910162001f49565b6001836020036101000a0380198251168184511680821785525050505050509050019150506000604051808303816000865af19150503d806000811462001fce576040519150601f19603f3d011682016040523d82523d6000602084013e62001fd3565b606091505b50915091508115620020215760408051600160a060020a038516815290517fa78f0f10a429d0004466d60400e9bed5361cdb50f7c8a6669c908b3911e3bf5b9181900360200190a162001116565b60408051600160a060020a038516815290517f1652108c604468ffb3d0098a13ec86c059a65a78433a4cd8a52621e343e898d99181900360200190a1505050565b600160a060020a0381166000818152600760209081526040808320805460ff1916600190811790915533808552600884528285208054928301815585529383902001805473ffffffffffffffffffffffffffffffffffffffff19168517905580519283529082019290925281517f4fb057ad4a26ed17a57957fa69c306f11987596069b89521c511fc9a894e6161929181900390910190a150565b6000806040516020840160008287838a8c6187965a03f198975050505050505050565b815481835581811115620011165760008381526020902062001116918101908301620021dd565b60405161275d80620021fb83390190565b828054600181600116156101000203166002900490600052602060002090601f016020900481019282601f106200219b57805160ff1916838001178555620021cb565b82800160010185558215620021cb579182015b82811115620021cb578251825591602001919060010190620021ae565b50620021d9929150620021dd565b5090565b62000ff591905b80821115620021d95760008155600101620021e456fe60806040526040516200275d3803806200275d833981018060405260808110156200002957600080fd5b8101908080516401000000008111156200004257600080fd5b820160208101848111156200005657600080fd5b81518560208202830111640100000000821117156200007457600080fd5b505092919060200180516401000000008111156200009157600080fd5b82016020810184811115620000a557600080fd5b8151856020820283011164010000000082111715620000c357600080fd5b50506020820151604090920180519194929391640100000000811115620000e957600080fd5b82016020810184811115620000fd57600080fd5b81516401000000008111828201871017156200011857600080fd5b5050929190505050808484818180518251141515620001be57604080517f08c379a000000000000000000000000000000000000000000000000000000000815260206004820152603260248201527f5061796d656e7453706c69747465723a2070617965657320616e64207368617260448201527f6573206c656e677468206d69736d617463680000000000000000000000000000606482015290519081900360840190fd5b81516000106200022f57604080517f08c379a000000000000000000000000000000000000000000000000000000000815260206004820152601a60248201527f5061796d656e7453706c69747465723a206e6f20706179656573000000000000604482015290519081900360640190fd5b60005b825181101562000290576200028783828151811015156200024f57fe5b9060200190602002015183838151811015156200026857fe5b9060200190602002015162000341640100000000026401000000009004565b60010162000232565b505060058054600160a060020a031916331790819055604051600160a060020a039190911691506000907f8be0079c531659141344cd1fd0a4f28419497f9722a3daafe3b4186f6b6457e0908290a350506005805460a060020a60ff021916905580516200030690600a90602084019062000818565b5050600b8054600160a060020a031916600160a060020a0384161790556200033784640100000000620005bb810204565b50505050620008bd565b600160a060020a0382161515620003df57604080517f08c379a000000000000000000000000000000000000000000000000000000000815260206004820152602c60248201527f5061796d656e7453706c69747465723a206163636f756e74206973207468652060448201527f7a65726f20616464726573730000000000000000000000000000000000000000606482015290519081900360840190fd5b600081116200044f57604080517f08c379a000000000000000000000000000000000000000000000000000000000815260206004820152601d60248201527f5061796d656e7453706c69747465723a20736861726573206172652030000000604482015290519081900360640190fd5b600160a060020a03821660009081526002602052604090205415620004fb57604080517f08c379a000000000000000000000000000000000000000000000000000000000815260206004820152602b60248201527f5061796d656e7453706c69747465723a206163636f756e7420616c726561647960448201527f2068617320736861726573000000000000000000000000000000000000000000606482015290519081900360840190fd5b60048054600181019091557f8a35acfbc15ff81a39ae7d344fd709f28e8600b4aa8c65c6b64bfe7fe36bd19b018054600160a060020a031916600160a060020a0384169081179091556000908152600260205260408120829055546200057090826401000000006200079c8102620014201704565b60005560408051600160a060020a03841681526020810183905281517f40c340f65e17194d14ddddb073d3c9f888e3cb52b5aae0c6c7706b4fbc905fac929181900390910190a15050565b600b5460408051306044820181905260248201928352845160648301528451600094606094600160a060020a0390911693879392829160840190602080870191028083838c5b838110156200061b57818101518382015260200162000601565b50506040805193909501838103601f19018452855250506020810180517fc3dc47ec00000000000000000000000000000000000000000000000000000000600160e060020a0390911617815292518151919750955085945091925081905083835b602083106200069d5780518252601f1990920191602091820191016200067c565b6001836020036101000a0380198251168184511680821785525050505050509050019150506000604051808303816000865af19150503d806000811462000701576040519150601f19603f3d011682016040523d82523d6000602084013e62000706565b606091505b509150915081156200075757600b5460408051600160a060020a039092168252517fce255aea1c9d0ffc899ad635ba04330bd5dc6d0196d9c94ecbca8a78fa7ca6ca9181900360200190a162000797565b600b5460408051600160a060020a039092168252517f963bfa1b56ec34486f7dda320affea81d310180e595b97d57837fbe2b46f9acf9181900360200190a15b505050565b6000828201838110156200081157604080517f08c379a000000000000000000000000000000000000000000000000000000000815260206004820152601b60248201527f536166654d6174683a206164646974696f6e206f766572666c6f770000000000604482015290519081900360640190fd5b9392505050565b828054600181600116156101000203166002900490600052602060002090601f016020900481019282601f106200085b57805160ff19168380011785556200088b565b828001600101855582156200088b579182015b828111156200088b5782518255916020019190600101906200086e565b50620008999291506200089d565b5090565b620008ba91905b80821115620008995760008155600101620008a4565b90565b611e9080620008cd6000396000f3fe60806040526004361061012c577c0100000000000000000000000000000000000000000000000000000000600035046306fdde038114610190578063191655871461021a5780633a98ef391461024d5780633f4ba83a1461027457806357d3c7c3146102895780635c975abb146102bc578063715018a6146102e55780637a9262a2146102fa5780638456cb591461032d5780638771eb35146103425780638b83209b146103575780638ccc7d011461039d5780638da5cb5b1461046c5780638f32d59b14610481578063966dae0e146104965780639852595c146104ab578063a3d89844146104de578063cc168b8a146104f3578063ce7c2ac2146105a6578063e33b7de3146105d9578063e919ecad146105ee578063f2fde38b14610603578063f8c2df0d14610636575b60055460a060020a900460ff161561018e576040805160e560020a62461bcd02815260206004820152601060248201527f5061757361626c653a2070617573656400000000000000000000000000000000604482015290519081900360640190fd5b005b34801561019c57600080fd5b506101a5610671565b6040805160208082528351818301528351919283929083019185019080838360005b838110156101df5781810151838201526020016101c7565b50505050905090810190601f16801561020c5780820380516001836020036101000a031916815260200191505b509250505060405180910390f35b34801561022657600080fd5b5061018e6004803603602081101561023d57600080fd5b5035600160a060020a03166106ff565b34801561025957600080fd5b50610262610a35565b60408051918252519081900360200190f35b34801561028057600080fd5b5061018e610a3c565b34801561029557600080fd5b50610262600480360360208110156102ac57600080fd5b5035600160a060020a0316610b3e565b3480156102c857600080fd5b506102d1610b59565b604080519115158252519081900360200190f35b3480156102f157600080fd5b5061018e610b69565b34801561030657600080fd5b506102626004803603602081101561031d57600080fd5b5035600160a060020a0316610c0c565b34801561033957600080fd5b5061018e610c27565b34801561034e57600080fd5b50610262610d2e565b34801561036357600080fd5b506103816004803603602081101561037a57600080fd5b5035610d34565b60408051600160a060020a039092168252519081900360200190f35b3480156103a957600080fd5b5061018e600480360360408110156103c057600080fd5b8101906020810181356401000000008111156103db57600080fd5b8201836020820111156103ed57600080fd5b8035906020019184602083028401116401000000008311171561040f57600080fd5b91939092909160208101903564010000000081111561042d57600080fd5b82018360208201111561043f57600080fd5b8035906020019184602083028401116401000000008311171561046157600080fd5b509092509050610d60565b34801561047857600080fd5b50610381610f55565b34801561048d57600080fd5b506102d1610f64565b3480156104a257600080fd5b50610381610f75565b3480156104b757600080fd5b50610262600480360360208110156104ce57600080fd5b5035600160a060020a0316610f84565b3480156104ea57600080fd5b50610262610f9f565b3480156104ff57600080fd5b5061018e6004803603602081101561051657600080fd5b81019060208101813564010000000081111561053157600080fd5b82018360208201111561054357600080fd5b8035906020019184600183028401116401000000008311171561056557600080fd5b91908080601f016020809104026020016040519081016040528093929190818152602001838380828437600092019190915250929550610fa5945050505050565b3480156105b257600080fd5b50610262600480360360208110156105c957600080fd5b5035600160a060020a03166110b5565b3480156105e557600080fd5b506102626110d0565b3480156105fa57600080fd5b506102626110d6565b34801561060f57600080fd5b5061018e6004803603602081101561062657600080fd5b5035600160a060020a03166110dc565b34801561064257600080fd5b5061018e6004803603604081101561065957600080fd5b50600160a060020a0381358116916020013516611134565b600a805460408051602060026001851615610100026000190190941693909304601f810184900484028201840190925281815292918301828280156106f75780601f106106cc576101008083540402835291602001916106f7565b820191906000526020600020905b8154815290600101906020018083116106da57829003601f168201915b505050505081565b600160a060020a038116600090815260026020526040812054118061073a5750600160a060020a038116600090815260086020526040812054115b1515610790576040805160e560020a62461bcd02815260206004820152601860248201527f4e6f207368617265732c20616e64206e6f20657363726f770000000000000000604482015290519081900360640190fd5b6007546001546000916107bb916107af9030319063ffffffff61142016565b9063ffffffff61148616565b600160a060020a0383166000908152600260205260408120549192509081101561087157600160a060020a0383166000908152600960209081526040808320548354600290935292205461082b92916107af9161081f90879063ffffffff6114e616565b9063ffffffff61158216565b600160a060020a038416600090815260096020526040902054909150610857908263ffffffff61142016565b600160a060020a0384166000908152600960205260409020555b600160a060020a038316600090815260086020526040812054111561090657600160a060020a0383166000908152600860205260409020546108ba90829063ffffffff61142016565b600160a060020a0384166000908152600860205260409020546006549192506108e9919063ffffffff61148616565b600655600160a060020a0383166000908152600860205260408120555b80151561095d576040805160e560020a62461bcd02815260206004820152601a60248201527f4163636f756e74206973206e6f7420647565207061796d656e74000000000000604482015290519081900360640190fd5b600160a060020a038316600090815260036020526040902054610986908263ffffffff61142016565b600160a060020a0384166000908152600360205260409020556001546109b2908263ffffffff61142016565b600155604051600160a060020a0384169082156108fc029083906000818181858888f193505050501580156109eb573d6000803e3d6000fd5b5060408051600160a060020a03851681526020810183905281517fdf20fd1e76bc69d672e4814fafb2c449bba3a5369d8359adf9e05e6fde87b056929181900390910190a1505050565b6000545b90565b610a44610f64565b1515610a88576040805160e560020a62461bcd0281526020600482018190526024820152600080516020611e45833981519152604482015290519081900360640190fd5b60055460a060020a900460ff161515610aeb576040805160e560020a62461bcd02815260206004820152601460248201527f5061757361626c653a206e6f7420706175736564000000000000000000000000604482015290519081900360640190fd5b6005805474ff0000000000000000000000000000000000000000191690556040805133815290517f5db9ee0a495bf2e6ff9c91a7834c1ba4fdd244a5e8aa4e537bd38aeae4b073aa9181900360200190a1565b600160a060020a031660009081526008602052604090205490565b60055460a060020a900460ff1690565b610b71610f64565b1515610bb5576040805160e560020a62461bcd0281526020600482018190526024820152600080516020611e45833981519152604482015290519081900360640190fd5b600554604051600091600160a060020a0316907f8be0079c531659141344cd1fd0a4f28419497f9722a3daafe3b4186f6b6457e0908390a36005805473ffffffffffffffffffffffffffffffffffffffff19169055565b600160a060020a031660009081526009602052604090205490565b610c2f610f64565b1515610c73576040805160e560020a62461bcd0281526020600482018190526024820152600080516020611e45833981519152604482015290519081900360640190fd5b60055460a060020a900460ff1615610cd5576040805160e560020a62461bcd02815260206004820152601060248201527f5061757361626c653a2070617573656400000000000000000000000000000000604482015290519081900360640190fd5b6005805474ff0000000000000000000000000000000000000000191660a060020a1790556040805133815290517f62e78cea01bee320cd4e420270b5ea74000d11b0c9f74754ebdbfc544b05a2589181900360200190a1565b60075490565b6000600482815481101515610d4557fe5b600091825260209091200154600160a060020a031692915050565b610d68610f64565b1515610dac576040805160e560020a62461bcd0281526020600482018190526024820152600080516020611e45833981519152604482015290519081900360640190fd5b828114610e03576040805160e560020a62461bcd02815260206004820152601e60248201527f5061796565732c20736861726573206c656e677468206d69736d617463680000604482015290519081900360640190fd5b60008311610e5b576040805160e560020a62461bcd02815260206004820152600960248201527f4e6f207061796565730000000000000000000000000000000000000000000000604482015290519081900360640190fd5b610e636115f1565b60005b83811015610eaf57610ea7858583818110610e7d57fe5b90506020020135600160a060020a03168484848181101515610e9b57fe5b90506020020135611881565b600101610e66565b50610eec848480806020026020016040519081016040528093929190818152602001838360200280828437600092019190915250611ab092505050565b7fc7b028f6b169e74091d3560d01b5a1f9601eeaf83bd43ed36e52437d8e4382b4848460405180806020018281038252848482818152602001925060200280828437600083820152604051601f909101601f19169092018290039550909350505050a150505050565b600554600160a060020a031690565b600554600160a060020a0316331490565b600b54600160a060020a031681565b600160a060020a031660009081526003602052604090205490565b60065490565b610fad610f64565b1515610ff1576040805160e560020a62461bcd0281526020600482018190526024820152600080516020611e45833981519152604482015290519081900360640190fd5b805161100490600a906020840190611d8c565b50604080516020808252600a8054600260001961010060018416150201909116049183018290527f72e439a2d2348e4711ee609edf6fcfd2a4ff52ad22d5fc9d05ec02b57e416255939092918291820190849080156110a45780601f10611079576101008083540402835291602001916110a4565b820191906000526020600020905b81548152906001019060200180831161108757829003601f168201915b50509250505060405180910390a150565b600160a060020a031660009081526002602052604090205490565b60015490565b60045490565b6110e4610f64565b1515611128576040805160e560020a62461bcd0281526020600482018190526024820152600080516020611e45833981519152604482015290519081900360640190fd5b61113181611c9d565b50565b61113c610f64565b1515611180576040805160e560020a62461bcd0281526020600482018190526024820152600080516020611e45833981519152604482015290519081900360640190fd5b600160a060020a03811615156111e0576040805160e560020a62461bcd02815260206004820152601a60248201527f4e6577206163636f756e742063616e6e6f74206265207a65726f000000000000604482015290519081900360640190fd5b600160a060020a038216600090815260026020526040812054118061121b5750600160a060020a038216600090815260086020526040812054115b1515611271576040805160e560020a62461bcd02815260206004820152601860248201527f4e6f207368617265732c20616e64206e6f20657363726f770000000000000000604482015290519081900360640190fd5b600160a060020a038281166000908152600360208181526040808420805460028452828620805460088652848820805460098852868a208054968b9055938a9055908990559188905560048054600181019091557f8a35acfbc15ff81a39ae7d344fd709f28e8600b4aa8c65c6b64bfe7fe36bd19b01805473ffffffffffffffffffffffffffffffffffffffff1916998b16998a17905597875294909352932054909392906113209085611420565b600160a060020a038616600090815260036020908152604080832093909355600290522054611355908463ffffffff61142016565b600160a060020a03861660009081526002602090815260408083209390935560089052205461138a908363ffffffff61142016565b600160a060020a0386166000908152600860209081526040808320939093556009905220546113bf908263ffffffff61142016565b600160a060020a03808716600081815260096020908152604091829020949094558051928a1683529282015281517f22eea99e9f771a7aa0fc86b8e63b40072c621b3da7e06116bc73a17a6a9b627f929181900390910190a1505050505050565b60008282018381101561147d576040805160e560020a62461bcd02815260206004820152601b60248201527f536166654d6174683a206164646974696f6e206f766572666c6f770000000000604482015290519081900360640190fd5b90505b92915050565b6000828211156114e0576040805160e560020a62461bcd02815260206004820152601e60248201527f536166654d6174683a207375627472616374696f6e206f766572666c6f770000604482015290519081900360640190fd5b50900390565b60008215156114f757506000611480565b82820282848281151561150657fe5b041461147d576040805160e560020a62461bcd02815260206004820152602160248201527f536166654d6174683a206d756c7469706c69636174696f6e206f766572666c6f60448201527f7700000000000000000000000000000000000000000000000000000000000000606482015290519081900360840190fd5b60008082116115db576040805160e560020a62461bcd02815260206004820152601a60248201527f536166654d6174683a206469766973696f6e206279207a65726f000000000000604482015290519081900360640190fd5b600082848115156115e857fe5b04949350505050565b600754600154600091829161161391906107af9030319063ffffffff61142016565b905060005b6004548110156117cb5760006116af6009600060048581548110151561163a57fe5b6000918252602080832090910154600160a060020a0316835282019290925260400181205481546004805492936107af9361081f92600292918a90811061167d57fe5b6000918252602080832090910154600160a060020a03168352820192909252604001902054889063ffffffff6114e616565b9050600081111561174d5761170281600860006004868154811015156116d157fe5b6000918252602080832090910154600160a060020a031683528201929092526040019020549063ffffffff61142016565b6008600060048581548110151561171557fe5b6000918252602080832090910154600160a060020a0316835282019290925260400190205561174a848263ffffffff61142016565b93505b60006002600060048581548110151561176257fe5b6000918252602080832090910154600160a060020a031683528201929092526040018120919091556004805460099183918690811061179d57fe5b6000918252602080832090910154600160a060020a0316835282019290925260400190205550600101611618565b5060068054830190556001546117e99030319063ffffffff61142016565b6007819055507f84f4dd9c634b94098ae910ceb9d67e720dceff0d9ac480543cd0621beefa708760046040518080602001828103825283818154815260200191508054801561186157602002820191906000526020600020905b8154600160a060020a03168152600190910190602001808311611843575b50509250505060405180910390a1600061187c600482611e0a565b505050565b600160a060020a0382161515611907576040805160e560020a62461bcd02815260206004820152602c60248201527f5061796d656e7453706c69747465723a206163636f756e74206973207468652060448201527f7a65726f20616464726573730000000000000000000000000000000000000000606482015290519081900360840190fd5b6000811161195f576040805160e560020a62461bcd02815260206004820152601d60248201527f5061796d656e7453706c69747465723a20736861726573206172652030000000604482015290519081900360640190fd5b600160a060020a038216600090815260026020526040902054156119f3576040805160e560020a62461bcd02815260206004820152602b60248201527f5061796d656e7453706c69747465723a206163636f756e7420616c726561647960448201527f2068617320736861726573000000000000000000000000000000000000000000606482015290519081900360840190fd5b60048054600181019091557f8a35acfbc15ff81a39ae7d344fd709f28e8600b4aa8c65c6b64bfe7fe36bd19b01805473ffffffffffffffffffffffffffffffffffffffff1916600160a060020a038416908117909155600090815260026020526040812082905554611a659082611420565b60005560408051600160a060020a03841681526020810183905281517f40c340f65e17194d14ddddb073d3c9f888e3cb52b5aae0c6c7706b4fbc905fac929181900390910190a15050565b600b5460408051306044820181905260248201928352845160648301528451600094606094600160a060020a0390911693879392829160840190602080870191028083838c5b83811015611b0e578181015183820152602001611af6565b50506040805193909501838103601f19018452855250506020810180517fc3dc47ec000000000000000000000000000000000000000000000000000000007bffffffffffffffffffffffffffffffffffffffffffffffffffffffff90911617815292518151919750955085945091925081905083835b60208310611ba35780518252601f199092019160209182019101611b84565b6001836020036101000a0380198251168184511680821785525050505050509050019150506000604051808303816000865af19150503d8060008114611c05576040519150601f19603f3d011682016040523d82523d6000602084013e611c0a565b606091505b50915091508115611c5957600b5460408051600160a060020a039092168252517fce255aea1c9d0ffc899ad635ba04330bd5dc6d0196d9c94ecbca8a78fa7ca6ca9181900360200190a161187c565b600b5460408051600160a060020a039092168252517f963bfa1b56ec34486f7dda320affea81d310180e595b97d57837fbe2b46f9acf9181900360200190a1505050565b600160a060020a0381161515611d23576040805160e560020a62461bcd02815260206004820152602660248201527f4f776e61626c653a206e6577206f776e657220697320746865207a65726f206160448201527f6464726573730000000000000000000000000000000000000000000000000000606482015290519081900360840190fd5b600554604051600160a060020a038084169216907f8be0079c531659141344cd1fd0a4f28419497f9722a3daafe3b4186f6b6457e090600090a36005805473ffffffffffffffffffffffffffffffffffffffff1916600160a060020a0392909216919091179055565b828054600181600116156101000203166002900490600052602060002090601f016020900481019282601f10611dcd57805160ff1916838001178555611dfa565b82800160010185558215611dfa579182015b82811115611dfa578251825591602001919060010190611ddf565b50611e06929150611e2a565b5090565b81548183558181111561187c5760008381526020902061187c9181019083015b610a3991905b80821115611e065760008155600101611e3056fe4f776e61626c653a2063616c6c6572206973206e6f7420746865206f776e6572a165627a7a723058200aca4fd48bf4939e4e2a41d23c1b92e174855a892cfd8afbfe9b8ea7d9fd724f0029a165627a7a723058208759d4332fd0b65c6f9b22ee75ac4a11c1d0b228702a605dc3bf4e1efceb71b600294f776e61626c653a2063616c6c6572206973206e6f7420746865206f776e6572a165627a7a72305820f0e8a2f0777b3bc60578e7b7e4a8068a3b3be4bbb030d78aaaa45174a0989ae40029",
  "source": "/**\r\n *@title SuperGood.\r\n *@author Duncan Brain <duncan@brainenterprise.ca>\r\n *@version 0.5\r\n *@notice This is a factory that makes 'GoodBoards' and Subscribes Board member.\r\n */\r\n\r\npragma solidity ^0.5.0;\r\n\r\nimport \"./GoodBoard.sol\";\r\nimport \"./Ownable.sol\";\r\nimport \"./Factory.sol\";\r\n\r\ncontract SuperGood is Factory, Ownable{\r\n\r\n    /*\r\n     *  Storage\r\n     */\r\n    uint public SubscriptionCost; //Free Initially\r\n    uint public UnSubscribeCost; //Free Initially\r\n    address[] public GoodBoards;\r\n    mapping(address => address[]) public SubscribeLookup;\r\n    mapping(address => mapping(address => bool)) isDupeSubscribe;\r\n    mapping(address => address[]) public CharityLookup;\r\n    mapping(address => mapping(address => bool)) isDupeCharity;\r\n    mapping(address => bool) public isCharityInstantiation;\r\n\r\n    /*\r\n     *  Events\r\n     */\r\n    event BoardSubscribeAdded(address newGoodBoard);\r\n    event SubscribeAdded(address subscriber, address subscribedTo);\r\n    event CharitySubscribeAdded(address portfolioAddress);\r\n\r\n\r\n    /*\r\n     * Public functions\r\n     */\r\n    constructor() public\r\n    {}\r\n\r\n    ///@dev Builds a payment splitter portfolio that can be reconstructed\r\n    ///@param _owners would be an array of board member addresses.\r\n    function build(address[] calldata _owners, string calldata name) external {\r\n        address newGoodBoard = address(new GoodBoard(_owners, address(this), name));\r\n        GoodBoards.push(newGoodBoard);\r\n        register(newGoodBoard);\r\n        registerBoard(_owners, newGoodBoard);\r\n    }\r\n\r\n    ///@dev Registers subscribers for UI.\r\n    ///@param watchAddress would be an array of board member addresses.\r\n    function paidSubscribe(address watchAddress)\r\n        public\r\n        payable\r\n\r\n    {\r\n        require(msg.value >= UnSubscribeCost, \"Message value incorrect\");\r\n        SubscribeLookup[msg.sender].push(watchAddress);\r\n        emit SubscribeAdded(msg.sender, watchAddress);\r\n    }\r\n\r\n    ///@dev Registers subscribers for UI.\r\n    ///@param watchAddress would be an array of board member addresses.\r\n    function paidUnsubscribe(address watchAddress)\r\n        public\r\n        payable\r\n\r\n    {\r\n        require(msg.value >= SubscriptionCost, \"Message value incorrect\");\r\n        SubscribeLookup[msg.sender].push(watchAddress);\r\n        emit SubscribeAdded(msg.sender, watchAddress);\r\n    }\r\n\r\n\r\n    ///@dev Changes the current subscription cost.\r\n    ///@param newCostUn value in wei un subscription cost.\r\n    ///@param newCostSub value in wei subscription cost.\r\n    function changeSubcriptionCost(uint newCostUn, uint newCostSub)\r\n        public\r\n        onlyOwner\r\n    {\r\n        SubscriptionCost = newCostSub;\r\n        UnSubscribeCost = newCostUn;\r\n    }\r\n\r\n    ///@dev Withdraws funds.\r\n    function withdraw() public onlyOwner{\r\n        owner().transfer(address(this).balance);\r\n    }\r\n\r\n    /*\r\n     * Internal functions\r\n     */\r\n    ///@dev Registers Board members for UI.\r\n    ///@param _owners would be an array of board member addresses.\r\n    ///@param GoodBoardAddress would be the board address.\r\n    function registerBoard(address[] memory _owners, address GoodBoardAddress)\r\n        internal\r\n    {\r\n        for(uint i = 0; i < _owners.length; i++){\r\n            this.internalSubscribe(_owners[i], GoodBoardAddress);\r\n        }\r\n        emit BoardSubscribeAdded(GoodBoardAddress);\r\n    }\r\n\r\n    ///@dev Registers charities for UI.\r\n    ///@param charityAddresss would be the charity address.\r\n    ///@param watchAddress would be the GoodPortfolio addresses.\r\n    function charitySubscribe(address charityAddress, address watchAddress)\r\n        internal\r\n    {\r\n        //require(isCharityInstantiation[msg.sender] || isInstantiation[msg.sender], \"Calling address not board instantiation\");\r\n        if(!isDupeCharity[charityAddress][watchAddress]){\r\n            CharityLookup[charityAddress].push(watchAddress);\r\n            isDupeCharity[charityAddress][watchAddress] = true;\r\n        }\r\n        emit SubscribeAdded(charityAddress, watchAddress);\r\n    }\r\n\r\n    /*\r\n     * External functions\r\n     */\r\n    ///@dev Registers Charities for UI.\r\n    ///@param _charities would be an array of charity addresses.\r\n    ///@param portfolioAddress would be the portfolio address.\r\n    function registerCharities(address[] calldata _charities, address portfolioAddress)\r\n        external\r\n    {\r\n        for(uint i = 0; i < _charities.length; i++){\r\n            isCharityInstantiation[_charities[i]] = true;\r\n            charitySubscribe(_charities[i], portfolioAddress);\r\n        }\r\n        emit CharitySubscribeAdded(portfolioAddress);\r\n    }\r\n\r\n    ///@dev Registers subscribers for UI.\r\n    ///@param subscriber would be the board member address.\r\n    ///@param watchAddress would be the GoodBoard addresses.\r\n    function internalSubscribe(address subscriber, address watchAddress)\r\n        external\r\n    {\r\n        require(isInstantiation[msg.sender] || msg.sender == address(this), \"Not instantiation\");\r\n        if(!isDupeSubscribe[subscriber][watchAddress]){\r\n            SubscribeLookup[subscriber].push(watchAddress);\r\n            isDupeSubscribe[subscriber][watchAddress] = true;\r\n        }\r\n        emit SubscribeAdded(subscriber, watchAddress);\r\n    }\r\n\r\n    /*\r\n     * Getter functions\r\n     */\r\n     ///@dev returns amount of subscriptions given a subscriber address\r\n     ///@param subscriber address of subscriber\r\n     ///@return number of subscriptions + interested portfolios\r\n     function getSubscribeLength(address subscriber)\r\n        public\r\n        view\r\n        returns(uint length)\r\n    {\r\n        return(SubscribeLookup[subscriber].length);\r\n    }\r\n\r\n    ///@dev returns amount of subscriptions given a charity address\r\n    ///@param charity address of charity.\r\n    ///@return number of portfolios a charity is in\r\n    function getCharitySubscribeLength(address charity)\r\n        public\r\n        view\r\n        returns(uint length)\r\n    {\r\n        return(CharityLookup[charity].length);\r\n    }\r\n\r\n    ///@dev returns array of GoodBoards instantiated\r\n    ///@return array of GoodBoards\r\n    function getGoodBoards()\r\n        public\r\n        view\r\n        returns(address[] memory)\r\n    {\r\n        return GoodBoards;\r\n    }\r\n\r\n}",
  "sourcePath": "C:/Users/Duncan/Documents/Projects/SuperGood/contracts/SuperGood.sol",
  "compiler": {
    "name": "solc",
    "version": "0.5.1+commit.c8a2cb62.Emscripten.clang"
  },
  "schemaVersion": "3.0.11",
  "updatedAt": "2019-08-01T08:38:52.865Z",
  "devdoc": {
    "methods": {
      "build(address[],string)": {
        "params": {
          "_owners": "would be an array of board member addresses."
        }
      },
      "changeSubcriptionCost(uint256,uint256)": {
        "params": {
          "newCostSub": "value in wei subscription cost."
        }
      },
      "getCharitySubscribeLength(address)": {
        "return": "number of portfolios a charity is in"
      },
      "getGoodBoards()": {
        "return": "array of GoodBoards"
      },
      "getInstantiationCount(address)": {
        "return": "Returns number of instantiations by creator."
      },
      "getSubscribeLength(address)": {
        "return": "number of subscriptions + interested portfolios"
      },
      "internalSubscribe(address,address)": {
        "params": {
          "watchAddress": "would be the GoodBoard addresses."
        }
      },
      "isOwner()": {
        "return": "Returns true if the caller is the current owner."
      },
      "owner()": {
        "return": "Returns the address of the current owner."
      },
      "paidSubscribe(address)": {
        "params": {
          "watchAddress": "would be an array of board member addresses."
        }
      },
      "paidUnsubscribe(address)": {
        "params": {
          "watchAddress": "would be an array of board member addresses."
        }
      },
      "registerCharities(address[],address)": {
        "params": {
          "portfolioAddress": "would be the portfolio address."
        }
      },
      "transferOwnership(address)": {
        "details": "Transfers ownership of the contract to a new account (`newOwner`). Can only be called by the current owner."
      },
      "withdraw()": {
        "details": "Withdraws funds."
      }
    }
  },
  "userdoc": {
    "methods": {
      "renounceOwnership()": {
        "notice": "thereby removing any functionality that is only available to the owner."
      }
    }
  }
}